
ProjektWyswietlaczLEDnapis.elf:     file format elf32-avr

Sections:
Idx Name          Size      VMA       LMA       File off  Algn
  0 .text         00002810  00000000  00000000  00000074  2**1
                  CONTENTS, ALLOC, LOAD, READONLY, CODE
  1 .data         00000108  00800060  00002810  00002884  2**0
                  CONTENTS, ALLOC, LOAD, DATA
  2 .debug_aranges 00000180  00000000  00000000  0000298c  2**0
                  CONTENTS, READONLY, DEBUGGING
  3 .debug_pubnames 000001d1  00000000  00000000  00002b0c  2**0
                  CONTENTS, READONLY, DEBUGGING
  4 .debug_info   00002010  00000000  00000000  00002cdd  2**0
                  CONTENTS, READONLY, DEBUGGING
  5 .debug_abbrev 00001161  00000000  00000000  00004ced  2**0
                  CONTENTS, READONLY, DEBUGGING
  6 .debug_line   00001003  00000000  00000000  00005e4e  2**0
                  CONTENTS, READONLY, DEBUGGING
  7 .debug_frame  000001a0  00000000  00000000  00006e54  2**2
                  CONTENTS, READONLY, DEBUGGING
  8 .debug_str    000002be  00000000  00000000  00006ff4  2**0
                  CONTENTS, READONLY, DEBUGGING
  9 .debug_loc    0000090e  00000000  00000000  000072b2  2**0
                  CONTENTS, READONLY, DEBUGGING
 10 .debug_ranges 00000050  00000000  00000000  00007bc0  2**0
                  CONTENTS, READONLY, DEBUGGING

Disassembly of section .text:

00000000 <__vectors>:
       0:	0c 94 2a 00 	jmp	0x54	; 0x54 <__ctors_end>
       4:	0c 94 3f 00 	jmp	0x7e	; 0x7e <__bad_interrupt>
       8:	0c 94 3f 00 	jmp	0x7e	; 0x7e <__bad_interrupt>
       c:	0c 94 3f 00 	jmp	0x7e	; 0x7e <__bad_interrupt>
      10:	0c 94 3f 00 	jmp	0x7e	; 0x7e <__bad_interrupt>
      14:	0c 94 3f 00 	jmp	0x7e	; 0x7e <__bad_interrupt>
      18:	0c 94 3f 00 	jmp	0x7e	; 0x7e <__bad_interrupt>
      1c:	0c 94 3f 00 	jmp	0x7e	; 0x7e <__bad_interrupt>
      20:	0c 94 3f 00 	jmp	0x7e	; 0x7e <__bad_interrupt>
      24:	0c 94 3f 00 	jmp	0x7e	; 0x7e <__bad_interrupt>
      28:	0c 94 3f 00 	jmp	0x7e	; 0x7e <__bad_interrupt>
      2c:	0c 94 3f 00 	jmp	0x7e	; 0x7e <__bad_interrupt>
      30:	0c 94 3f 00 	jmp	0x7e	; 0x7e <__bad_interrupt>
      34:	0c 94 3f 00 	jmp	0x7e	; 0x7e <__bad_interrupt>
      38:	0c 94 3f 00 	jmp	0x7e	; 0x7e <__bad_interrupt>
      3c:	0c 94 3f 00 	jmp	0x7e	; 0x7e <__bad_interrupt>
      40:	0c 94 3f 00 	jmp	0x7e	; 0x7e <__bad_interrupt>
      44:	0c 94 3f 00 	jmp	0x7e	; 0x7e <__bad_interrupt>
      48:	0c 94 3f 00 	jmp	0x7e	; 0x7e <__bad_interrupt>
      4c:	0c 94 3f 00 	jmp	0x7e	; 0x7e <__bad_interrupt>
      50:	0c 94 3f 00 	jmp	0x7e	; 0x7e <__bad_interrupt>

00000054 <__ctors_end>:
      54:	11 24       	eor	r1, r1
      56:	1f be       	out	0x3f, r1	; 63
      58:	cf e5       	ldi	r28, 0x5F	; 95
      5a:	d8 e0       	ldi	r29, 0x08	; 8
      5c:	de bf       	out	0x3e, r29	; 62
      5e:	cd bf       	out	0x3d, r28	; 61

00000060 <__do_copy_data>:
      60:	11 e0       	ldi	r17, 0x01	; 1
      62:	a0 e6       	ldi	r26, 0x60	; 96
      64:	b0 e0       	ldi	r27, 0x00	; 0
      66:	e0 e1       	ldi	r30, 0x10	; 16
      68:	f8 e2       	ldi	r31, 0x28	; 40
      6a:	02 c0       	rjmp	.+4      	; 0x70 <.do_copy_data_start>

0000006c <.do_copy_data_loop>:
      6c:	05 90       	lpm	r0, Z+
      6e:	0d 92       	st	X+, r0

00000070 <.do_copy_data_start>:
      70:	a8 36       	cpi	r26, 0x68	; 104
      72:	b1 07       	cpc	r27, r17
      74:	d9 f7       	brne	.-10     	; 0x6c <.do_copy_data_loop>
      76:	0e 94 52 00 	call	0xa4	; 0xa4 <main>
      7a:	0c 94 06 14 	jmp	0x280c	; 0x280c <_exit>

0000007e <__bad_interrupt>:
      7e:	0c 94 00 00 	jmp	0	; 0x0 <__vectors>

00000082 <klawisz_wcisniety>:
      82:	28 2f       	mov	r18, r24
      84:	80 b3       	in	r24, 0x10	; 16
      86:	82 23       	and	r24, r18
      88:	11 f0       	breq	.+4      	; 0x8e <klawisz_wcisniety+0xc>
      8a:	90 e0       	ldi	r25, 0x00	; 0
      8c:	09 c0       	rjmp	.+18     	; 0xa0 <klawisz_wcisniety+0x1e>
      8e:	80 e2       	ldi	r24, 0x20	; 32
      90:	9e e4       	ldi	r25, 0x4E	; 78
      92:	01 97       	sbiw	r24, 0x01	; 1
      94:	f1 f7       	brne	.-4      	; 0x92 <klawisz_wcisniety+0x10>
      96:	80 b3       	in	r24, 0x10	; 16
      98:	90 e0       	ldi	r25, 0x00	; 0
      9a:	82 23       	and	r24, r18
      9c:	09 f4       	brne	.+2      	; 0xa0 <klawisz_wcisniety+0x1e>
      9e:	91 e0       	ldi	r25, 0x01	; 1
      a0:	89 2f       	mov	r24, r25
      a2:	08 95       	ret

000000a4 <main>:
      a4:	2f 92       	push	r2
      a6:	3f 92       	push	r3
      a8:	4f 92       	push	r4
      aa:	5f 92       	push	r5
      ac:	6f 92       	push	r6
      ae:	7f 92       	push	r7
      b0:	8f 92       	push	r8
      b2:	9f 92       	push	r9
      b4:	af 92       	push	r10
      b6:	bf 92       	push	r11
      b8:	cf 92       	push	r12
      ba:	df 92       	push	r13
      bc:	ef 92       	push	r14
      be:	ff 92       	push	r15
      c0:	0f 93       	push	r16
      c2:	1f 93       	push	r17
      c4:	df 93       	push	r29
      c6:	cf 93       	push	r28
      c8:	cd b7       	in	r28, 0x3d	; 61
      ca:	de b7       	in	r29, 0x3e	; 62
      cc:	c2 59       	subi	r28, 0x92	; 146
      ce:	d4 40       	sbci	r29, 0x04	; 4
      d0:	0f b6       	in	r0, 0x3f	; 63
      d2:	f8 94       	cli
      d4:	de bf       	out	0x3e, r29	; 62
      d6:	0f be       	out	0x3f, r0	; 63
      d8:	cd bf       	out	0x3d, r28	; 61
      da:	0f 93       	push	r16
      dc:	04 b7       	in	r16, 0x34	; 52
      de:	00 68       	ori	r16, 0x80	; 128
      e0:	f8 94       	cli
      e2:	04 bf       	out	0x34, r16	; 52
      e4:	04 bf       	out	0x34, r16	; 52
      e6:	78 94       	sei
      e8:	0f 91       	pop	r16
      ea:	8f ef       	ldi	r24, 0xFF	; 255
      ec:	8a bb       	out	0x1a, r24	; 26
      ee:	87 bb       	out	0x17, r24	; 23
      f0:	84 bb       	out	0x14, r24	; 20
      f2:	9f e3       	ldi	r25, 0x3F	; 63
      f4:	91 bb       	out	0x11, r25	; 17
      f6:	8b bb       	out	0x1b, r24	; 27
      f8:	88 bb       	out	0x18, r24	; 24
      fa:	85 bb       	out	0x15, r24	; 21
      fc:	82 bb       	out	0x12, r24	; 18
      fe:	fe 01       	movw	r30, r28
     100:	31 96       	adiw	r30, 0x01	; 1
     102:	82 e9       	ldi	r24, 0x92	; 146
     104:	94 e0       	ldi	r25, 0x04	; 4
     106:	df 01       	movw	r26, r30
     108:	9c 01       	movw	r18, r24
     10a:	1d 92       	st	X+, r1
     10c:	21 50       	subi	r18, 0x01	; 1
     10e:	30 40       	sbci	r19, 0x00	; 0
     110:	e1 f7       	brne	.-8      	; 0x10a <main+0x66>
     112:	81 e0       	ldi	r24, 0x01	; 1
     114:	89 83       	std	Y+1, r24	; 0x01
     116:	8a 83       	std	Y+2, r24	; 0x02
     118:	8b 83       	std	Y+3, r24	; 0x03
     11a:	8c 83       	std	Y+4, r24	; 0x04
     11c:	8d 83       	std	Y+5, r24	; 0x05
     11e:	8e 83       	std	Y+6, r24	; 0x06
     120:	8f 83       	std	Y+7, r24	; 0x07
     122:	88 87       	std	Y+8, r24	; 0x08
     124:	89 87       	std	Y+9, r24	; 0x09
     126:	8a 87       	std	Y+10, r24	; 0x0a
     128:	8b 87       	std	Y+11, r24	; 0x0b
     12a:	8c 87       	std	Y+12, r24	; 0x0c
     12c:	8d 87       	std	Y+13, r24	; 0x0d
     12e:	8e 87       	std	Y+14, r24	; 0x0e
     130:	8f 87       	std	Y+15, r24	; 0x0f
     132:	88 8b       	std	Y+16, r24	; 0x10
     134:	89 8b       	std	Y+17, r24	; 0x11
     136:	8a 8b       	std	Y+18, r24	; 0x12
     138:	8b 8b       	std	Y+19, r24	; 0x13
     13a:	8c 8b       	std	Y+20, r24	; 0x14
     13c:	8d 8b       	std	Y+21, r24	; 0x15
     13e:	8e 8b       	std	Y+22, r24	; 0x16
     140:	8f 8b       	std	Y+23, r24	; 0x17
     142:	88 8f       	std	Y+24, r24	; 0x18
     144:	89 8f       	std	Y+25, r24	; 0x19
     146:	8a 8f       	std	Y+26, r24	; 0x1a
     148:	8b 8f       	std	Y+27, r24	; 0x1b
     14a:	8c 8f       	std	Y+28, r24	; 0x1c
     14c:	8d 8f       	std	Y+29, r24	; 0x1d
     14e:	8e 8f       	std	Y+30, r24	; 0x1e
     150:	8f 8f       	std	Y+31, r24	; 0x1f
     152:	88 a3       	std	Y+32, r24	; 0x20
     154:	89 a3       	std	Y+33, r24	; 0x21
     156:	8a a3       	std	Y+34, r24	; 0x22
     158:	8b a3       	std	Y+35, r24	; 0x23
     15a:	8c a3       	std	Y+36, r24	; 0x24
     15c:	8d a3       	std	Y+37, r24	; 0x25
     15e:	8e a3       	std	Y+38, r24	; 0x26
     160:	8f a3       	std	Y+39, r24	; 0x27
     162:	88 a7       	std	Y+40, r24	; 0x28
     164:	89 a7       	std	Y+41, r24	; 0x29
     166:	8a a7       	std	Y+42, r24	; 0x2a
     168:	8b a7       	std	Y+43, r24	; 0x2b
     16a:	8c a7       	std	Y+44, r24	; 0x2c
     16c:	8d a7       	std	Y+45, r24	; 0x2d
     16e:	89 ab       	std	Y+49, r24	; 0x31
     170:	8a ab       	std	Y+50, r24	; 0x32
     172:	8c ab       	std	Y+52, r24	; 0x34
     174:	8d ab       	std	Y+53, r24	; 0x35
     176:	8f ab       	std	Y+55, r24	; 0x37
     178:	89 af       	std	Y+57, r24	; 0x39
     17a:	8a af       	std	Y+58, r24	; 0x3a
     17c:	8c af       	std	Y+60, r24	; 0x3c
     17e:	fe 01       	movw	r30, r28
     180:	e0 5c       	subi	r30, 0xC0	; 192
     182:	ff 4f       	sbci	r31, 0xFF	; 255
     184:	80 83       	st	Z, r24
     186:	fe 01       	movw	r30, r28
     188:	ef 5b       	subi	r30, 0xBF	; 191
     18a:	ff 4f       	sbci	r31, 0xFF	; 255
     18c:	80 83       	st	Z, r24
     18e:	fe 01       	movw	r30, r28
     190:	ed 5b       	subi	r30, 0xBD	; 189
     192:	ff 4f       	sbci	r31, 0xFF	; 255
     194:	80 83       	st	Z, r24
     196:	fe 01       	movw	r30, r28
     198:	ec 5b       	subi	r30, 0xBC	; 188
     19a:	ff 4f       	sbci	r31, 0xFF	; 255
     19c:	80 83       	st	Z, r24
     19e:	fe 01       	movw	r30, r28
     1a0:	eb 5b       	subi	r30, 0xBB	; 187
     1a2:	ff 4f       	sbci	r31, 0xFF	; 255
     1a4:	80 83       	st	Z, r24
     1a6:	fe 01       	movw	r30, r28
     1a8:	ea 5b       	subi	r30, 0xBA	; 186
     1aa:	ff 4f       	sbci	r31, 0xFF	; 255
     1ac:	80 83       	st	Z, r24
     1ae:	fe 01       	movw	r30, r28
     1b0:	e8 5b       	subi	r30, 0xB8	; 184
     1b2:	ff 4f       	sbci	r31, 0xFF	; 255
     1b4:	80 83       	st	Z, r24
     1b6:	fe 01       	movw	r30, r28
     1b8:	e7 5b       	subi	r30, 0xB7	; 183
     1ba:	ff 4f       	sbci	r31, 0xFF	; 255
     1bc:	80 83       	st	Z, r24
     1be:	fe 01       	movw	r30, r28
     1c0:	e6 5b       	subi	r30, 0xB6	; 182
     1c2:	ff 4f       	sbci	r31, 0xFF	; 255
     1c4:	80 83       	st	Z, r24
     1c6:	fe 01       	movw	r30, r28
     1c8:	e5 5b       	subi	r30, 0xB5	; 181
     1ca:	ff 4f       	sbci	r31, 0xFF	; 255
     1cc:	80 83       	st	Z, r24
     1ce:	fe 01       	movw	r30, r28
     1d0:	e4 5b       	subi	r30, 0xB4	; 180
     1d2:	ff 4f       	sbci	r31, 0xFF	; 255
     1d4:	80 83       	st	Z, r24
     1d6:	fe 01       	movw	r30, r28
     1d8:	e3 5b       	subi	r30, 0xB3	; 179
     1da:	ff 4f       	sbci	r31, 0xFF	; 255
     1dc:	80 83       	st	Z, r24
     1de:	fe 01       	movw	r30, r28
     1e0:	e2 5b       	subi	r30, 0xB2	; 178
     1e2:	ff 4f       	sbci	r31, 0xFF	; 255
     1e4:	80 83       	st	Z, r24
     1e6:	fe 01       	movw	r30, r28
     1e8:	e1 5b       	subi	r30, 0xB1	; 177
     1ea:	ff 4f       	sbci	r31, 0xFF	; 255
     1ec:	80 83       	st	Z, r24
     1ee:	fe 01       	movw	r30, r28
     1f0:	e0 5b       	subi	r30, 0xB0	; 176
     1f2:	ff 4f       	sbci	r31, 0xFF	; 255
     1f4:	80 83       	st	Z, r24
     1f6:	fe 01       	movw	r30, r28
     1f8:	ef 5a       	subi	r30, 0xAF	; 175
     1fa:	ff 4f       	sbci	r31, 0xFF	; 255
     1fc:	80 83       	st	Z, r24
     1fe:	fe 01       	movw	r30, r28
     200:	ee 5a       	subi	r30, 0xAE	; 174
     202:	ff 4f       	sbci	r31, 0xFF	; 255
     204:	80 83       	st	Z, r24
     206:	fe 01       	movw	r30, r28
     208:	ed 5a       	subi	r30, 0xAD	; 173
     20a:	ff 4f       	sbci	r31, 0xFF	; 255
     20c:	80 83       	st	Z, r24
     20e:	fe 01       	movw	r30, r28
     210:	ec 5a       	subi	r30, 0xAC	; 172
     212:	ff 4f       	sbci	r31, 0xFF	; 255
     214:	80 83       	st	Z, r24
     216:	fe 01       	movw	r30, r28
     218:	eb 5a       	subi	r30, 0xAB	; 171
     21a:	ff 4f       	sbci	r31, 0xFF	; 255
     21c:	80 83       	st	Z, r24
     21e:	fe 01       	movw	r30, r28
     220:	ea 5a       	subi	r30, 0xAA	; 170
     222:	ff 4f       	sbci	r31, 0xFF	; 255
     224:	80 83       	st	Z, r24
     226:	fe 01       	movw	r30, r28
     228:	e9 5a       	subi	r30, 0xA9	; 169
     22a:	ff 4f       	sbci	r31, 0xFF	; 255
     22c:	80 83       	st	Z, r24
     22e:	fe 01       	movw	r30, r28
     230:	e8 5a       	subi	r30, 0xA8	; 168
     232:	ff 4f       	sbci	r31, 0xFF	; 255
     234:	80 83       	st	Z, r24
     236:	fe 01       	movw	r30, r28
     238:	e7 5a       	subi	r30, 0xA7	; 167
     23a:	ff 4f       	sbci	r31, 0xFF	; 255
     23c:	80 83       	st	Z, r24
     23e:	fe 01       	movw	r30, r28
     240:	e6 5a       	subi	r30, 0xA6	; 166
     242:	ff 4f       	sbci	r31, 0xFF	; 255
     244:	80 83       	st	Z, r24
     246:	fe 01       	movw	r30, r28
     248:	e5 5a       	subi	r30, 0xA5	; 165
     24a:	ff 4f       	sbci	r31, 0xFF	; 255
     24c:	80 83       	st	Z, r24
     24e:	fe 01       	movw	r30, r28
     250:	e4 5a       	subi	r30, 0xA4	; 164
     252:	ff 4f       	sbci	r31, 0xFF	; 255
     254:	80 83       	st	Z, r24
     256:	fe 01       	movw	r30, r28
     258:	e2 5a       	subi	r30, 0xA2	; 162
     25a:	ff 4f       	sbci	r31, 0xFF	; 255
     25c:	80 83       	st	Z, r24
     25e:	fe 01       	movw	r30, r28
     260:	e1 5a       	subi	r30, 0xA1	; 161
     262:	ff 4f       	sbci	r31, 0xFF	; 255
     264:	80 83       	st	Z, r24
     266:	fe 01       	movw	r30, r28
     268:	e0 5a       	subi	r30, 0xA0	; 160
     26a:	ff 4f       	sbci	r31, 0xFF	; 255
     26c:	80 83       	st	Z, r24
     26e:	fe 01       	movw	r30, r28
     270:	ee 59       	subi	r30, 0x9E	; 158
     272:	ff 4f       	sbci	r31, 0xFF	; 255
     274:	80 83       	st	Z, r24
     276:	fe 01       	movw	r30, r28
     278:	ec 59       	subi	r30, 0x9C	; 156
     27a:	ff 4f       	sbci	r31, 0xFF	; 255
     27c:	80 83       	st	Z, r24
     27e:	fe 01       	movw	r30, r28
     280:	ea 59       	subi	r30, 0x9A	; 154
     282:	ff 4f       	sbci	r31, 0xFF	; 255
     284:	80 83       	st	Z, r24
     286:	fe 01       	movw	r30, r28
     288:	e9 59       	subi	r30, 0x99	; 153
     28a:	ff 4f       	sbci	r31, 0xFF	; 255
     28c:	80 83       	st	Z, r24
     28e:	fe 01       	movw	r30, r28
     290:	e8 59       	subi	r30, 0x98	; 152
     292:	ff 4f       	sbci	r31, 0xFF	; 255
     294:	80 83       	st	Z, r24
     296:	fe 01       	movw	r30, r28
     298:	e5 59       	subi	r30, 0x95	; 149
     29a:	ff 4f       	sbci	r31, 0xFF	; 255
     29c:	80 83       	st	Z, r24
     29e:	fe 01       	movw	r30, r28
     2a0:	e4 59       	subi	r30, 0x94	; 148
     2a2:	ff 4f       	sbci	r31, 0xFF	; 255
     2a4:	80 83       	st	Z, r24
     2a6:	fe 01       	movw	r30, r28
     2a8:	e3 59       	subi	r30, 0x93	; 147
     2aa:	ff 4f       	sbci	r31, 0xFF	; 255
     2ac:	80 83       	st	Z, r24
     2ae:	fe 01       	movw	r30, r28
     2b0:	e1 59       	subi	r30, 0x91	; 145
     2b2:	ff 4f       	sbci	r31, 0xFF	; 255
     2b4:	80 83       	st	Z, r24
     2b6:	fe 01       	movw	r30, r28
     2b8:	ef 58       	subi	r30, 0x8F	; 143
     2ba:	ff 4f       	sbci	r31, 0xFF	; 255
     2bc:	80 83       	st	Z, r24
     2be:	fe 01       	movw	r30, r28
     2c0:	ed 58       	subi	r30, 0x8D	; 141
     2c2:	ff 4f       	sbci	r31, 0xFF	; 255
     2c4:	80 83       	st	Z, r24
     2c6:	fe 01       	movw	r30, r28
     2c8:	ec 58       	subi	r30, 0x8C	; 140
     2ca:	ff 4f       	sbci	r31, 0xFF	; 255
     2cc:	80 83       	st	Z, r24
     2ce:	fe 01       	movw	r30, r28
     2d0:	eb 58       	subi	r30, 0x8B	; 139
     2d2:	ff 4f       	sbci	r31, 0xFF	; 255
     2d4:	80 83       	st	Z, r24
     2d6:	fe 01       	movw	r30, r28
     2d8:	e9 58       	subi	r30, 0x89	; 137
     2da:	ff 4f       	sbci	r31, 0xFF	; 255
     2dc:	80 83       	st	Z, r24
     2de:	fe 01       	movw	r30, r28
     2e0:	e8 58       	subi	r30, 0x88	; 136
     2e2:	ff 4f       	sbci	r31, 0xFF	; 255
     2e4:	80 83       	st	Z, r24
     2e6:	fe 01       	movw	r30, r28
     2e8:	e7 58       	subi	r30, 0x87	; 135
     2ea:	ff 4f       	sbci	r31, 0xFF	; 255
     2ec:	80 83       	st	Z, r24
     2ee:	fe 01       	movw	r30, r28
     2f0:	e6 58       	subi	r30, 0x86	; 134
     2f2:	ff 4f       	sbci	r31, 0xFF	; 255
     2f4:	80 83       	st	Z, r24
     2f6:	fe 01       	movw	r30, r28
     2f8:	e5 58       	subi	r30, 0x85	; 133
     2fa:	ff 4f       	sbci	r31, 0xFF	; 255
     2fc:	80 83       	st	Z, r24
     2fe:	fe 01       	movw	r30, r28
     300:	e4 58       	subi	r30, 0x84	; 132
     302:	ff 4f       	sbci	r31, 0xFF	; 255
     304:	80 83       	st	Z, r24
     306:	fe 01       	movw	r30, r28
     308:	e3 58       	subi	r30, 0x83	; 131
     30a:	ff 4f       	sbci	r31, 0xFF	; 255
     30c:	80 83       	st	Z, r24
     30e:	fe 01       	movw	r30, r28
     310:	e2 58       	subi	r30, 0x82	; 130
     312:	ff 4f       	sbci	r31, 0xFF	; 255
     314:	80 83       	st	Z, r24
     316:	fe 01       	movw	r30, r28
     318:	e1 58       	subi	r30, 0x81	; 129
     31a:	ff 4f       	sbci	r31, 0xFF	; 255
     31c:	80 83       	st	Z, r24
     31e:	fe 01       	movw	r30, r28
     320:	e0 58       	subi	r30, 0x80	; 128
     322:	ff 4f       	sbci	r31, 0xFF	; 255
     324:	80 83       	st	Z, r24
     326:	fe 01       	movw	r30, r28
     328:	ef 57       	subi	r30, 0x7F	; 127
     32a:	ff 4f       	sbci	r31, 0xFF	; 255
     32c:	80 83       	st	Z, r24
     32e:	fe 01       	movw	r30, r28
     330:	ee 57       	subi	r30, 0x7E	; 126
     332:	ff 4f       	sbci	r31, 0xFF	; 255
     334:	80 83       	st	Z, r24
     336:	fe 01       	movw	r30, r28
     338:	ed 57       	subi	r30, 0x7D	; 125
     33a:	ff 4f       	sbci	r31, 0xFF	; 255
     33c:	80 83       	st	Z, r24
     33e:	fe 01       	movw	r30, r28
     340:	ec 57       	subi	r30, 0x7C	; 124
     342:	ff 4f       	sbci	r31, 0xFF	; 255
     344:	80 83       	st	Z, r24
     346:	fe 01       	movw	r30, r28
     348:	eb 57       	subi	r30, 0x7B	; 123
     34a:	ff 4f       	sbci	r31, 0xFF	; 255
     34c:	80 83       	st	Z, r24
     34e:	fe 01       	movw	r30, r28
     350:	ea 57       	subi	r30, 0x7A	; 122
     352:	ff 4f       	sbci	r31, 0xFF	; 255
     354:	80 83       	st	Z, r24
     356:	fe 01       	movw	r30, r28
     358:	e9 57       	subi	r30, 0x79	; 121
     35a:	ff 4f       	sbci	r31, 0xFF	; 255
     35c:	80 83       	st	Z, r24
     35e:	fe 01       	movw	r30, r28
     360:	e7 57       	subi	r30, 0x77	; 119
     362:	ff 4f       	sbci	r31, 0xFF	; 255
     364:	80 83       	st	Z, r24
     366:	fe 01       	movw	r30, r28
     368:	e6 57       	subi	r30, 0x76	; 118
     36a:	ff 4f       	sbci	r31, 0xFF	; 255
     36c:	80 83       	st	Z, r24
     36e:	fe 01       	movw	r30, r28
     370:	e5 57       	subi	r30, 0x75	; 117
     372:	ff 4f       	sbci	r31, 0xFF	; 255
     374:	80 83       	st	Z, r24
     376:	fe 01       	movw	r30, r28
     378:	e4 57       	subi	r30, 0x74	; 116
     37a:	ff 4f       	sbci	r31, 0xFF	; 255
     37c:	80 83       	st	Z, r24
     37e:	fe 01       	movw	r30, r28
     380:	e2 57       	subi	r30, 0x72	; 114
     382:	ff 4f       	sbci	r31, 0xFF	; 255
     384:	80 83       	st	Z, r24
     386:	fe 01       	movw	r30, r28
     388:	e1 57       	subi	r30, 0x71	; 113
     38a:	ff 4f       	sbci	r31, 0xFF	; 255
     38c:	80 83       	st	Z, r24
     38e:	fe 01       	movw	r30, r28
     390:	e0 57       	subi	r30, 0x70	; 112
     392:	ff 4f       	sbci	r31, 0xFF	; 255
     394:	80 83       	st	Z, r24
     396:	fe 01       	movw	r30, r28
     398:	ef 56       	subi	r30, 0x6F	; 111
     39a:	ff 4f       	sbci	r31, 0xFF	; 255
     39c:	80 83       	st	Z, r24
     39e:	fe 01       	movw	r30, r28
     3a0:	ed 56       	subi	r30, 0x6D	; 109
     3a2:	ff 4f       	sbci	r31, 0xFF	; 255
     3a4:	80 83       	st	Z, r24
     3a6:	fe 01       	movw	r30, r28
     3a8:	ec 56       	subi	r30, 0x6C	; 108
     3aa:	ff 4f       	sbci	r31, 0xFF	; 255
     3ac:	80 83       	st	Z, r24
     3ae:	fe 01       	movw	r30, r28
     3b0:	eb 56       	subi	r30, 0x6B	; 107
     3b2:	ff 4f       	sbci	r31, 0xFF	; 255
     3b4:	80 83       	st	Z, r24
     3b6:	fe 01       	movw	r30, r28
     3b8:	ea 56       	subi	r30, 0x6A	; 106
     3ba:	ff 4f       	sbci	r31, 0xFF	; 255
     3bc:	80 83       	st	Z, r24
     3be:	fe 01       	movw	r30, r28
     3c0:	e8 56       	subi	r30, 0x68	; 104
     3c2:	ff 4f       	sbci	r31, 0xFF	; 255
     3c4:	80 83       	st	Z, r24
     3c6:	fe 01       	movw	r30, r28
     3c8:	e7 56       	subi	r30, 0x67	; 103
     3ca:	ff 4f       	sbci	r31, 0xFF	; 255
     3cc:	80 83       	st	Z, r24
     3ce:	fe 01       	movw	r30, r28
     3d0:	e6 56       	subi	r30, 0x66	; 102
     3d2:	ff 4f       	sbci	r31, 0xFF	; 255
     3d4:	80 83       	st	Z, r24
     3d6:	fe 01       	movw	r30, r28
     3d8:	e5 56       	subi	r30, 0x65	; 101
     3da:	ff 4f       	sbci	r31, 0xFF	; 255
     3dc:	80 83       	st	Z, r24
     3de:	fe 01       	movw	r30, r28
     3e0:	e3 56       	subi	r30, 0x63	; 99
     3e2:	ff 4f       	sbci	r31, 0xFF	; 255
     3e4:	80 83       	st	Z, r24
     3e6:	fe 01       	movw	r30, r28
     3e8:	e2 56       	subi	r30, 0x62	; 98
     3ea:	ff 4f       	sbci	r31, 0xFF	; 255
     3ec:	80 83       	st	Z, r24
     3ee:	fe 01       	movw	r30, r28
     3f0:	e1 56       	subi	r30, 0x61	; 97
     3f2:	ff 4f       	sbci	r31, 0xFF	; 255
     3f4:	80 83       	st	Z, r24
     3f6:	fe 01       	movw	r30, r28
     3f8:	e0 56       	subi	r30, 0x60	; 96
     3fa:	ff 4f       	sbci	r31, 0xFF	; 255
     3fc:	80 83       	st	Z, r24
     3fe:	fe 01       	movw	r30, r28
     400:	ea 55       	subi	r30, 0x5A	; 90
     402:	ff 4f       	sbci	r31, 0xFF	; 255
     404:	80 83       	st	Z, r24
     406:	fe 01       	movw	r30, r28
     408:	e9 55       	subi	r30, 0x59	; 89
     40a:	ff 4f       	sbci	r31, 0xFF	; 255
     40c:	80 83       	st	Z, r24
     40e:	fe 01       	movw	r30, r28
     410:	e8 55       	subi	r30, 0x58	; 88
     412:	ff 4f       	sbci	r31, 0xFF	; 255
     414:	80 83       	st	Z, r24
     416:	fe 01       	movw	r30, r28
     418:	e7 55       	subi	r30, 0x57	; 87
     41a:	ff 4f       	sbci	r31, 0xFF	; 255
     41c:	80 83       	st	Z, r24
     41e:	fe 01       	movw	r30, r28
     420:	e6 55       	subi	r30, 0x56	; 86
     422:	ff 4f       	sbci	r31, 0xFF	; 255
     424:	80 83       	st	Z, r24
     426:	fe 01       	movw	r30, r28
     428:	e5 55       	subi	r30, 0x55	; 85
     42a:	ff 4f       	sbci	r31, 0xFF	; 255
     42c:	80 83       	st	Z, r24
     42e:	fe 01       	movw	r30, r28
     430:	e4 55       	subi	r30, 0x54	; 84
     432:	ff 4f       	sbci	r31, 0xFF	; 255
     434:	80 83       	st	Z, r24
     436:	fe 01       	movw	r30, r28
     438:	e3 55       	subi	r30, 0x53	; 83
     43a:	ff 4f       	sbci	r31, 0xFF	; 255
     43c:	80 83       	st	Z, r24
     43e:	fe 01       	movw	r30, r28
     440:	e2 55       	subi	r30, 0x52	; 82
     442:	ff 4f       	sbci	r31, 0xFF	; 255
     444:	80 83       	st	Z, r24
     446:	fe 01       	movw	r30, r28
     448:	e1 55       	subi	r30, 0x51	; 81
     44a:	ff 4f       	sbci	r31, 0xFF	; 255
     44c:	80 83       	st	Z, r24
     44e:	fe 01       	movw	r30, r28
     450:	e0 55       	subi	r30, 0x50	; 80
     452:	ff 4f       	sbci	r31, 0xFF	; 255
     454:	80 83       	st	Z, r24
     456:	fe 01       	movw	r30, r28
     458:	ef 54       	subi	r30, 0x4F	; 79
     45a:	ff 4f       	sbci	r31, 0xFF	; 255
     45c:	80 83       	st	Z, r24
     45e:	fe 01       	movw	r30, r28
     460:	ee 54       	subi	r30, 0x4E	; 78
     462:	ff 4f       	sbci	r31, 0xFF	; 255
     464:	80 83       	st	Z, r24
     466:	fe 01       	movw	r30, r28
     468:	ed 54       	subi	r30, 0x4D	; 77
     46a:	ff 4f       	sbci	r31, 0xFF	; 255
     46c:	80 83       	st	Z, r24
     46e:	fe 01       	movw	r30, r28
     470:	ec 54       	subi	r30, 0x4C	; 76
     472:	ff 4f       	sbci	r31, 0xFF	; 255
     474:	80 83       	st	Z, r24
     476:	fe 01       	movw	r30, r28
     478:	eb 54       	subi	r30, 0x4B	; 75
     47a:	ff 4f       	sbci	r31, 0xFF	; 255
     47c:	80 83       	st	Z, r24
     47e:	fe 01       	movw	r30, r28
     480:	ea 54       	subi	r30, 0x4A	; 74
     482:	ff 4f       	sbci	r31, 0xFF	; 255
     484:	80 83       	st	Z, r24
     486:	fe 01       	movw	r30, r28
     488:	e8 54       	subi	r30, 0x48	; 72
     48a:	ff 4f       	sbci	r31, 0xFF	; 255
     48c:	80 83       	st	Z, r24
     48e:	fe 01       	movw	r30, r28
     490:	e7 54       	subi	r30, 0x47	; 71
     492:	ff 4f       	sbci	r31, 0xFF	; 255
     494:	80 83       	st	Z, r24
     496:	fe 01       	movw	r30, r28
     498:	e6 54       	subi	r30, 0x46	; 70
     49a:	ff 4f       	sbci	r31, 0xFF	; 255
     49c:	80 83       	st	Z, r24
     49e:	fe 01       	movw	r30, r28
     4a0:	e5 54       	subi	r30, 0x45	; 69
     4a2:	ff 4f       	sbci	r31, 0xFF	; 255
     4a4:	80 83       	st	Z, r24
     4a6:	fe 01       	movw	r30, r28
     4a8:	e3 54       	subi	r30, 0x43	; 67
     4aa:	ff 4f       	sbci	r31, 0xFF	; 255
     4ac:	80 83       	st	Z, r24
     4ae:	fe 01       	movw	r30, r28
     4b0:	e2 54       	subi	r30, 0x42	; 66
     4b2:	ff 4f       	sbci	r31, 0xFF	; 255
     4b4:	80 83       	st	Z, r24
     4b6:	fe 01       	movw	r30, r28
     4b8:	e1 54       	subi	r30, 0x41	; 65
     4ba:	ff 4f       	sbci	r31, 0xFF	; 255
     4bc:	80 83       	st	Z, r24
     4be:	fe 01       	movw	r30, r28
     4c0:	e0 54       	subi	r30, 0x40	; 64
     4c2:	ff 4f       	sbci	r31, 0xFF	; 255
     4c4:	80 83       	st	Z, r24
     4c6:	fe 01       	movw	r30, r28
     4c8:	ee 53       	subi	r30, 0x3E	; 62
     4ca:	ff 4f       	sbci	r31, 0xFF	; 255
     4cc:	80 83       	st	Z, r24
     4ce:	fe 01       	movw	r30, r28
     4d0:	ed 53       	subi	r30, 0x3D	; 61
     4d2:	ff 4f       	sbci	r31, 0xFF	; 255
     4d4:	80 83       	st	Z, r24
     4d6:	fe 01       	movw	r30, r28
     4d8:	ec 53       	subi	r30, 0x3C	; 60
     4da:	ff 4f       	sbci	r31, 0xFF	; 255
     4dc:	80 83       	st	Z, r24
     4de:	fe 01       	movw	r30, r28
     4e0:	eb 53       	subi	r30, 0x3B	; 59
     4e2:	ff 4f       	sbci	r31, 0xFF	; 255
     4e4:	80 83       	st	Z, r24
     4e6:	fe 01       	movw	r30, r28
     4e8:	e9 53       	subi	r30, 0x39	; 57
     4ea:	ff 4f       	sbci	r31, 0xFF	; 255
     4ec:	80 83       	st	Z, r24
     4ee:	fe 01       	movw	r30, r28
     4f0:	e8 53       	subi	r30, 0x38	; 56
     4f2:	ff 4f       	sbci	r31, 0xFF	; 255
     4f4:	80 83       	st	Z, r24
     4f6:	fe 01       	movw	r30, r28
     4f8:	e7 53       	subi	r30, 0x37	; 55
     4fa:	ff 4f       	sbci	r31, 0xFF	; 255
     4fc:	80 83       	st	Z, r24
     4fe:	fe 01       	movw	r30, r28
     500:	e6 53       	subi	r30, 0x36	; 54
     502:	ff 4f       	sbci	r31, 0xFF	; 255
     504:	80 83       	st	Z, r24
     506:	fe 01       	movw	r30, r28
     508:	e4 53       	subi	r30, 0x34	; 52
     50a:	ff 4f       	sbci	r31, 0xFF	; 255
     50c:	80 83       	st	Z, r24
     50e:	fe 01       	movw	r30, r28
     510:	e3 53       	subi	r30, 0x33	; 51
     512:	ff 4f       	sbci	r31, 0xFF	; 255
     514:	80 83       	st	Z, r24
     516:	fe 01       	movw	r30, r28
     518:	e2 53       	subi	r30, 0x32	; 50
     51a:	ff 4f       	sbci	r31, 0xFF	; 255
     51c:	80 83       	st	Z, r24
     51e:	fe 01       	movw	r30, r28
     520:	e1 53       	subi	r30, 0x31	; 49
     522:	ff 4f       	sbci	r31, 0xFF	; 255
     524:	80 83       	st	Z, r24
     526:	fe 01       	movw	r30, r28
     528:	ef 52       	subi	r30, 0x2F	; 47
     52a:	ff 4f       	sbci	r31, 0xFF	; 255
     52c:	80 83       	st	Z, r24
     52e:	fe 01       	movw	r30, r28
     530:	ee 52       	subi	r30, 0x2E	; 46
     532:	ff 4f       	sbci	r31, 0xFF	; 255
     534:	80 83       	st	Z, r24
     536:	fe 01       	movw	r30, r28
     538:	ed 52       	subi	r30, 0x2D	; 45
     53a:	ff 4f       	sbci	r31, 0xFF	; 255
     53c:	80 83       	st	Z, r24
     53e:	fe 01       	movw	r30, r28
     540:	ec 52       	subi	r30, 0x2C	; 44
     542:	ff 4f       	sbci	r31, 0xFF	; 255
     544:	80 83       	st	Z, r24
     546:	fe 01       	movw	r30, r28
     548:	eb 52       	subi	r30, 0x2B	; 43
     54a:	ff 4f       	sbci	r31, 0xFF	; 255
     54c:	80 83       	st	Z, r24
     54e:	fe 01       	movw	r30, r28
     550:	ea 52       	subi	r30, 0x2A	; 42
     552:	ff 4f       	sbci	r31, 0xFF	; 255
     554:	80 83       	st	Z, r24
     556:	fe 01       	movw	r30, r28
     558:	e9 52       	subi	r30, 0x29	; 41
     55a:	ff 4f       	sbci	r31, 0xFF	; 255
     55c:	80 83       	st	Z, r24
     55e:	fe 01       	movw	r30, r28
     560:	e8 52       	subi	r30, 0x28	; 40
     562:	ff 4f       	sbci	r31, 0xFF	; 255
     564:	80 83       	st	Z, r24
     566:	fe 01       	movw	r30, r28
     568:	e7 52       	subi	r30, 0x27	; 39
     56a:	ff 4f       	sbci	r31, 0xFF	; 255
     56c:	80 83       	st	Z, r24
     56e:	fe 01       	movw	r30, r28
     570:	e6 52       	subi	r30, 0x26	; 38
     572:	ff 4f       	sbci	r31, 0xFF	; 255
     574:	80 83       	st	Z, r24
     576:	fe 01       	movw	r30, r28
     578:	e5 52       	subi	r30, 0x25	; 37
     57a:	ff 4f       	sbci	r31, 0xFF	; 255
     57c:	80 83       	st	Z, r24
     57e:	fe 01       	movw	r30, r28
     580:	e4 52       	subi	r30, 0x24	; 36
     582:	ff 4f       	sbci	r31, 0xFF	; 255
     584:	80 83       	st	Z, r24
     586:	fe 01       	movw	r30, r28
     588:	e3 52       	subi	r30, 0x23	; 35
     58a:	ff 4f       	sbci	r31, 0xFF	; 255
     58c:	80 83       	st	Z, r24
     58e:	fe 01       	movw	r30, r28
     590:	e2 52       	subi	r30, 0x22	; 34
     592:	ff 4f       	sbci	r31, 0xFF	; 255
     594:	80 83       	st	Z, r24
     596:	fe 01       	movw	r30, r28
     598:	e1 52       	subi	r30, 0x21	; 33
     59a:	ff 4f       	sbci	r31, 0xFF	; 255
     59c:	80 83       	st	Z, r24
     59e:	fe 01       	movw	r30, r28
     5a0:	e0 52       	subi	r30, 0x20	; 32
     5a2:	ff 4f       	sbci	r31, 0xFF	; 255
     5a4:	80 83       	st	Z, r24
     5a6:	fe 01       	movw	r30, r28
     5a8:	ef 51       	subi	r30, 0x1F	; 31
     5aa:	ff 4f       	sbci	r31, 0xFF	; 255
     5ac:	80 83       	st	Z, r24
     5ae:	fe 01       	movw	r30, r28
     5b0:	e9 51       	subi	r30, 0x19	; 25
     5b2:	ff 4f       	sbci	r31, 0xFF	; 255
     5b4:	80 83       	st	Z, r24
     5b6:	fe 01       	movw	r30, r28
     5b8:	e8 51       	subi	r30, 0x18	; 24
     5ba:	ff 4f       	sbci	r31, 0xFF	; 255
     5bc:	80 83       	st	Z, r24
     5be:	fe 01       	movw	r30, r28
     5c0:	e6 51       	subi	r30, 0x16	; 22
     5c2:	ff 4f       	sbci	r31, 0xFF	; 255
     5c4:	80 83       	st	Z, r24
     5c6:	fe 01       	movw	r30, r28
     5c8:	e5 51       	subi	r30, 0x15	; 21
     5ca:	ff 4f       	sbci	r31, 0xFF	; 255
     5cc:	80 83       	st	Z, r24
     5ce:	fe 01       	movw	r30, r28
     5d0:	e4 51       	subi	r30, 0x14	; 20
     5d2:	ff 4f       	sbci	r31, 0xFF	; 255
     5d4:	80 83       	st	Z, r24
     5d6:	fe 01       	movw	r30, r28
     5d8:	e3 51       	subi	r30, 0x13	; 19
     5da:	ff 4f       	sbci	r31, 0xFF	; 255
     5dc:	80 83       	st	Z, r24
     5de:	fe 01       	movw	r30, r28
     5e0:	e1 51       	subi	r30, 0x11	; 17
     5e2:	ff 4f       	sbci	r31, 0xFF	; 255
     5e4:	80 83       	st	Z, r24
     5e6:	fe 01       	movw	r30, r28
     5e8:	e0 51       	subi	r30, 0x10	; 16
     5ea:	ff 4f       	sbci	r31, 0xFF	; 255
     5ec:	80 83       	st	Z, r24
     5ee:	fe 01       	movw	r30, r28
     5f0:	ef 50       	subi	r30, 0x0F	; 15
     5f2:	ff 4f       	sbci	r31, 0xFF	; 255
     5f4:	80 83       	st	Z, r24
     5f6:	fe 01       	movw	r30, r28
     5f8:	ee 50       	subi	r30, 0x0E	; 14
     5fa:	ff 4f       	sbci	r31, 0xFF	; 255
     5fc:	80 83       	st	Z, r24
     5fe:	fe 01       	movw	r30, r28
     600:	ec 50       	subi	r30, 0x0C	; 12
     602:	ff 4f       	sbci	r31, 0xFF	; 255
     604:	80 83       	st	Z, r24
     606:	fe 01       	movw	r30, r28
     608:	eb 50       	subi	r30, 0x0B	; 11
     60a:	ff 4f       	sbci	r31, 0xFF	; 255
     60c:	80 83       	st	Z, r24
     60e:	fe 01       	movw	r30, r28
     610:	ea 50       	subi	r30, 0x0A	; 10
     612:	ff 4f       	sbci	r31, 0xFF	; 255
     614:	80 83       	st	Z, r24
     616:	fe 01       	movw	r30, r28
     618:	e9 50       	subi	r30, 0x09	; 9
     61a:	ff 4f       	sbci	r31, 0xFF	; 255
     61c:	80 83       	st	Z, r24
     61e:	fe 01       	movw	r30, r28
     620:	e7 50       	subi	r30, 0x07	; 7
     622:	ff 4f       	sbci	r31, 0xFF	; 255
     624:	80 83       	st	Z, r24
     626:	fe 01       	movw	r30, r28
     628:	e6 50       	subi	r30, 0x06	; 6
     62a:	ff 4f       	sbci	r31, 0xFF	; 255
     62c:	80 83       	st	Z, r24
     62e:	fe 01       	movw	r30, r28
     630:	e5 50       	subi	r30, 0x05	; 5
     632:	ff 4f       	sbci	r31, 0xFF	; 255
     634:	80 83       	st	Z, r24
     636:	fe 01       	movw	r30, r28
     638:	e4 50       	subi	r30, 0x04	; 4
     63a:	ff 4f       	sbci	r31, 0xFF	; 255
     63c:	80 83       	st	Z, r24
     63e:	fe 01       	movw	r30, r28
     640:	e2 50       	subi	r30, 0x02	; 2
     642:	ff 4f       	sbci	r31, 0xFF	; 255
     644:	80 83       	st	Z, r24
     646:	fe 01       	movw	r30, r28
     648:	e1 50       	subi	r30, 0x01	; 1
     64a:	ff 4f       	sbci	r31, 0xFF	; 255
     64c:	80 83       	st	Z, r24
     64e:	fe 01       	movw	r30, r28
     650:	e0 50       	subi	r30, 0x00	; 0
     652:	ff 4f       	sbci	r31, 0xFF	; 255
     654:	80 83       	st	Z, r24
     656:	fe 01       	movw	r30, r28
     658:	ef 5f       	subi	r30, 0xFF	; 255
     65a:	fe 4f       	sbci	r31, 0xFE	; 254
     65c:	80 83       	st	Z, r24
     65e:	fe 01       	movw	r30, r28
     660:	ee 5f       	subi	r30, 0xFE	; 254
     662:	fe 4f       	sbci	r31, 0xFE	; 254
     664:	80 83       	st	Z, r24
     666:	fe 01       	movw	r30, r28
     668:	ed 5f       	subi	r30, 0xFD	; 253
     66a:	fe 4f       	sbci	r31, 0xFE	; 254
     66c:	80 83       	st	Z, r24
     66e:	fe 01       	movw	r30, r28
     670:	ec 5f       	subi	r30, 0xFC	; 252
     672:	fe 4f       	sbci	r31, 0xFE	; 254
     674:	80 83       	st	Z, r24
     676:	fe 01       	movw	r30, r28
     678:	eb 5f       	subi	r30, 0xFB	; 251
     67a:	fe 4f       	sbci	r31, 0xFE	; 254
     67c:	80 83       	st	Z, r24
     67e:	fe 01       	movw	r30, r28
     680:	ea 5f       	subi	r30, 0xFA	; 250
     682:	fe 4f       	sbci	r31, 0xFE	; 254
     684:	80 83       	st	Z, r24
     686:	fe 01       	movw	r30, r28
     688:	e9 5f       	subi	r30, 0xF9	; 249
     68a:	fe 4f       	sbci	r31, 0xFE	; 254
     68c:	80 83       	st	Z, r24
     68e:	fe 01       	movw	r30, r28
     690:	e8 5f       	subi	r30, 0xF8	; 248
     692:	fe 4f       	sbci	r31, 0xFE	; 254
     694:	80 83       	st	Z, r24
     696:	fe 01       	movw	r30, r28
     698:	e7 5f       	subi	r30, 0xF7	; 247
     69a:	fe 4f       	sbci	r31, 0xFE	; 254
     69c:	80 83       	st	Z, r24
     69e:	fe 01       	movw	r30, r28
     6a0:	e6 5f       	subi	r30, 0xF6	; 246
     6a2:	fe 4f       	sbci	r31, 0xFE	; 254
     6a4:	80 83       	st	Z, r24
     6a6:	fe 01       	movw	r30, r28
     6a8:	e5 5f       	subi	r30, 0xF5	; 245
     6aa:	fe 4f       	sbci	r31, 0xFE	; 254
     6ac:	80 83       	st	Z, r24
     6ae:	fe 01       	movw	r30, r28
     6b0:	e4 5f       	subi	r30, 0xF4	; 244
     6b2:	fe 4f       	sbci	r31, 0xFE	; 254
     6b4:	80 83       	st	Z, r24
     6b6:	fe 01       	movw	r30, r28
     6b8:	e3 5f       	subi	r30, 0xF3	; 243
     6ba:	fe 4f       	sbci	r31, 0xFE	; 254
     6bc:	80 83       	st	Z, r24
     6be:	fe 01       	movw	r30, r28
     6c0:	e2 5f       	subi	r30, 0xF2	; 242
     6c2:	fe 4f       	sbci	r31, 0xFE	; 254
     6c4:	80 83       	st	Z, r24
     6c6:	fe 01       	movw	r30, r28
     6c8:	eb 5e       	subi	r30, 0xEB	; 235
     6ca:	fe 4f       	sbci	r31, 0xFE	; 254
     6cc:	80 83       	st	Z, r24
     6ce:	fe 01       	movw	r30, r28
     6d0:	ea 5e       	subi	r30, 0xEA	; 234
     6d2:	fe 4f       	sbci	r31, 0xFE	; 254
     6d4:	80 83       	st	Z, r24
     6d6:	fe 01       	movw	r30, r28
     6d8:	e9 5e       	subi	r30, 0xE9	; 233
     6da:	fe 4f       	sbci	r31, 0xFE	; 254
     6dc:	80 83       	st	Z, r24
     6de:	fe 01       	movw	r30, r28
     6e0:	e8 5e       	subi	r30, 0xE8	; 232
     6e2:	fe 4f       	sbci	r31, 0xFE	; 254
     6e4:	80 83       	st	Z, r24
     6e6:	fe 01       	movw	r30, r28
     6e8:	e6 5e       	subi	r30, 0xE6	; 230
     6ea:	fe 4f       	sbci	r31, 0xFE	; 254
     6ec:	80 83       	st	Z, r24
     6ee:	fe 01       	movw	r30, r28
     6f0:	e5 5e       	subi	r30, 0xE5	; 229
     6f2:	fe 4f       	sbci	r31, 0xFE	; 254
     6f4:	80 83       	st	Z, r24
     6f6:	fe 01       	movw	r30, r28
     6f8:	e4 5e       	subi	r30, 0xE4	; 228
     6fa:	fe 4f       	sbci	r31, 0xFE	; 254
     6fc:	80 83       	st	Z, r24
     6fe:	fe 01       	movw	r30, r28
     700:	e3 5e       	subi	r30, 0xE3	; 227
     702:	fe 4f       	sbci	r31, 0xFE	; 254
     704:	80 83       	st	Z, r24
     706:	fe 01       	movw	r30, r28
     708:	ec 5d       	subi	r30, 0xDC	; 220
     70a:	fe 4f       	sbci	r31, 0xFE	; 254
     70c:	80 83       	st	Z, r24
     70e:	fe 01       	movw	r30, r28
     710:	eb 5d       	subi	r30, 0xDB	; 219
     712:	fe 4f       	sbci	r31, 0xFE	; 254
     714:	80 83       	st	Z, r24
     716:	fe 01       	movw	r30, r28
     718:	ea 5d       	subi	r30, 0xDA	; 218
     71a:	fe 4f       	sbci	r31, 0xFE	; 254
     71c:	80 83       	st	Z, r24
     71e:	fe 01       	movw	r30, r28
     720:	e9 5d       	subi	r30, 0xD9	; 217
     722:	fe 4f       	sbci	r31, 0xFE	; 254
     724:	80 83       	st	Z, r24
     726:	fe 01       	movw	r30, r28
     728:	e3 5d       	subi	r30, 0xD3	; 211
     72a:	fe 4f       	sbci	r31, 0xFE	; 254
     72c:	80 83       	st	Z, r24
     72e:	fe 01       	movw	r30, r28
     730:	e2 5d       	subi	r30, 0xD2	; 210
     732:	fe 4f       	sbci	r31, 0xFE	; 254
     734:	80 83       	st	Z, r24
     736:	fe 01       	movw	r30, r28
     738:	e1 5d       	subi	r30, 0xD1	; 209
     73a:	fe 4f       	sbci	r31, 0xFE	; 254
     73c:	80 83       	st	Z, r24
     73e:	fe 01       	movw	r30, r28
     740:	e0 5d       	subi	r30, 0xD0	; 208
     742:	fe 4f       	sbci	r31, 0xFE	; 254
     744:	80 83       	st	Z, r24
     746:	fe 01       	movw	r30, r28
     748:	ef 5c       	subi	r30, 0xCF	; 207
     74a:	fe 4f       	sbci	r31, 0xFE	; 254
     74c:	80 83       	st	Z, r24
     74e:	fe 01       	movw	r30, r28
     750:	ee 5c       	subi	r30, 0xCE	; 206
     752:	fe 4f       	sbci	r31, 0xFE	; 254
     754:	80 83       	st	Z, r24
     756:	fe 01       	movw	r30, r28
     758:	ed 5c       	subi	r30, 0xCD	; 205
     75a:	fe 4f       	sbci	r31, 0xFE	; 254
     75c:	80 83       	st	Z, r24
     75e:	fe 01       	movw	r30, r28
     760:	ec 5c       	subi	r30, 0xCC	; 204
     762:	fe 4f       	sbci	r31, 0xFE	; 254
     764:	80 83       	st	Z, r24
     766:	fe 01       	movw	r30, r28
     768:	eb 5c       	subi	r30, 0xCB	; 203
     76a:	fe 4f       	sbci	r31, 0xFE	; 254
     76c:	80 83       	st	Z, r24
     76e:	fe 01       	movw	r30, r28
     770:	ea 5c       	subi	r30, 0xCA	; 202
     772:	fe 4f       	sbci	r31, 0xFE	; 254
     774:	80 83       	st	Z, r24
     776:	fe 01       	movw	r30, r28
     778:	e9 5c       	subi	r30, 0xC9	; 201
     77a:	fe 4f       	sbci	r31, 0xFE	; 254
     77c:	80 83       	st	Z, r24
     77e:	fe 01       	movw	r30, r28
     780:	e8 5c       	subi	r30, 0xC8	; 200
     782:	fe 4f       	sbci	r31, 0xFE	; 254
     784:	80 83       	st	Z, r24
     786:	fe 01       	movw	r30, r28
     788:	e7 5c       	subi	r30, 0xC7	; 199
     78a:	fe 4f       	sbci	r31, 0xFE	; 254
     78c:	80 83       	st	Z, r24
     78e:	fe 01       	movw	r30, r28
     790:	e6 5c       	subi	r30, 0xC6	; 198
     792:	fe 4f       	sbci	r31, 0xFE	; 254
     794:	80 83       	st	Z, r24
     796:	fe 01       	movw	r30, r28
     798:	e5 5c       	subi	r30, 0xC5	; 197
     79a:	fe 4f       	sbci	r31, 0xFE	; 254
     79c:	80 83       	st	Z, r24
     79e:	fe 01       	movw	r30, r28
     7a0:	e4 5c       	subi	r30, 0xC4	; 196
     7a2:	fe 4f       	sbci	r31, 0xFE	; 254
     7a4:	80 83       	st	Z, r24
     7a6:	fe 01       	movw	r30, r28
     7a8:	ee 5b       	subi	r30, 0xBE	; 190
     7aa:	fe 4f       	sbci	r31, 0xFE	; 254
     7ac:	80 83       	st	Z, r24
     7ae:	fe 01       	movw	r30, r28
     7b0:	ed 5b       	subi	r30, 0xBD	; 189
     7b2:	fe 4f       	sbci	r31, 0xFE	; 254
     7b4:	80 83       	st	Z, r24
     7b6:	fe 01       	movw	r30, r28
     7b8:	ec 5b       	subi	r30, 0xBC	; 188
     7ba:	fe 4f       	sbci	r31, 0xFE	; 254
     7bc:	80 83       	st	Z, r24
     7be:	fe 01       	movw	r30, r28
     7c0:	eb 5b       	subi	r30, 0xBB	; 187
     7c2:	fe 4f       	sbci	r31, 0xFE	; 254
     7c4:	80 83       	st	Z, r24
     7c6:	fe 01       	movw	r30, r28
     7c8:	e9 5b       	subi	r30, 0xB9	; 185
     7ca:	fe 4f       	sbci	r31, 0xFE	; 254
     7cc:	80 83       	st	Z, r24
     7ce:	fe 01       	movw	r30, r28
     7d0:	e8 5b       	subi	r30, 0xB8	; 184
     7d2:	fe 4f       	sbci	r31, 0xFE	; 254
     7d4:	80 83       	st	Z, r24
     7d6:	fe 01       	movw	r30, r28
     7d8:	e7 5b       	subi	r30, 0xB7	; 183
     7da:	fe 4f       	sbci	r31, 0xFE	; 254
     7dc:	80 83       	st	Z, r24
     7de:	fe 01       	movw	r30, r28
     7e0:	e6 5b       	subi	r30, 0xB6	; 182
     7e2:	fe 4f       	sbci	r31, 0xFE	; 254
     7e4:	80 83       	st	Z, r24
     7e6:	fe 01       	movw	r30, r28
     7e8:	e4 5b       	subi	r30, 0xB4	; 180
     7ea:	fe 4f       	sbci	r31, 0xFE	; 254
     7ec:	80 83       	st	Z, r24
     7ee:	fe 01       	movw	r30, r28
     7f0:	e3 5b       	subi	r30, 0xB3	; 179
     7f2:	fe 4f       	sbci	r31, 0xFE	; 254
     7f4:	80 83       	st	Z, r24
     7f6:	fe 01       	movw	r30, r28
     7f8:	e2 5b       	subi	r30, 0xB2	; 178
     7fa:	fe 4f       	sbci	r31, 0xFE	; 254
     7fc:	80 83       	st	Z, r24
     7fe:	fe 01       	movw	r30, r28
     800:	e1 5b       	subi	r30, 0xB1	; 177
     802:	fe 4f       	sbci	r31, 0xFE	; 254
     804:	80 83       	st	Z, r24
     806:	fe 01       	movw	r30, r28
     808:	ef 5a       	subi	r30, 0xAF	; 175
     80a:	fe 4f       	sbci	r31, 0xFE	; 254
     80c:	80 83       	st	Z, r24
     80e:	fe 01       	movw	r30, r28
     810:	ee 5a       	subi	r30, 0xAE	; 174
     812:	fe 4f       	sbci	r31, 0xFE	; 254
     814:	80 83       	st	Z, r24
     816:	fe 01       	movw	r30, r28
     818:	ed 5a       	subi	r30, 0xAD	; 173
     81a:	fe 4f       	sbci	r31, 0xFE	; 254
     81c:	80 83       	st	Z, r24
     81e:	fe 01       	movw	r30, r28
     820:	ec 5a       	subi	r30, 0xAC	; 172
     822:	fe 4f       	sbci	r31, 0xFE	; 254
     824:	80 83       	st	Z, r24
     826:	fe 01       	movw	r30, r28
     828:	eb 5a       	subi	r30, 0xAB	; 171
     82a:	fe 4f       	sbci	r31, 0xFE	; 254
     82c:	80 83       	st	Z, r24
     82e:	fe 01       	movw	r30, r28
     830:	e6 5a       	subi	r30, 0xA6	; 166
     832:	fe 4f       	sbci	r31, 0xFE	; 254
     834:	80 83       	st	Z, r24
     836:	fe 01       	movw	r30, r28
     838:	e5 5a       	subi	r30, 0xA5	; 165
     83a:	fe 4f       	sbci	r31, 0xFE	; 254
     83c:	80 83       	st	Z, r24
     83e:	fe 01       	movw	r30, r28
     840:	e4 5a       	subi	r30, 0xA4	; 164
     842:	fe 4f       	sbci	r31, 0xFE	; 254
     844:	80 83       	st	Z, r24
     846:	fe 01       	movw	r30, r28
     848:	e3 5a       	subi	r30, 0xA3	; 163
     84a:	fe 4f       	sbci	r31, 0xFE	; 254
     84c:	80 83       	st	Z, r24
     84e:	fe 01       	movw	r30, r28
     850:	e2 5a       	subi	r30, 0xA2	; 162
     852:	fe 4f       	sbci	r31, 0xFE	; 254
     854:	80 83       	st	Z, r24
     856:	fe 01       	movw	r30, r28
     858:	e1 5a       	subi	r30, 0xA1	; 161
     85a:	fe 4f       	sbci	r31, 0xFE	; 254
     85c:	80 83       	st	Z, r24
     85e:	fe 01       	movw	r30, r28
     860:	e0 5a       	subi	r30, 0xA0	; 160
     862:	fe 4f       	sbci	r31, 0xFE	; 254
     864:	80 83       	st	Z, r24
     866:	fe 01       	movw	r30, r28
     868:	ef 59       	subi	r30, 0x9F	; 159
     86a:	fe 4f       	sbci	r31, 0xFE	; 254
     86c:	80 83       	st	Z, r24
     86e:	fe 01       	movw	r30, r28
     870:	ee 59       	subi	r30, 0x9E	; 158
     872:	fe 4f       	sbci	r31, 0xFE	; 254
     874:	80 83       	st	Z, r24
     876:	fe 01       	movw	r30, r28
     878:	ed 59       	subi	r30, 0x9D	; 157
     87a:	fe 4f       	sbci	r31, 0xFE	; 254
     87c:	80 83       	st	Z, r24
     87e:	fe 01       	movw	r30, r28
     880:	ec 59       	subi	r30, 0x9C	; 156
     882:	fe 4f       	sbci	r31, 0xFE	; 254
     884:	80 83       	st	Z, r24
     886:	fe 01       	movw	r30, r28
     888:	eb 59       	subi	r30, 0x9B	; 155
     88a:	fe 4f       	sbci	r31, 0xFE	; 254
     88c:	80 83       	st	Z, r24
     88e:	fe 01       	movw	r30, r28
     890:	ea 59       	subi	r30, 0x9A	; 154
     892:	fe 4f       	sbci	r31, 0xFE	; 254
     894:	80 83       	st	Z, r24
     896:	fe 01       	movw	r30, r28
     898:	e9 59       	subi	r30, 0x99	; 153
     89a:	fe 4f       	sbci	r31, 0xFE	; 254
     89c:	80 83       	st	Z, r24
     89e:	fe 01       	movw	r30, r28
     8a0:	e8 59       	subi	r30, 0x98	; 152
     8a2:	fe 4f       	sbci	r31, 0xFE	; 254
     8a4:	80 83       	st	Z, r24
     8a6:	fe 01       	movw	r30, r28
     8a8:	e6 59       	subi	r30, 0x96	; 150
     8aa:	fe 4f       	sbci	r31, 0xFE	; 254
     8ac:	80 83       	st	Z, r24
     8ae:	fe 01       	movw	r30, r28
     8b0:	e5 59       	subi	r30, 0x95	; 149
     8b2:	fe 4f       	sbci	r31, 0xFE	; 254
     8b4:	80 83       	st	Z, r24
     8b6:	fe 01       	movw	r30, r28
     8b8:	e4 59       	subi	r30, 0x94	; 148
     8ba:	fe 4f       	sbci	r31, 0xFE	; 254
     8bc:	80 83       	st	Z, r24
     8be:	fe 01       	movw	r30, r28
     8c0:	e1 59       	subi	r30, 0x91	; 145
     8c2:	fe 4f       	sbci	r31, 0xFE	; 254
     8c4:	80 83       	st	Z, r24
     8c6:	fe 01       	movw	r30, r28
     8c8:	e0 59       	subi	r30, 0x90	; 144
     8ca:	fe 4f       	sbci	r31, 0xFE	; 254
     8cc:	80 83       	st	Z, r24
     8ce:	fe 01       	movw	r30, r28
     8d0:	ef 58       	subi	r30, 0x8F	; 143
     8d2:	fe 4f       	sbci	r31, 0xFE	; 254
     8d4:	80 83       	st	Z, r24
     8d6:	fe 01       	movw	r30, r28
     8d8:	e7 58       	subi	r30, 0x87	; 135
     8da:	fe 4f       	sbci	r31, 0xFE	; 254
     8dc:	80 83       	st	Z, r24
     8de:	fe 01       	movw	r30, r28
     8e0:	e6 58       	subi	r30, 0x86	; 134
     8e2:	fe 4f       	sbci	r31, 0xFE	; 254
     8e4:	80 83       	st	Z, r24
     8e6:	fe 01       	movw	r30, r28
     8e8:	e5 58       	subi	r30, 0x85	; 133
     8ea:	fe 4f       	sbci	r31, 0xFE	; 254
     8ec:	80 83       	st	Z, r24
     8ee:	fe 01       	movw	r30, r28
     8f0:	e2 58       	subi	r30, 0x82	; 130
     8f2:	fe 4f       	sbci	r31, 0xFE	; 254
     8f4:	80 83       	st	Z, r24
     8f6:	fe 01       	movw	r30, r28
     8f8:	e1 58       	subi	r30, 0x81	; 129
     8fa:	fe 4f       	sbci	r31, 0xFE	; 254
     8fc:	80 83       	st	Z, r24
     8fe:	fe 01       	movw	r30, r28
     900:	e0 58       	subi	r30, 0x80	; 128
     902:	fe 4f       	sbci	r31, 0xFE	; 254
     904:	80 83       	st	Z, r24
     906:	fe 01       	movw	r30, r28
     908:	ed 57       	subi	r30, 0x7D	; 125
     90a:	fe 4f       	sbci	r31, 0xFE	; 254
     90c:	80 83       	st	Z, r24
     90e:	fe 01       	movw	r30, r28
     910:	ec 57       	subi	r30, 0x7C	; 124
     912:	fe 4f       	sbci	r31, 0xFE	; 254
     914:	80 83       	st	Z, r24
     916:	fe 01       	movw	r30, r28
     918:	eb 57       	subi	r30, 0x7B	; 123
     91a:	fe 4f       	sbci	r31, 0xFE	; 254
     91c:	80 83       	st	Z, r24
     91e:	fe 01       	movw	r30, r28
     920:	e9 57       	subi	r30, 0x79	; 121
     922:	fe 4f       	sbci	r31, 0xFE	; 254
     924:	80 83       	st	Z, r24
     926:	fe 01       	movw	r30, r28
     928:	e8 57       	subi	r30, 0x78	; 120
     92a:	fe 4f       	sbci	r31, 0xFE	; 254
     92c:	80 83       	st	Z, r24
     92e:	fe 01       	movw	r30, r28
     930:	e7 57       	subi	r30, 0x77	; 119
     932:	fe 4f       	sbci	r31, 0xFE	; 254
     934:	80 83       	st	Z, r24
     936:	fe 01       	movw	r30, r28
     938:	e6 57       	subi	r30, 0x76	; 118
     93a:	fe 4f       	sbci	r31, 0xFE	; 254
     93c:	80 83       	st	Z, r24
     93e:	fe 01       	movw	r30, r28
     940:	e5 57       	subi	r30, 0x75	; 117
     942:	fe 4f       	sbci	r31, 0xFE	; 254
     944:	80 83       	st	Z, r24
     946:	fe 01       	movw	r30, r28
     948:	e4 57       	subi	r30, 0x74	; 116
     94a:	fe 4f       	sbci	r31, 0xFE	; 254
     94c:	80 83       	st	Z, r24
     94e:	fe 01       	movw	r30, r28
     950:	e3 57       	subi	r30, 0x73	; 115
     952:	fe 4f       	sbci	r31, 0xFE	; 254
     954:	80 83       	st	Z, r24
     956:	fe 01       	movw	r30, r28
     958:	e2 57       	subi	r30, 0x72	; 114
     95a:	fe 4f       	sbci	r31, 0xFE	; 254
     95c:	80 83       	st	Z, r24
     95e:	fe 01       	movw	r30, r28
     960:	e1 57       	subi	r30, 0x71	; 113
     962:	fe 4f       	sbci	r31, 0xFE	; 254
     964:	80 83       	st	Z, r24
     966:	fe 01       	movw	r30, r28
     968:	e0 57       	subi	r30, 0x70	; 112
     96a:	fe 4f       	sbci	r31, 0xFE	; 254
     96c:	80 83       	st	Z, r24
     96e:	fe 01       	movw	r30, r28
     970:	ef 56       	subi	r30, 0x6F	; 111
     972:	fe 4f       	sbci	r31, 0xFE	; 254
     974:	80 83       	st	Z, r24
     976:	fe 01       	movw	r30, r28
     978:	ee 56       	subi	r30, 0x6E	; 110
     97a:	fe 4f       	sbci	r31, 0xFE	; 254
     97c:	80 83       	st	Z, r24
     97e:	fe 01       	movw	r30, r28
     980:	ed 56       	subi	r30, 0x6D	; 109
     982:	fe 4f       	sbci	r31, 0xFE	; 254
     984:	80 83       	st	Z, r24
     986:	fe 01       	movw	r30, r28
     988:	ec 56       	subi	r30, 0x6C	; 108
     98a:	fe 4f       	sbci	r31, 0xFE	; 254
     98c:	80 83       	st	Z, r24
     98e:	fe 01       	movw	r30, r28
     990:	eb 56       	subi	r30, 0x6B	; 107
     992:	fe 4f       	sbci	r31, 0xFE	; 254
     994:	80 83       	st	Z, r24
     996:	fe 01       	movw	r30, r28
     998:	e8 56       	subi	r30, 0x68	; 104
     99a:	fe 4f       	sbci	r31, 0xFE	; 254
     99c:	80 83       	st	Z, r24
     99e:	fe 01       	movw	r30, r28
     9a0:	e7 56       	subi	r30, 0x67	; 103
     9a2:	fe 4f       	sbci	r31, 0xFE	; 254
     9a4:	80 83       	st	Z, r24
     9a6:	fe 01       	movw	r30, r28
     9a8:	e3 56       	subi	r30, 0x63	; 99
     9aa:	fe 4f       	sbci	r31, 0xFE	; 254
     9ac:	80 83       	st	Z, r24
     9ae:	fe 01       	movw	r30, r28
     9b0:	e2 56       	subi	r30, 0x62	; 98
     9b2:	fe 4f       	sbci	r31, 0xFE	; 254
     9b4:	80 83       	st	Z, r24
     9b6:	fe 01       	movw	r30, r28
     9b8:	ef 55       	subi	r30, 0x5F	; 95
     9ba:	fe 4f       	sbci	r31, 0xFE	; 254
     9bc:	80 83       	st	Z, r24
     9be:	fe 01       	movw	r30, r28
     9c0:	ed 55       	subi	r30, 0x5D	; 93
     9c2:	fe 4f       	sbci	r31, 0xFE	; 254
     9c4:	80 83       	st	Z, r24
     9c6:	fe 01       	movw	r30, r28
     9c8:	ea 55       	subi	r30, 0x5A	; 90
     9ca:	fe 4f       	sbci	r31, 0xFE	; 254
     9cc:	80 83       	st	Z, r24
     9ce:	fe 01       	movw	r30, r28
     9d0:	e8 55       	subi	r30, 0x58	; 88
     9d2:	fe 4f       	sbci	r31, 0xFE	; 254
     9d4:	80 83       	st	Z, r24
     9d6:	fe 01       	movw	r30, r28
     9d8:	e5 55       	subi	r30, 0x55	; 85
     9da:	fe 4f       	sbci	r31, 0xFE	; 254
     9dc:	80 83       	st	Z, r24
     9de:	fe 01       	movw	r30, r28
     9e0:	e4 55       	subi	r30, 0x54	; 84
     9e2:	fe 4f       	sbci	r31, 0xFE	; 254
     9e4:	80 83       	st	Z, r24
     9e6:	fe 01       	movw	r30, r28
     9e8:	e0 55       	subi	r30, 0x50	; 80
     9ea:	fe 4f       	sbci	r31, 0xFE	; 254
     9ec:	80 83       	st	Z, r24
     9ee:	fe 01       	movw	r30, r28
     9f0:	ef 54       	subi	r30, 0x4F	; 79
     9f2:	fe 4f       	sbci	r31, 0xFE	; 254
     9f4:	80 83       	st	Z, r24
     9f6:	fe 01       	movw	r30, r28
     9f8:	ec 54       	subi	r30, 0x4C	; 76
     9fa:	fe 4f       	sbci	r31, 0xFE	; 254
     9fc:	80 83       	st	Z, r24
     9fe:	fe 01       	movw	r30, r28
     a00:	eb 54       	subi	r30, 0x4B	; 75
     a02:	fe 4f       	sbci	r31, 0xFE	; 254
     a04:	80 83       	st	Z, r24
     a06:	fe 01       	movw	r30, r28
     a08:	ea 54       	subi	r30, 0x4A	; 74
     a0a:	fe 4f       	sbci	r31, 0xFE	; 254
     a0c:	80 83       	st	Z, r24
     a0e:	fe 01       	movw	r30, r28
     a10:	e9 54       	subi	r30, 0x49	; 73
     a12:	fe 4f       	sbci	r31, 0xFE	; 254
     a14:	80 83       	st	Z, r24
     a16:	fe 01       	movw	r30, r28
     a18:	e8 54       	subi	r30, 0x48	; 72
     a1a:	fe 4f       	sbci	r31, 0xFE	; 254
     a1c:	80 83       	st	Z, r24
     a1e:	fe 01       	movw	r30, r28
     a20:	e7 54       	subi	r30, 0x47	; 71
     a22:	fe 4f       	sbci	r31, 0xFE	; 254
     a24:	80 83       	st	Z, r24
     a26:	fe 01       	movw	r30, r28
     a28:	e6 54       	subi	r30, 0x46	; 70
     a2a:	fe 4f       	sbci	r31, 0xFE	; 254
     a2c:	80 83       	st	Z, r24
     a2e:	fe 01       	movw	r30, r28
     a30:	e5 54       	subi	r30, 0x45	; 69
     a32:	fe 4f       	sbci	r31, 0xFE	; 254
     a34:	80 83       	st	Z, r24
     a36:	fe 01       	movw	r30, r28
     a38:	e4 54       	subi	r30, 0x44	; 68
     a3a:	fe 4f       	sbci	r31, 0xFE	; 254
     a3c:	80 83       	st	Z, r24
     a3e:	fe 01       	movw	r30, r28
     a40:	e3 54       	subi	r30, 0x43	; 67
     a42:	fe 4f       	sbci	r31, 0xFE	; 254
     a44:	80 83       	st	Z, r24
     a46:	fe 01       	movw	r30, r28
     a48:	e2 54       	subi	r30, 0x42	; 66
     a4a:	fe 4f       	sbci	r31, 0xFE	; 254
     a4c:	80 83       	st	Z, r24
     a4e:	fe 01       	movw	r30, r28
     a50:	e1 54       	subi	r30, 0x41	; 65
     a52:	fe 4f       	sbci	r31, 0xFE	; 254
     a54:	80 83       	st	Z, r24
     a56:	fe 01       	movw	r30, r28
     a58:	e0 54       	subi	r30, 0x40	; 64
     a5a:	fe 4f       	sbci	r31, 0xFE	; 254
     a5c:	80 83       	st	Z, r24
     a5e:	fe 01       	movw	r30, r28
     a60:	ef 53       	subi	r30, 0x3F	; 63
     a62:	fe 4f       	sbci	r31, 0xFE	; 254
     a64:	80 83       	st	Z, r24
     a66:	fe 01       	movw	r30, r28
     a68:	ee 53       	subi	r30, 0x3E	; 62
     a6a:	fe 4f       	sbci	r31, 0xFE	; 254
     a6c:	80 83       	st	Z, r24
     a6e:	fe 01       	movw	r30, r28
     a70:	ed 53       	subi	r30, 0x3D	; 61
     a72:	fe 4f       	sbci	r31, 0xFE	; 254
     a74:	80 83       	st	Z, r24
     a76:	fe 01       	movw	r30, r28
     a78:	ec 53       	subi	r30, 0x3C	; 60
     a7a:	fe 4f       	sbci	r31, 0xFE	; 254
     a7c:	80 83       	st	Z, r24
     a7e:	fe 01       	movw	r30, r28
     a80:	ea 53       	subi	r30, 0x3A	; 58
     a82:	fe 4f       	sbci	r31, 0xFE	; 254
     a84:	80 83       	st	Z, r24
     a86:	fe 01       	movw	r30, r28
     a88:	e9 53       	subi	r30, 0x39	; 57
     a8a:	fe 4f       	sbci	r31, 0xFE	; 254
     a8c:	80 83       	st	Z, r24
     a8e:	fe 01       	movw	r30, r28
     a90:	e8 53       	subi	r30, 0x38	; 56
     a92:	fe 4f       	sbci	r31, 0xFE	; 254
     a94:	80 83       	st	Z, r24
     a96:	fe 01       	movw	r30, r28
     a98:	e7 53       	subi	r30, 0x37	; 55
     a9a:	fe 4f       	sbci	r31, 0xFE	; 254
     a9c:	80 83       	st	Z, r24
     a9e:	fe 01       	movw	r30, r28
     aa0:	e5 53       	subi	r30, 0x35	; 53
     aa2:	fe 4f       	sbci	r31, 0xFE	; 254
     aa4:	80 83       	st	Z, r24
     aa6:	fe 01       	movw	r30, r28
     aa8:	e4 53       	subi	r30, 0x34	; 52
     aaa:	fe 4f       	sbci	r31, 0xFE	; 254
     aac:	80 83       	st	Z, r24
     aae:	fe 01       	movw	r30, r28
     ab0:	e3 53       	subi	r30, 0x33	; 51
     ab2:	fe 4f       	sbci	r31, 0xFE	; 254
     ab4:	80 83       	st	Z, r24
     ab6:	fe 01       	movw	r30, r28
     ab8:	e2 53       	subi	r30, 0x32	; 50
     aba:	fe 4f       	sbci	r31, 0xFE	; 254
     abc:	80 83       	st	Z, r24
     abe:	fe 01       	movw	r30, r28
     ac0:	e0 53       	subi	r30, 0x30	; 48
     ac2:	fe 4f       	sbci	r31, 0xFE	; 254
     ac4:	80 83       	st	Z, r24
     ac6:	fe 01       	movw	r30, r28
     ac8:	ef 52       	subi	r30, 0x2F	; 47
     aca:	fe 4f       	sbci	r31, 0xFE	; 254
     acc:	80 83       	st	Z, r24
     ace:	fe 01       	movw	r30, r28
     ad0:	ee 52       	subi	r30, 0x2E	; 46
     ad2:	fe 4f       	sbci	r31, 0xFE	; 254
     ad4:	80 83       	st	Z, r24
     ad6:	fe 01       	movw	r30, r28
     ad8:	ed 52       	subi	r30, 0x2D	; 45
     ada:	fe 4f       	sbci	r31, 0xFE	; 254
     adc:	80 83       	st	Z, r24
     ade:	fe 01       	movw	r30, r28
     ae0:	eb 52       	subi	r30, 0x2B	; 43
     ae2:	fe 4f       	sbci	r31, 0xFE	; 254
     ae4:	80 83       	st	Z, r24
     ae6:	fe 01       	movw	r30, r28
     ae8:	ea 52       	subi	r30, 0x2A	; 42
     aea:	fe 4f       	sbci	r31, 0xFE	; 254
     aec:	80 83       	st	Z, r24
     aee:	fe 01       	movw	r30, r28
     af0:	e9 52       	subi	r30, 0x29	; 41
     af2:	fe 4f       	sbci	r31, 0xFE	; 254
     af4:	80 83       	st	Z, r24
     af6:	fe 01       	movw	r30, r28
     af8:	e8 52       	subi	r30, 0x28	; 40
     afa:	fe 4f       	sbci	r31, 0xFE	; 254
     afc:	80 83       	st	Z, r24
     afe:	fe 01       	movw	r30, r28
     b00:	e6 52       	subi	r30, 0x26	; 38
     b02:	fe 4f       	sbci	r31, 0xFE	; 254
     b04:	80 83       	st	Z, r24
     b06:	fe 01       	movw	r30, r28
     b08:	e5 52       	subi	r30, 0x25	; 37
     b0a:	fe 4f       	sbci	r31, 0xFE	; 254
     b0c:	80 83       	st	Z, r24
     b0e:	fe 01       	movw	r30, r28
     b10:	e4 52       	subi	r30, 0x24	; 36
     b12:	fe 4f       	sbci	r31, 0xFE	; 254
     b14:	80 83       	st	Z, r24
     b16:	fe 01       	movw	r30, r28
     b18:	e3 52       	subi	r30, 0x23	; 35
     b1a:	fe 4f       	sbci	r31, 0xFE	; 254
     b1c:	80 83       	st	Z, r24
     b1e:	fe 01       	movw	r30, r28
     b20:	e1 52       	subi	r30, 0x21	; 33
     b22:	fe 4f       	sbci	r31, 0xFE	; 254
     b24:	80 83       	st	Z, r24
     b26:	fe 01       	movw	r30, r28
     b28:	e0 52       	subi	r30, 0x20	; 32
     b2a:	fe 4f       	sbci	r31, 0xFE	; 254
     b2c:	80 83       	st	Z, r24
     b2e:	fe 01       	movw	r30, r28
     b30:	ef 51       	subi	r30, 0x1F	; 31
     b32:	fe 4f       	sbci	r31, 0xFE	; 254
     b34:	80 83       	st	Z, r24
     b36:	fe 01       	movw	r30, r28
     b38:	ee 51       	subi	r30, 0x1E	; 30
     b3a:	fe 4f       	sbci	r31, 0xFE	; 254
     b3c:	80 83       	st	Z, r24
     b3e:	fe 01       	movw	r30, r28
     b40:	ed 51       	subi	r30, 0x1D	; 29
     b42:	fe 4f       	sbci	r31, 0xFE	; 254
     b44:	80 83       	st	Z, r24
     b46:	fe 01       	movw	r30, r28
     b48:	ec 51       	subi	r30, 0x1C	; 28
     b4a:	fe 4f       	sbci	r31, 0xFE	; 254
     b4c:	80 83       	st	Z, r24
     b4e:	fe 01       	movw	r30, r28
     b50:	eb 51       	subi	r30, 0x1B	; 27
     b52:	fe 4f       	sbci	r31, 0xFE	; 254
     b54:	80 83       	st	Z, r24
     b56:	fe 01       	movw	r30, r28
     b58:	ea 51       	subi	r30, 0x1A	; 26
     b5a:	fe 4f       	sbci	r31, 0xFE	; 254
     b5c:	80 83       	st	Z, r24
     b5e:	fe 01       	movw	r30, r28
     b60:	e9 51       	subi	r30, 0x19	; 25
     b62:	fe 4f       	sbci	r31, 0xFE	; 254
     b64:	80 83       	st	Z, r24
     b66:	fe 01       	movw	r30, r28
     b68:	e8 51       	subi	r30, 0x18	; 24
     b6a:	fe 4f       	sbci	r31, 0xFE	; 254
     b6c:	80 83       	st	Z, r24
     b6e:	fe 01       	movw	r30, r28
     b70:	e7 51       	subi	r30, 0x17	; 23
     b72:	fe 4f       	sbci	r31, 0xFE	; 254
     b74:	80 83       	st	Z, r24
     b76:	fe 01       	movw	r30, r28
     b78:	e6 51       	subi	r30, 0x16	; 22
     b7a:	fe 4f       	sbci	r31, 0xFE	; 254
     b7c:	80 83       	st	Z, r24
     b7e:	fe 01       	movw	r30, r28
     b80:	e5 51       	subi	r30, 0x15	; 21
     b82:	fe 4f       	sbci	r31, 0xFE	; 254
     b84:	80 83       	st	Z, r24
     b86:	fe 01       	movw	r30, r28
     b88:	e4 51       	subi	r30, 0x14	; 20
     b8a:	fe 4f       	sbci	r31, 0xFE	; 254
     b8c:	80 83       	st	Z, r24
     b8e:	fe 01       	movw	r30, r28
     b90:	e3 51       	subi	r30, 0x13	; 19
     b92:	fe 4f       	sbci	r31, 0xFE	; 254
     b94:	80 83       	st	Z, r24
     b96:	fe 01       	movw	r30, r28
     b98:	e2 51       	subi	r30, 0x12	; 18
     b9a:	fe 4f       	sbci	r31, 0xFE	; 254
     b9c:	80 83       	st	Z, r24
     b9e:	fe 01       	movw	r30, r28
     ba0:	e1 51       	subi	r30, 0x11	; 17
     ba2:	fe 4f       	sbci	r31, 0xFE	; 254
     ba4:	80 83       	st	Z, r24
     ba6:	fe 01       	movw	r30, r28
     ba8:	ef 50       	subi	r30, 0x0F	; 15
     baa:	fe 4f       	sbci	r31, 0xFE	; 254
     bac:	80 83       	st	Z, r24
     bae:	fe 01       	movw	r30, r28
     bb0:	ee 50       	subi	r30, 0x0E	; 14
     bb2:	fe 4f       	sbci	r31, 0xFE	; 254
     bb4:	80 83       	st	Z, r24
     bb6:	fe 01       	movw	r30, r28
     bb8:	ed 50       	subi	r30, 0x0D	; 13
     bba:	fe 4f       	sbci	r31, 0xFE	; 254
     bbc:	80 83       	st	Z, r24
     bbe:	fe 01       	movw	r30, r28
     bc0:	ea 50       	subi	r30, 0x0A	; 10
     bc2:	fe 4f       	sbci	r31, 0xFE	; 254
     bc4:	80 83       	st	Z, r24
     bc6:	fe 01       	movw	r30, r28
     bc8:	e9 50       	subi	r30, 0x09	; 9
     bca:	fe 4f       	sbci	r31, 0xFE	; 254
     bcc:	80 83       	st	Z, r24
     bce:	fe 01       	movw	r30, r28
     bd0:	e7 50       	subi	r30, 0x07	; 7
     bd2:	fe 4f       	sbci	r31, 0xFE	; 254
     bd4:	80 83       	st	Z, r24
     bd6:	fe 01       	movw	r30, r28
     bd8:	e4 50       	subi	r30, 0x04	; 4
     bda:	fe 4f       	sbci	r31, 0xFE	; 254
     bdc:	80 83       	st	Z, r24
     bde:	fe 01       	movw	r30, r28
     be0:	e3 50       	subi	r30, 0x03	; 3
     be2:	fe 4f       	sbci	r31, 0xFE	; 254
     be4:	80 83       	st	Z, r24
     be6:	fe 01       	movw	r30, r28
     be8:	e2 50       	subi	r30, 0x02	; 2
     bea:	fe 4f       	sbci	r31, 0xFE	; 254
     bec:	80 83       	st	Z, r24
     bee:	fe 01       	movw	r30, r28
     bf0:	ef 5f       	subi	r30, 0xFF	; 255
     bf2:	fd 4f       	sbci	r31, 0xFD	; 253
     bf4:	80 83       	st	Z, r24
     bf6:	fe 01       	movw	r30, r28
     bf8:	ee 5f       	subi	r30, 0xFE	; 254
     bfa:	fd 4f       	sbci	r31, 0xFD	; 253
     bfc:	80 83       	st	Z, r24
     bfe:	fe 01       	movw	r30, r28
     c00:	ed 5f       	subi	r30, 0xFD	; 253
     c02:	fd 4f       	sbci	r31, 0xFD	; 253
     c04:	80 83       	st	Z, r24
     c06:	fe 01       	movw	r30, r28
     c08:	eb 5f       	subi	r30, 0xFB	; 251
     c0a:	fd 4f       	sbci	r31, 0xFD	; 253
     c0c:	80 83       	st	Z, r24
     c0e:	fe 01       	movw	r30, r28
     c10:	ea 5f       	subi	r30, 0xFA	; 250
     c12:	fd 4f       	sbci	r31, 0xFD	; 253
     c14:	80 83       	st	Z, r24
     c16:	fe 01       	movw	r30, r28
     c18:	e8 5f       	subi	r30, 0xF8	; 248
     c1a:	fd 4f       	sbci	r31, 0xFD	; 253
     c1c:	80 83       	st	Z, r24
     c1e:	fe 01       	movw	r30, r28
     c20:	e6 5f       	subi	r30, 0xF6	; 246
     c22:	fd 4f       	sbci	r31, 0xFD	; 253
     c24:	80 83       	st	Z, r24
     c26:	fe 01       	movw	r30, r28
     c28:	e5 5f       	subi	r30, 0xF5	; 245
     c2a:	fd 4f       	sbci	r31, 0xFD	; 253
     c2c:	80 83       	st	Z, r24
     c2e:	fe 01       	movw	r30, r28
     c30:	e4 5f       	subi	r30, 0xF4	; 244
     c32:	fd 4f       	sbci	r31, 0xFD	; 253
     c34:	80 83       	st	Z, r24
     c36:	fe 01       	movw	r30, r28
     c38:	e2 5f       	subi	r30, 0xF2	; 242
     c3a:	fd 4f       	sbci	r31, 0xFD	; 253
     c3c:	80 83       	st	Z, r24
     c3e:	fe 01       	movw	r30, r28
     c40:	e1 5f       	subi	r30, 0xF1	; 241
     c42:	fd 4f       	sbci	r31, 0xFD	; 253
     c44:	80 83       	st	Z, r24
     c46:	fe 01       	movw	r30, r28
     c48:	e0 5f       	subi	r30, 0xF0	; 240
     c4a:	fd 4f       	sbci	r31, 0xFD	; 253
     c4c:	80 83       	st	Z, r24
     c4e:	fe 01       	movw	r30, r28
     c50:	ef 5e       	subi	r30, 0xEF	; 239
     c52:	fd 4f       	sbci	r31, 0xFD	; 253
     c54:	80 83       	st	Z, r24
     c56:	fe 01       	movw	r30, r28
     c58:	ee 5e       	subi	r30, 0xEE	; 238
     c5a:	fd 4f       	sbci	r31, 0xFD	; 253
     c5c:	80 83       	st	Z, r24
     c5e:	fe 01       	movw	r30, r28
     c60:	ed 5e       	subi	r30, 0xED	; 237
     c62:	fd 4f       	sbci	r31, 0xFD	; 253
     c64:	80 83       	st	Z, r24
     c66:	fe 01       	movw	r30, r28
     c68:	ec 5e       	subi	r30, 0xEC	; 236
     c6a:	fd 4f       	sbci	r31, 0xFD	; 253
     c6c:	80 83       	st	Z, r24
     c6e:	fe 01       	movw	r30, r28
     c70:	eb 5e       	subi	r30, 0xEB	; 235
     c72:	fd 4f       	sbci	r31, 0xFD	; 253
     c74:	80 83       	st	Z, r24
     c76:	fe 01       	movw	r30, r28
     c78:	ea 5e       	subi	r30, 0xEA	; 234
     c7a:	fd 4f       	sbci	r31, 0xFD	; 253
     c7c:	80 83       	st	Z, r24
     c7e:	fe 01       	movw	r30, r28
     c80:	e9 5e       	subi	r30, 0xE9	; 233
     c82:	fd 4f       	sbci	r31, 0xFD	; 253
     c84:	80 83       	st	Z, r24
     c86:	fe 01       	movw	r30, r28
     c88:	e8 5e       	subi	r30, 0xE8	; 232
     c8a:	fd 4f       	sbci	r31, 0xFD	; 253
     c8c:	80 83       	st	Z, r24
     c8e:	fe 01       	movw	r30, r28
     c90:	e7 5e       	subi	r30, 0xE7	; 231
     c92:	fd 4f       	sbci	r31, 0xFD	; 253
     c94:	80 83       	st	Z, r24
     c96:	fe 01       	movw	r30, r28
     c98:	e6 5e       	subi	r30, 0xE6	; 230
     c9a:	fd 4f       	sbci	r31, 0xFD	; 253
     c9c:	80 83       	st	Z, r24
     c9e:	fe 01       	movw	r30, r28
     ca0:	e5 5e       	subi	r30, 0xE5	; 229
     ca2:	fd 4f       	sbci	r31, 0xFD	; 253
     ca4:	80 83       	st	Z, r24
     ca6:	fe 01       	movw	r30, r28
     ca8:	e4 5e       	subi	r30, 0xE4	; 228
     caa:	fd 4f       	sbci	r31, 0xFD	; 253
     cac:	80 83       	st	Z, r24
     cae:	fe 01       	movw	r30, r28
     cb0:	e3 5e       	subi	r30, 0xE3	; 227
     cb2:	fd 4f       	sbci	r31, 0xFD	; 253
     cb4:	80 83       	st	Z, r24
     cb6:	fe 01       	movw	r30, r28
     cb8:	ef 5d       	subi	r30, 0xDF	; 223
     cba:	fd 4f       	sbci	r31, 0xFD	; 253
     cbc:	80 83       	st	Z, r24
     cbe:	fe 01       	movw	r30, r28
     cc0:	ed 5d       	subi	r30, 0xDD	; 221
     cc2:	fd 4f       	sbci	r31, 0xFD	; 253
     cc4:	80 83       	st	Z, r24
     cc6:	fe 01       	movw	r30, r28
     cc8:	ec 5d       	subi	r30, 0xDC	; 220
     cca:	fd 4f       	sbci	r31, 0xFD	; 253
     ccc:	80 83       	st	Z, r24
     cce:	fe 01       	movw	r30, r28
     cd0:	eb 5d       	subi	r30, 0xDB	; 219
     cd2:	fd 4f       	sbci	r31, 0xFD	; 253
     cd4:	80 83       	st	Z, r24
     cd6:	fe 01       	movw	r30, r28
     cd8:	e8 5d       	subi	r30, 0xD8	; 216
     cda:	fd 4f       	sbci	r31, 0xFD	; 253
     cdc:	80 83       	st	Z, r24
     cde:	fe 01       	movw	r30, r28
     ce0:	e7 5d       	subi	r30, 0xD7	; 215
     ce2:	fd 4f       	sbci	r31, 0xFD	; 253
     ce4:	80 83       	st	Z, r24
     ce6:	fe 01       	movw	r30, r28
     ce8:	e6 5d       	subi	r30, 0xD6	; 214
     cea:	fd 4f       	sbci	r31, 0xFD	; 253
     cec:	80 83       	st	Z, r24
     cee:	fe 01       	movw	r30, r28
     cf0:	ee 5c       	subi	r30, 0xCE	; 206
     cf2:	fd 4f       	sbci	r31, 0xFD	; 253
     cf4:	80 83       	st	Z, r24
     cf6:	fe 01       	movw	r30, r28
     cf8:	ed 5c       	subi	r30, 0xCD	; 205
     cfa:	fd 4f       	sbci	r31, 0xFD	; 253
     cfc:	80 83       	st	Z, r24
     cfe:	fe 01       	movw	r30, r28
     d00:	ec 5c       	subi	r30, 0xCC	; 204
     d02:	fd 4f       	sbci	r31, 0xFD	; 253
     d04:	80 83       	st	Z, r24
     d06:	fe 01       	movw	r30, r28
     d08:	e9 5c       	subi	r30, 0xC9	; 201
     d0a:	fd 4f       	sbci	r31, 0xFD	; 253
     d0c:	80 83       	st	Z, r24
     d0e:	fe 01       	movw	r30, r28
     d10:	e8 5c       	subi	r30, 0xC8	; 200
     d12:	fd 4f       	sbci	r31, 0xFD	; 253
     d14:	80 83       	st	Z, r24
     d16:	fe 01       	movw	r30, r28
     d18:	e7 5c       	subi	r30, 0xC7	; 199
     d1a:	fd 4f       	sbci	r31, 0xFD	; 253
     d1c:	80 83       	st	Z, r24
     d1e:	fe 01       	movw	r30, r28
     d20:	e5 5c       	subi	r30, 0xC5	; 197
     d22:	fd 4f       	sbci	r31, 0xFD	; 253
     d24:	80 83       	st	Z, r24
     d26:	fe 01       	movw	r30, r28
     d28:	e4 5c       	subi	r30, 0xC4	; 196
     d2a:	fd 4f       	sbci	r31, 0xFD	; 253
     d2c:	80 83       	st	Z, r24
     d2e:	fe 01       	movw	r30, r28
     d30:	e3 5c       	subi	r30, 0xC3	; 195
     d32:	fd 4f       	sbci	r31, 0xFD	; 253
     d34:	80 83       	st	Z, r24
     d36:	fe 01       	movw	r30, r28
     d38:	e2 5c       	subi	r30, 0xC2	; 194
     d3a:	fd 4f       	sbci	r31, 0xFD	; 253
     d3c:	80 83       	st	Z, r24
     d3e:	fe 01       	movw	r30, r28
     d40:	e1 5c       	subi	r30, 0xC1	; 193
     d42:	fd 4f       	sbci	r31, 0xFD	; 253
     d44:	80 83       	st	Z, r24
     d46:	fe 01       	movw	r30, r28
     d48:	e0 5c       	subi	r30, 0xC0	; 192
     d4a:	fd 4f       	sbci	r31, 0xFD	; 253
     d4c:	80 83       	st	Z, r24
     d4e:	fe 01       	movw	r30, r28
     d50:	ef 5b       	subi	r30, 0xBF	; 191
     d52:	fd 4f       	sbci	r31, 0xFD	; 253
     d54:	80 83       	st	Z, r24
     d56:	fe 01       	movw	r30, r28
     d58:	ee 5b       	subi	r30, 0xBE	; 190
     d5a:	fd 4f       	sbci	r31, 0xFD	; 253
     d5c:	80 83       	st	Z, r24
     d5e:	fe 01       	movw	r30, r28
     d60:	ed 5b       	subi	r30, 0xBD	; 189
     d62:	fd 4f       	sbci	r31, 0xFD	; 253
     d64:	80 83       	st	Z, r24
     d66:	fe 01       	movw	r30, r28
     d68:	ec 5b       	subi	r30, 0xBC	; 188
     d6a:	fd 4f       	sbci	r31, 0xFD	; 253
     d6c:	80 83       	st	Z, r24
     d6e:	fe 01       	movw	r30, r28
     d70:	eb 5b       	subi	r30, 0xBB	; 187
     d72:	fd 4f       	sbci	r31, 0xFD	; 253
     d74:	80 83       	st	Z, r24
     d76:	fe 01       	movw	r30, r28
     d78:	ea 5b       	subi	r30, 0xBA	; 186
     d7a:	fd 4f       	sbci	r31, 0xFD	; 253
     d7c:	80 83       	st	Z, r24
     d7e:	fe 01       	movw	r30, r28
     d80:	e9 5b       	subi	r30, 0xB9	; 185
     d82:	fd 4f       	sbci	r31, 0xFD	; 253
     d84:	80 83       	st	Z, r24
     d86:	fe 01       	movw	r30, r28
     d88:	e8 5b       	subi	r30, 0xB8	; 184
     d8a:	fd 4f       	sbci	r31, 0xFD	; 253
     d8c:	80 83       	st	Z, r24
     d8e:	fe 01       	movw	r30, r28
     d90:	e7 5b       	subi	r30, 0xB7	; 183
     d92:	fd 4f       	sbci	r31, 0xFD	; 253
     d94:	80 83       	st	Z, r24
     d96:	fe 01       	movw	r30, r28
     d98:	e6 5b       	subi	r30, 0xB6	; 182
     d9a:	fd 4f       	sbci	r31, 0xFD	; 253
     d9c:	80 83       	st	Z, r24
     d9e:	fe 01       	movw	r30, r28
     da0:	e5 5b       	subi	r30, 0xB5	; 181
     da2:	fd 4f       	sbci	r31, 0xFD	; 253
     da4:	80 83       	st	Z, r24
     da6:	fe 01       	movw	r30, r28
     da8:	e4 5b       	subi	r30, 0xB4	; 180
     daa:	fd 4f       	sbci	r31, 0xFD	; 253
     dac:	80 83       	st	Z, r24
     dae:	fe 01       	movw	r30, r28
     db0:	e3 5b       	subi	r30, 0xB3	; 179
     db2:	fd 4f       	sbci	r31, 0xFD	; 253
     db4:	80 83       	st	Z, r24
     db6:	fe 01       	movw	r30, r28
     db8:	e2 5b       	subi	r30, 0xB2	; 178
     dba:	fd 4f       	sbci	r31, 0xFD	; 253
     dbc:	80 83       	st	Z, r24
     dbe:	fe 01       	movw	r30, r28
     dc0:	e1 5b       	subi	r30, 0xB1	; 177
     dc2:	fd 4f       	sbci	r31, 0xFD	; 253
     dc4:	80 83       	st	Z, r24
     dc6:	fe 01       	movw	r30, r28
     dc8:	e0 5b       	subi	r30, 0xB0	; 176
     dca:	fd 4f       	sbci	r31, 0xFD	; 253
     dcc:	80 83       	st	Z, r24
     dce:	fe 01       	movw	r30, r28
     dd0:	ef 5a       	subi	r30, 0xAF	; 175
     dd2:	fd 4f       	sbci	r31, 0xFD	; 253
     dd4:	80 83       	st	Z, r24
     dd6:	fe 01       	movw	r30, r28
     dd8:	ee 5a       	subi	r30, 0xAE	; 174
     dda:	fd 4f       	sbci	r31, 0xFD	; 253
     ddc:	80 83       	st	Z, r24
     dde:	fe 01       	movw	r30, r28
     de0:	ed 5a       	subi	r30, 0xAD	; 173
     de2:	fd 4f       	sbci	r31, 0xFD	; 253
     de4:	80 83       	st	Z, r24
     de6:	fe 01       	movw	r30, r28
     de8:	ec 5a       	subi	r30, 0xAC	; 172
     dea:	fd 4f       	sbci	r31, 0xFD	; 253
     dec:	80 83       	st	Z, r24
     dee:	fe 01       	movw	r30, r28
     df0:	eb 5a       	subi	r30, 0xAB	; 171
     df2:	fd 4f       	sbci	r31, 0xFD	; 253
     df4:	80 83       	st	Z, r24
     df6:	fe 01       	movw	r30, r28
     df8:	ea 5a       	subi	r30, 0xAA	; 170
     dfa:	fd 4f       	sbci	r31, 0xFD	; 253
     dfc:	80 83       	st	Z, r24
     dfe:	fe 01       	movw	r30, r28
     e00:	e9 5a       	subi	r30, 0xA9	; 169
     e02:	fd 4f       	sbci	r31, 0xFD	; 253
     e04:	80 83       	st	Z, r24
     e06:	fe 01       	movw	r30, r28
     e08:	e8 5a       	subi	r30, 0xA8	; 168
     e0a:	fd 4f       	sbci	r31, 0xFD	; 253
     e0c:	80 83       	st	Z, r24
     e0e:	fe 01       	movw	r30, r28
     e10:	e7 5a       	subi	r30, 0xA7	; 167
     e12:	fd 4f       	sbci	r31, 0xFD	; 253
     e14:	80 83       	st	Z, r24
     e16:	fe 01       	movw	r30, r28
     e18:	e6 5a       	subi	r30, 0xA6	; 166
     e1a:	fd 4f       	sbci	r31, 0xFD	; 253
     e1c:	80 83       	st	Z, r24
     e1e:	fe 01       	movw	r30, r28
     e20:	e5 5a       	subi	r30, 0xA5	; 165
     e22:	fd 4f       	sbci	r31, 0xFD	; 253
     e24:	80 83       	st	Z, r24
     e26:	fe 01       	movw	r30, r28
     e28:	e4 5a       	subi	r30, 0xA4	; 164
     e2a:	fd 4f       	sbci	r31, 0xFD	; 253
     e2c:	80 83       	st	Z, r24
     e2e:	fe 01       	movw	r30, r28
     e30:	e3 5a       	subi	r30, 0xA3	; 163
     e32:	fd 4f       	sbci	r31, 0xFD	; 253
     e34:	80 83       	st	Z, r24
     e36:	fe 01       	movw	r30, r28
     e38:	e2 5a       	subi	r30, 0xA2	; 162
     e3a:	fd 4f       	sbci	r31, 0xFD	; 253
     e3c:	80 83       	st	Z, r24
     e3e:	fe 01       	movw	r30, r28
     e40:	e1 5a       	subi	r30, 0xA1	; 161
     e42:	fd 4f       	sbci	r31, 0xFD	; 253
     e44:	80 83       	st	Z, r24
     e46:	fe 01       	movw	r30, r28
     e48:	e0 5a       	subi	r30, 0xA0	; 160
     e4a:	fd 4f       	sbci	r31, 0xFD	; 253
     e4c:	80 83       	st	Z, r24
     e4e:	fe 01       	movw	r30, r28
     e50:	ef 59       	subi	r30, 0x9F	; 159
     e52:	fd 4f       	sbci	r31, 0xFD	; 253
     e54:	80 83       	st	Z, r24
     e56:	fe 01       	movw	r30, r28
     e58:	ee 59       	subi	r30, 0x9E	; 158
     e5a:	fd 4f       	sbci	r31, 0xFD	; 253
     e5c:	80 83       	st	Z, r24
     e5e:	fe 01       	movw	r30, r28
     e60:	ed 59       	subi	r30, 0x9D	; 157
     e62:	fd 4f       	sbci	r31, 0xFD	; 253
     e64:	80 83       	st	Z, r24
     e66:	fe 01       	movw	r30, r28
     e68:	ec 59       	subi	r30, 0x9C	; 156
     e6a:	fd 4f       	sbci	r31, 0xFD	; 253
     e6c:	80 83       	st	Z, r24
     e6e:	fe 01       	movw	r30, r28
     e70:	eb 59       	subi	r30, 0x9B	; 155
     e72:	fd 4f       	sbci	r31, 0xFD	; 253
     e74:	80 83       	st	Z, r24
     e76:	fe 01       	movw	r30, r28
     e78:	ea 59       	subi	r30, 0x9A	; 154
     e7a:	fd 4f       	sbci	r31, 0xFD	; 253
     e7c:	80 83       	st	Z, r24
     e7e:	fe 01       	movw	r30, r28
     e80:	e9 59       	subi	r30, 0x99	; 153
     e82:	fd 4f       	sbci	r31, 0xFD	; 253
     e84:	80 83       	st	Z, r24
     e86:	fe 01       	movw	r30, r28
     e88:	e8 59       	subi	r30, 0x98	; 152
     e8a:	fd 4f       	sbci	r31, 0xFD	; 253
     e8c:	80 83       	st	Z, r24
     e8e:	fe 01       	movw	r30, r28
     e90:	e7 59       	subi	r30, 0x97	; 151
     e92:	fd 4f       	sbci	r31, 0xFD	; 253
     e94:	80 83       	st	Z, r24
     e96:	fe 01       	movw	r30, r28
     e98:	e6 59       	subi	r30, 0x96	; 150
     e9a:	fd 4f       	sbci	r31, 0xFD	; 253
     e9c:	80 83       	st	Z, r24
     e9e:	fe 01       	movw	r30, r28
     ea0:	e5 59       	subi	r30, 0x95	; 149
     ea2:	fd 4f       	sbci	r31, 0xFD	; 253
     ea4:	80 83       	st	Z, r24
     ea6:	fe 01       	movw	r30, r28
     ea8:	e4 59       	subi	r30, 0x94	; 148
     eaa:	fd 4f       	sbci	r31, 0xFD	; 253
     eac:	80 83       	st	Z, r24
     eae:	fe 01       	movw	r30, r28
     eb0:	e3 59       	subi	r30, 0x93	; 147
     eb2:	fd 4f       	sbci	r31, 0xFD	; 253
     eb4:	80 83       	st	Z, r24
     eb6:	fe 01       	movw	r30, r28
     eb8:	e2 59       	subi	r30, 0x92	; 146
     eba:	fd 4f       	sbci	r31, 0xFD	; 253
     ebc:	80 83       	st	Z, r24
     ebe:	fe 01       	movw	r30, r28
     ec0:	e1 59       	subi	r30, 0x91	; 145
     ec2:	fd 4f       	sbci	r31, 0xFD	; 253
     ec4:	80 83       	st	Z, r24
     ec6:	fe 01       	movw	r30, r28
     ec8:	e0 59       	subi	r30, 0x90	; 144
     eca:	fd 4f       	sbci	r31, 0xFD	; 253
     ecc:	80 83       	st	Z, r24
     ece:	fe 01       	movw	r30, r28
     ed0:	ef 58       	subi	r30, 0x8F	; 143
     ed2:	fd 4f       	sbci	r31, 0xFD	; 253
     ed4:	80 83       	st	Z, r24
     ed6:	fe 01       	movw	r30, r28
     ed8:	ee 58       	subi	r30, 0x8E	; 142
     eda:	fd 4f       	sbci	r31, 0xFD	; 253
     edc:	80 83       	st	Z, r24
     ede:	fe 01       	movw	r30, r28
     ee0:	ed 58       	subi	r30, 0x8D	; 141
     ee2:	fd 4f       	sbci	r31, 0xFD	; 253
     ee4:	80 83       	st	Z, r24
     ee6:	fe 01       	movw	r30, r28
     ee8:	ec 58       	subi	r30, 0x8C	; 140
     eea:	fd 4f       	sbci	r31, 0xFD	; 253
     eec:	80 83       	st	Z, r24
     eee:	fe 01       	movw	r30, r28
     ef0:	eb 58       	subi	r30, 0x8B	; 139
     ef2:	fd 4f       	sbci	r31, 0xFD	; 253
     ef4:	80 83       	st	Z, r24
     ef6:	fe 01       	movw	r30, r28
     ef8:	ea 58       	subi	r30, 0x8A	; 138
     efa:	fd 4f       	sbci	r31, 0xFD	; 253
     efc:	80 83       	st	Z, r24
     efe:	fe 01       	movw	r30, r28
     f00:	e6 58       	subi	r30, 0x86	; 134
     f02:	fd 4f       	sbci	r31, 0xFD	; 253
     f04:	80 83       	st	Z, r24
     f06:	fe 01       	movw	r30, r28
     f08:	e5 58       	subi	r30, 0x85	; 133
     f0a:	fd 4f       	sbci	r31, 0xFD	; 253
     f0c:	80 83       	st	Z, r24
     f0e:	fe 01       	movw	r30, r28
     f10:	e3 58       	subi	r30, 0x83	; 131
     f12:	fd 4f       	sbci	r31, 0xFD	; 253
     f14:	80 83       	st	Z, r24
     f16:	fe 01       	movw	r30, r28
     f18:	e2 58       	subi	r30, 0x82	; 130
     f1a:	fd 4f       	sbci	r31, 0xFD	; 253
     f1c:	80 83       	st	Z, r24
     f1e:	fe 01       	movw	r30, r28
     f20:	e0 58       	subi	r30, 0x80	; 128
     f22:	fd 4f       	sbci	r31, 0xFD	; 253
     f24:	80 83       	st	Z, r24
     f26:	fe 01       	movw	r30, r28
     f28:	ee 57       	subi	r30, 0x7E	; 126
     f2a:	fd 4f       	sbci	r31, 0xFD	; 253
     f2c:	80 83       	st	Z, r24
     f2e:	fe 01       	movw	r30, r28
     f30:	ed 57       	subi	r30, 0x7D	; 125
     f32:	fd 4f       	sbci	r31, 0xFD	; 253
     f34:	80 83       	st	Z, r24
     f36:	fe 01       	movw	r30, r28
     f38:	eb 57       	subi	r30, 0x7B	; 123
     f3a:	fd 4f       	sbci	r31, 0xFD	; 253
     f3c:	80 83       	st	Z, r24
     f3e:	fe 01       	movw	r30, r28
     f40:	e7 57       	subi	r30, 0x77	; 119
     f42:	fd 4f       	sbci	r31, 0xFD	; 253
     f44:	80 83       	st	Z, r24
     f46:	fe 01       	movw	r30, r28
     f48:	e6 57       	subi	r30, 0x76	; 118
     f4a:	fd 4f       	sbci	r31, 0xFD	; 253
     f4c:	80 83       	st	Z, r24
     f4e:	fe 01       	movw	r30, r28
     f50:	e4 57       	subi	r30, 0x74	; 116
     f52:	fd 4f       	sbci	r31, 0xFD	; 253
     f54:	80 83       	st	Z, r24
     f56:	fe 01       	movw	r30, r28
     f58:	e3 57       	subi	r30, 0x73	; 115
     f5a:	fd 4f       	sbci	r31, 0xFD	; 253
     f5c:	80 83       	st	Z, r24
     f5e:	fe 01       	movw	r30, r28
     f60:	e2 57       	subi	r30, 0x72	; 114
     f62:	fd 4f       	sbci	r31, 0xFD	; 253
     f64:	80 83       	st	Z, r24
     f66:	fe 01       	movw	r30, r28
     f68:	e1 57       	subi	r30, 0x71	; 113
     f6a:	fd 4f       	sbci	r31, 0xFD	; 253
     f6c:	80 83       	st	Z, r24
     f6e:	fe 01       	movw	r30, r28
     f70:	ef 56       	subi	r30, 0x6F	; 111
     f72:	fd 4f       	sbci	r31, 0xFD	; 253
     f74:	80 83       	st	Z, r24
     f76:	fe 01       	movw	r30, r28
     f78:	ee 56       	subi	r30, 0x6E	; 110
     f7a:	fd 4f       	sbci	r31, 0xFD	; 253
     f7c:	80 83       	st	Z, r24
     f7e:	fe 01       	movw	r30, r28
     f80:	ed 56       	subi	r30, 0x6D	; 109
     f82:	fd 4f       	sbci	r31, 0xFD	; 253
     f84:	80 83       	st	Z, r24
     f86:	fe 01       	movw	r30, r28
     f88:	ec 56       	subi	r30, 0x6C	; 108
     f8a:	fd 4f       	sbci	r31, 0xFD	; 253
     f8c:	80 83       	st	Z, r24
     f8e:	fe 01       	movw	r30, r28
     f90:	eb 56       	subi	r30, 0x6B	; 107
     f92:	fd 4f       	sbci	r31, 0xFD	; 253
     f94:	80 83       	st	Z, r24
     f96:	fe 01       	movw	r30, r28
     f98:	ea 56       	subi	r30, 0x6A	; 106
     f9a:	fd 4f       	sbci	r31, 0xFD	; 253
     f9c:	80 83       	st	Z, r24
     f9e:	fe 01       	movw	r30, r28
     fa0:	e9 56       	subi	r30, 0x69	; 105
     fa2:	fd 4f       	sbci	r31, 0xFD	; 253
     fa4:	80 83       	st	Z, r24
     fa6:	fe 01       	movw	r30, r28
     fa8:	e8 56       	subi	r30, 0x68	; 104
     faa:	fd 4f       	sbci	r31, 0xFD	; 253
     fac:	80 83       	st	Z, r24
     fae:	fe 01       	movw	r30, r28
     fb0:	e7 56       	subi	r30, 0x67	; 103
     fb2:	fd 4f       	sbci	r31, 0xFD	; 253
     fb4:	80 83       	st	Z, r24
     fb6:	fe 01       	movw	r30, r28
     fb8:	e6 56       	subi	r30, 0x66	; 102
     fba:	fd 4f       	sbci	r31, 0xFD	; 253
     fbc:	80 83       	st	Z, r24
     fbe:	fe 01       	movw	r30, r28
     fc0:	e5 56       	subi	r30, 0x65	; 101
     fc2:	fd 4f       	sbci	r31, 0xFD	; 253
     fc4:	80 83       	st	Z, r24
     fc6:	fe 01       	movw	r30, r28
     fc8:	e4 56       	subi	r30, 0x64	; 100
     fca:	fd 4f       	sbci	r31, 0xFD	; 253
     fcc:	80 83       	st	Z, r24
     fce:	fe 01       	movw	r30, r28
     fd0:	e3 56       	subi	r30, 0x63	; 99
     fd2:	fd 4f       	sbci	r31, 0xFD	; 253
     fd4:	80 83       	st	Z, r24
     fd6:	fe 01       	movw	r30, r28
     fd8:	e2 56       	subi	r30, 0x62	; 98
     fda:	fd 4f       	sbci	r31, 0xFD	; 253
     fdc:	80 83       	st	Z, r24
     fde:	fe 01       	movw	r30, r28
     fe0:	e1 56       	subi	r30, 0x61	; 97
     fe2:	fd 4f       	sbci	r31, 0xFD	; 253
     fe4:	80 83       	st	Z, r24
     fe6:	fe 01       	movw	r30, r28
     fe8:	e0 56       	subi	r30, 0x60	; 96
     fea:	fd 4f       	sbci	r31, 0xFD	; 253
     fec:	80 83       	st	Z, r24
     fee:	fe 01       	movw	r30, r28
     ff0:	ef 55       	subi	r30, 0x5F	; 95
     ff2:	fd 4f       	sbci	r31, 0xFD	; 253
     ff4:	80 83       	st	Z, r24
     ff6:	fe 01       	movw	r30, r28
     ff8:	ee 55       	subi	r30, 0x5E	; 94
     ffa:	fd 4f       	sbci	r31, 0xFD	; 253
     ffc:	80 83       	st	Z, r24
     ffe:	fe 01       	movw	r30, r28
    1000:	ed 55       	subi	r30, 0x5D	; 93
    1002:	fd 4f       	sbci	r31, 0xFD	; 253
    1004:	80 83       	st	Z, r24
    1006:	fe 01       	movw	r30, r28
    1008:	ec 55       	subi	r30, 0x5C	; 92
    100a:	fd 4f       	sbci	r31, 0xFD	; 253
    100c:	80 83       	st	Z, r24
    100e:	fe 01       	movw	r30, r28
    1010:	eb 55       	subi	r30, 0x5B	; 91
    1012:	fd 4f       	sbci	r31, 0xFD	; 253
    1014:	80 83       	st	Z, r24
    1016:	fe 01       	movw	r30, r28
    1018:	e9 55       	subi	r30, 0x59	; 89
    101a:	fd 4f       	sbci	r31, 0xFD	; 253
    101c:	80 83       	st	Z, r24
    101e:	fe 01       	movw	r30, r28
    1020:	e8 55       	subi	r30, 0x58	; 88
    1022:	fd 4f       	sbci	r31, 0xFD	; 253
    1024:	80 83       	st	Z, r24
    1026:	fe 01       	movw	r30, r28
    1028:	e7 55       	subi	r30, 0x57	; 87
    102a:	fd 4f       	sbci	r31, 0xFD	; 253
    102c:	80 83       	st	Z, r24
    102e:	fe 01       	movw	r30, r28
    1030:	e5 55       	subi	r30, 0x55	; 85
    1032:	fd 4f       	sbci	r31, 0xFD	; 253
    1034:	80 83       	st	Z, r24
    1036:	fe 01       	movw	r30, r28
    1038:	e3 55       	subi	r30, 0x53	; 83
    103a:	fd 4f       	sbci	r31, 0xFD	; 253
    103c:	80 83       	st	Z, r24
    103e:	fe 01       	movw	r30, r28
    1040:	e1 55       	subi	r30, 0x51	; 81
    1042:	fd 4f       	sbci	r31, 0xFD	; 253
    1044:	80 83       	st	Z, r24
    1046:	fe 01       	movw	r30, r28
    1048:	e0 55       	subi	r30, 0x50	; 80
    104a:	fd 4f       	sbci	r31, 0xFD	; 253
    104c:	80 83       	st	Z, r24
    104e:	fe 01       	movw	r30, r28
    1050:	ef 54       	subi	r30, 0x4F	; 79
    1052:	fd 4f       	sbci	r31, 0xFD	; 253
    1054:	80 83       	st	Z, r24
    1056:	fe 01       	movw	r30, r28
    1058:	ec 54       	subi	r30, 0x4C	; 76
    105a:	fd 4f       	sbci	r31, 0xFD	; 253
    105c:	80 83       	st	Z, r24
    105e:	fe 01       	movw	r30, r28
    1060:	eb 54       	subi	r30, 0x4B	; 75
    1062:	fd 4f       	sbci	r31, 0xFD	; 253
    1064:	80 83       	st	Z, r24
    1066:	fe 01       	movw	r30, r28
    1068:	ea 54       	subi	r30, 0x4A	; 74
    106a:	fd 4f       	sbci	r31, 0xFD	; 253
    106c:	80 83       	st	Z, r24
    106e:	fe 01       	movw	r30, r28
    1070:	e8 54       	subi	r30, 0x48	; 72
    1072:	fd 4f       	sbci	r31, 0xFD	; 253
    1074:	80 83       	st	Z, r24
    1076:	fe 01       	movw	r30, r28
    1078:	e6 54       	subi	r30, 0x46	; 70
    107a:	fd 4f       	sbci	r31, 0xFD	; 253
    107c:	80 83       	st	Z, r24
    107e:	fe 01       	movw	r30, r28
    1080:	e4 54       	subi	r30, 0x44	; 68
    1082:	fd 4f       	sbci	r31, 0xFD	; 253
    1084:	80 83       	st	Z, r24
    1086:	fe 01       	movw	r30, r28
    1088:	e3 54       	subi	r30, 0x43	; 67
    108a:	fd 4f       	sbci	r31, 0xFD	; 253
    108c:	80 83       	st	Z, r24
    108e:	fe 01       	movw	r30, r28
    1090:	e2 54       	subi	r30, 0x42	; 66
    1092:	fd 4f       	sbci	r31, 0xFD	; 253
    1094:	80 83       	st	Z, r24
    1096:	fe 01       	movw	r30, r28
    1098:	e0 54       	subi	r30, 0x40	; 64
    109a:	fd 4f       	sbci	r31, 0xFD	; 253
    109c:	80 83       	st	Z, r24
    109e:	fe 01       	movw	r30, r28
    10a0:	ef 53       	subi	r30, 0x3F	; 63
    10a2:	fd 4f       	sbci	r31, 0xFD	; 253
    10a4:	80 83       	st	Z, r24
    10a6:	fe 01       	movw	r30, r28
    10a8:	ee 53       	subi	r30, 0x3E	; 62
    10aa:	fd 4f       	sbci	r31, 0xFD	; 253
    10ac:	80 83       	st	Z, r24
    10ae:	fe 01       	movw	r30, r28
    10b0:	ed 53       	subi	r30, 0x3D	; 61
    10b2:	fd 4f       	sbci	r31, 0xFD	; 253
    10b4:	80 83       	st	Z, r24
    10b6:	fe 01       	movw	r30, r28
    10b8:	ec 53       	subi	r30, 0x3C	; 60
    10ba:	fd 4f       	sbci	r31, 0xFD	; 253
    10bc:	80 83       	st	Z, r24
    10be:	fe 01       	movw	r30, r28
    10c0:	eb 53       	subi	r30, 0x3B	; 59
    10c2:	fd 4f       	sbci	r31, 0xFD	; 253
    10c4:	80 83       	st	Z, r24
    10c6:	fe 01       	movw	r30, r28
    10c8:	ea 53       	subi	r30, 0x3A	; 58
    10ca:	fd 4f       	sbci	r31, 0xFD	; 253
    10cc:	80 83       	st	Z, r24
    10ce:	fe 01       	movw	r30, r28
    10d0:	e9 53       	subi	r30, 0x39	; 57
    10d2:	fd 4f       	sbci	r31, 0xFD	; 253
    10d4:	80 83       	st	Z, r24
    10d6:	fe 01       	movw	r30, r28
    10d8:	e8 53       	subi	r30, 0x38	; 56
    10da:	fd 4f       	sbci	r31, 0xFD	; 253
    10dc:	80 83       	st	Z, r24
    10de:	fe 01       	movw	r30, r28
    10e0:	e7 53       	subi	r30, 0x37	; 55
    10e2:	fd 4f       	sbci	r31, 0xFD	; 253
    10e4:	80 83       	st	Z, r24
    10e6:	fe 01       	movw	r30, r28
    10e8:	e6 53       	subi	r30, 0x36	; 54
    10ea:	fd 4f       	sbci	r31, 0xFD	; 253
    10ec:	80 83       	st	Z, r24
    10ee:	fe 01       	movw	r30, r28
    10f0:	e5 53       	subi	r30, 0x35	; 53
    10f2:	fd 4f       	sbci	r31, 0xFD	; 253
    10f4:	80 83       	st	Z, r24
    10f6:	fe 01       	movw	r30, r28
    10f8:	e4 53       	subi	r30, 0x34	; 52
    10fa:	fd 4f       	sbci	r31, 0xFD	; 253
    10fc:	80 83       	st	Z, r24
    10fe:	fe 01       	movw	r30, r28
    1100:	e3 53       	subi	r30, 0x33	; 51
    1102:	fd 4f       	sbci	r31, 0xFD	; 253
    1104:	80 83       	st	Z, r24
    1106:	fe 01       	movw	r30, r28
    1108:	e2 53       	subi	r30, 0x32	; 50
    110a:	fd 4f       	sbci	r31, 0xFD	; 253
    110c:	80 83       	st	Z, r24
    110e:	fe 01       	movw	r30, r28
    1110:	e1 53       	subi	r30, 0x31	; 49
    1112:	fd 4f       	sbci	r31, 0xFD	; 253
    1114:	80 83       	st	Z, r24
    1116:	fe 01       	movw	r30, r28
    1118:	e0 53       	subi	r30, 0x30	; 48
    111a:	fd 4f       	sbci	r31, 0xFD	; 253
    111c:	80 83       	st	Z, r24
    111e:	fe 01       	movw	r30, r28
    1120:	ea 52       	subi	r30, 0x2A	; 42
    1122:	fd 4f       	sbci	r31, 0xFD	; 253
    1124:	80 83       	st	Z, r24
    1126:	fe 01       	movw	r30, r28
    1128:	e9 52       	subi	r30, 0x29	; 41
    112a:	fd 4f       	sbci	r31, 0xFD	; 253
    112c:	80 83       	st	Z, r24
    112e:	fe 01       	movw	r30, r28
    1130:	e8 52       	subi	r30, 0x28	; 40
    1132:	fd 4f       	sbci	r31, 0xFD	; 253
    1134:	80 83       	st	Z, r24
    1136:	fe 01       	movw	r30, r28
    1138:	e7 52       	subi	r30, 0x27	; 39
    113a:	fd 4f       	sbci	r31, 0xFD	; 253
    113c:	80 83       	st	Z, r24
    113e:	fe 01       	movw	r30, r28
    1140:	e5 52       	subi	r30, 0x25	; 37
    1142:	fd 4f       	sbci	r31, 0xFD	; 253
    1144:	80 83       	st	Z, r24
    1146:	fe 01       	movw	r30, r28
    1148:	e4 52       	subi	r30, 0x24	; 36
    114a:	fd 4f       	sbci	r31, 0xFD	; 253
    114c:	80 83       	st	Z, r24
    114e:	fe 01       	movw	r30, r28
    1150:	e1 52       	subi	r30, 0x21	; 33
    1152:	fd 4f       	sbci	r31, 0xFD	; 253
    1154:	80 83       	st	Z, r24
    1156:	fe 01       	movw	r30, r28
    1158:	e0 52       	subi	r30, 0x20	; 32
    115a:	fd 4f       	sbci	r31, 0xFD	; 253
    115c:	80 83       	st	Z, r24
    115e:	fe 01       	movw	r30, r28
    1160:	ed 51       	subi	r30, 0x1D	; 29
    1162:	fd 4f       	sbci	r31, 0xFD	; 253
    1164:	80 83       	st	Z, r24
    1166:	fe 01       	movw	r30, r28
    1168:	ec 51       	subi	r30, 0x1C	; 28
    116a:	fd 4f       	sbci	r31, 0xFD	; 253
    116c:	80 83       	st	Z, r24
    116e:	fe 01       	movw	r30, r28
    1170:	ea 51       	subi	r30, 0x1A	; 26
    1172:	fd 4f       	sbci	r31, 0xFD	; 253
    1174:	80 83       	st	Z, r24
    1176:	fe 01       	movw	r30, r28
    1178:	e9 51       	subi	r30, 0x19	; 25
    117a:	fd 4f       	sbci	r31, 0xFD	; 253
    117c:	80 83       	st	Z, r24
    117e:	fe 01       	movw	r30, r28
    1180:	e8 51       	subi	r30, 0x18	; 24
    1182:	fd 4f       	sbci	r31, 0xFD	; 253
    1184:	80 83       	st	Z, r24
    1186:	fe 01       	movw	r30, r28
    1188:	e7 51       	subi	r30, 0x17	; 23
    118a:	fd 4f       	sbci	r31, 0xFD	; 253
    118c:	80 83       	st	Z, r24
    118e:	fe 01       	movw	r30, r28
    1190:	e1 51       	subi	r30, 0x11	; 17
    1192:	fd 4f       	sbci	r31, 0xFD	; 253
    1194:	80 83       	st	Z, r24
    1196:	fe 01       	movw	r30, r28
    1198:	e0 51       	subi	r30, 0x10	; 16
    119a:	fd 4f       	sbci	r31, 0xFD	; 253
    119c:	80 83       	st	Z, r24
    119e:	fe 01       	movw	r30, r28
    11a0:	ef 50       	subi	r30, 0x0F	; 15
    11a2:	fd 4f       	sbci	r31, 0xFD	; 253
    11a4:	80 83       	st	Z, r24
    11a6:	fe 01       	movw	r30, r28
    11a8:	ee 50       	subi	r30, 0x0E	; 14
    11aa:	fd 4f       	sbci	r31, 0xFD	; 253
    11ac:	80 83       	st	Z, r24
    11ae:	fe 01       	movw	r30, r28
    11b0:	ed 50       	subi	r30, 0x0D	; 13
    11b2:	fd 4f       	sbci	r31, 0xFD	; 253
    11b4:	80 83       	st	Z, r24
    11b6:	fe 01       	movw	r30, r28
    11b8:	ec 50       	subi	r30, 0x0C	; 12
    11ba:	fd 4f       	sbci	r31, 0xFD	; 253
    11bc:	80 83       	st	Z, r24
    11be:	fe 01       	movw	r30, r28
    11c0:	eb 50       	subi	r30, 0x0B	; 11
    11c2:	fd 4f       	sbci	r31, 0xFD	; 253
    11c4:	80 83       	st	Z, r24
    11c6:	fe 01       	movw	r30, r28
    11c8:	ea 50       	subi	r30, 0x0A	; 10
    11ca:	fd 4f       	sbci	r31, 0xFD	; 253
    11cc:	80 83       	st	Z, r24
    11ce:	fe 01       	movw	r30, r28
    11d0:	e9 50       	subi	r30, 0x09	; 9
    11d2:	fd 4f       	sbci	r31, 0xFD	; 253
    11d4:	80 83       	st	Z, r24
    11d6:	fe 01       	movw	r30, r28
    11d8:	e8 50       	subi	r30, 0x08	; 8
    11da:	fd 4f       	sbci	r31, 0xFD	; 253
    11dc:	80 83       	st	Z, r24
    11de:	fe 01       	movw	r30, r28
    11e0:	e7 50       	subi	r30, 0x07	; 7
    11e2:	fd 4f       	sbci	r31, 0xFD	; 253
    11e4:	80 83       	st	Z, r24
    11e6:	fe 01       	movw	r30, r28
    11e8:	e6 50       	subi	r30, 0x06	; 6
    11ea:	fd 4f       	sbci	r31, 0xFD	; 253
    11ec:	80 83       	st	Z, r24
    11ee:	fe 01       	movw	r30, r28
    11f0:	e5 50       	subi	r30, 0x05	; 5
    11f2:	fd 4f       	sbci	r31, 0xFD	; 253
    11f4:	80 83       	st	Z, r24
    11f6:	fe 01       	movw	r30, r28
    11f8:	e4 50       	subi	r30, 0x04	; 4
    11fa:	fd 4f       	sbci	r31, 0xFD	; 253
    11fc:	80 83       	st	Z, r24
    11fe:	fe 01       	movw	r30, r28
    1200:	e3 50       	subi	r30, 0x03	; 3
    1202:	fd 4f       	sbci	r31, 0xFD	; 253
    1204:	80 83       	st	Z, r24
    1206:	fe 01       	movw	r30, r28
    1208:	e0 50       	subi	r30, 0x00	; 0
    120a:	fd 4f       	sbci	r31, 0xFD	; 253
    120c:	80 83       	st	Z, r24
    120e:	fe 01       	movw	r30, r28
    1210:	ef 5f       	subi	r30, 0xFF	; 255
    1212:	fc 4f       	sbci	r31, 0xFC	; 252
    1214:	80 83       	st	Z, r24
    1216:	fe 01       	movw	r30, r28
    1218:	eb 5f       	subi	r30, 0xFB	; 251
    121a:	fc 4f       	sbci	r31, 0xFC	; 252
    121c:	80 83       	st	Z, r24
    121e:	fe 01       	movw	r30, r28
    1220:	ea 5f       	subi	r30, 0xFA	; 250
    1222:	fc 4f       	sbci	r31, 0xFC	; 252
    1224:	80 83       	st	Z, r24
    1226:	fe 01       	movw	r30, r28
    1228:	e7 5f       	subi	r30, 0xF7	; 247
    122a:	fc 4f       	sbci	r31, 0xFC	; 252
    122c:	80 83       	st	Z, r24
    122e:	fe 01       	movw	r30, r28
    1230:	e5 5f       	subi	r30, 0xF5	; 245
    1232:	fc 4f       	sbci	r31, 0xFC	; 252
    1234:	80 83       	st	Z, r24
    1236:	fe 01       	movw	r30, r28
    1238:	e2 5f       	subi	r30, 0xF2	; 242
    123a:	fc 4f       	sbci	r31, 0xFC	; 252
    123c:	80 83       	st	Z, r24
    123e:	fe 01       	movw	r30, r28
    1240:	e0 5f       	subi	r30, 0xF0	; 240
    1242:	fc 4f       	sbci	r31, 0xFC	; 252
    1244:	80 83       	st	Z, r24
    1246:	fe 01       	movw	r30, r28
    1248:	ed 5e       	subi	r30, 0xED	; 237
    124a:	fc 4f       	sbci	r31, 0xFC	; 252
    124c:	80 83       	st	Z, r24
    124e:	fe 01       	movw	r30, r28
    1250:	ec 5e       	subi	r30, 0xEC	; 236
    1252:	fc 4f       	sbci	r31, 0xFC	; 252
    1254:	80 83       	st	Z, r24
    1256:	fe 01       	movw	r30, r28
    1258:	e8 5e       	subi	r30, 0xE8	; 232
    125a:	fc 4f       	sbci	r31, 0xFC	; 252
    125c:	80 83       	st	Z, r24
    125e:	fe 01       	movw	r30, r28
    1260:	e7 5e       	subi	r30, 0xE7	; 231
    1262:	fc 4f       	sbci	r31, 0xFC	; 252
    1264:	80 83       	st	Z, r24
    1266:	fe 01       	movw	r30, r28
    1268:	e4 5e       	subi	r30, 0xE4	; 228
    126a:	fc 4f       	sbci	r31, 0xFC	; 252
    126c:	80 83       	st	Z, r24
    126e:	fe 01       	movw	r30, r28
    1270:	e3 5e       	subi	r30, 0xE3	; 227
    1272:	fc 4f       	sbci	r31, 0xFC	; 252
    1274:	80 83       	st	Z, r24
    1276:	fe 01       	movw	r30, r28
    1278:	e2 5e       	subi	r30, 0xE2	; 226
    127a:	fc 4f       	sbci	r31, 0xFC	; 252
    127c:	80 83       	st	Z, r24
    127e:	fe 01       	movw	r30, r28
    1280:	e1 5e       	subi	r30, 0xE1	; 225
    1282:	fc 4f       	sbci	r31, 0xFC	; 252
    1284:	80 83       	st	Z, r24
    1286:	fe 01       	movw	r30, r28
    1288:	e0 5e       	subi	r30, 0xE0	; 224
    128a:	fc 4f       	sbci	r31, 0xFC	; 252
    128c:	80 83       	st	Z, r24
    128e:	fe 01       	movw	r30, r28
    1290:	ef 5d       	subi	r30, 0xDF	; 223
    1292:	fc 4f       	sbci	r31, 0xFC	; 252
    1294:	80 83       	st	Z, r24
    1296:	fe 01       	movw	r30, r28
    1298:	ee 5d       	subi	r30, 0xDE	; 222
    129a:	fc 4f       	sbci	r31, 0xFC	; 252
    129c:	80 83       	st	Z, r24
    129e:	fe 01       	movw	r30, r28
    12a0:	ed 5d       	subi	r30, 0xDD	; 221
    12a2:	fc 4f       	sbci	r31, 0xFC	; 252
    12a4:	80 83       	st	Z, r24
    12a6:	fe 01       	movw	r30, r28
    12a8:	ec 5d       	subi	r30, 0xDC	; 220
    12aa:	fc 4f       	sbci	r31, 0xFC	; 252
    12ac:	80 83       	st	Z, r24
    12ae:	fe 01       	movw	r30, r28
    12b0:	eb 5d       	subi	r30, 0xDB	; 219
    12b2:	fc 4f       	sbci	r31, 0xFC	; 252
    12b4:	80 83       	st	Z, r24
    12b6:	fe 01       	movw	r30, r28
    12b8:	ea 5d       	subi	r30, 0xDA	; 218
    12ba:	fc 4f       	sbci	r31, 0xFC	; 252
    12bc:	80 83       	st	Z, r24
    12be:	fe 01       	movw	r30, r28
    12c0:	e9 5d       	subi	r30, 0xD9	; 217
    12c2:	fc 4f       	sbci	r31, 0xFC	; 252
    12c4:	80 83       	st	Z, r24
    12c6:	fe 01       	movw	r30, r28
    12c8:	e8 5d       	subi	r30, 0xD8	; 216
    12ca:	fc 4f       	sbci	r31, 0xFC	; 252
    12cc:	80 83       	st	Z, r24
    12ce:	fe 01       	movw	r30, r28
    12d0:	e7 5d       	subi	r30, 0xD7	; 215
    12d2:	fc 4f       	sbci	r31, 0xFC	; 252
    12d4:	80 83       	st	Z, r24
    12d6:	fe 01       	movw	r30, r28
    12d8:	e6 5d       	subi	r30, 0xD6	; 214
    12da:	fc 4f       	sbci	r31, 0xFC	; 252
    12dc:	80 83       	st	Z, r24
    12de:	fe 01       	movw	r30, r28
    12e0:	e5 5d       	subi	r30, 0xD5	; 213
    12e2:	fc 4f       	sbci	r31, 0xFC	; 252
    12e4:	80 83       	st	Z, r24
    12e6:	fe 01       	movw	r30, r28
    12e8:	e1 5d       	subi	r30, 0xD1	; 209
    12ea:	fc 4f       	sbci	r31, 0xFC	; 252
    12ec:	80 83       	st	Z, r24
    12ee:	fe 01       	movw	r30, r28
    12f0:	ef 5c       	subi	r30, 0xCF	; 207
    12f2:	fc 4f       	sbci	r31, 0xFC	; 252
    12f4:	80 83       	st	Z, r24
    12f6:	fe 01       	movw	r30, r28
    12f8:	ee 5c       	subi	r30, 0xCE	; 206
    12fa:	fc 4f       	sbci	r31, 0xFC	; 252
    12fc:	80 83       	st	Z, r24
    12fe:	fe 01       	movw	r30, r28
    1300:	ed 5c       	subi	r30, 0xCD	; 205
    1302:	fc 4f       	sbci	r31, 0xFC	; 252
    1304:	80 83       	st	Z, r24
    1306:	fe 01       	movw	r30, r28
    1308:	ea 5c       	subi	r30, 0xCA	; 202
    130a:	fc 4f       	sbci	r31, 0xFC	; 252
    130c:	80 83       	st	Z, r24
    130e:	fe 01       	movw	r30, r28
    1310:	e9 5c       	subi	r30, 0xC9	; 201
    1312:	fc 4f       	sbci	r31, 0xFC	; 252
    1314:	80 83       	st	Z, r24
    1316:	fe 01       	movw	r30, r28
    1318:	e8 5c       	subi	r30, 0xC8	; 200
    131a:	fc 4f       	sbci	r31, 0xFC	; 252
    131c:	80 83       	st	Z, r24
    131e:	fe 01       	movw	r30, r28
    1320:	e0 5c       	subi	r30, 0xC0	; 192
    1322:	fc 4f       	sbci	r31, 0xFC	; 252
    1324:	80 83       	st	Z, r24
    1326:	fe 01       	movw	r30, r28
    1328:	ef 5b       	subi	r30, 0xBF	; 191
    132a:	fc 4f       	sbci	r31, 0xFC	; 252
    132c:	80 83       	st	Z, r24
    132e:	fe 01       	movw	r30, r28
    1330:	ee 5b       	subi	r30, 0xBE	; 190
    1332:	fc 4f       	sbci	r31, 0xFC	; 252
    1334:	80 83       	st	Z, r24
    1336:	fe 01       	movw	r30, r28
    1338:	eb 5b       	subi	r30, 0xBB	; 187
    133a:	fc 4f       	sbci	r31, 0xFC	; 252
    133c:	80 83       	st	Z, r24
    133e:	fe 01       	movw	r30, r28
    1340:	ea 5b       	subi	r30, 0xBA	; 186
    1342:	fc 4f       	sbci	r31, 0xFC	; 252
    1344:	80 83       	st	Z, r24
    1346:	fe 01       	movw	r30, r28
    1348:	e9 5b       	subi	r30, 0xB9	; 185
    134a:	fc 4f       	sbci	r31, 0xFC	; 252
    134c:	80 83       	st	Z, r24
    134e:	fe 01       	movw	r30, r28
    1350:	e7 5b       	subi	r30, 0xB7	; 183
    1352:	fc 4f       	sbci	r31, 0xFC	; 252
    1354:	80 83       	st	Z, r24
    1356:	fe 01       	movw	r30, r28
    1358:	e6 5b       	subi	r30, 0xB6	; 182
    135a:	fc 4f       	sbci	r31, 0xFC	; 252
    135c:	80 83       	st	Z, r24
    135e:	fe 01       	movw	r30, r28
    1360:	e5 5b       	subi	r30, 0xB5	; 181
    1362:	fc 4f       	sbci	r31, 0xFC	; 252
    1364:	80 83       	st	Z, r24
    1366:	fe 01       	movw	r30, r28
    1368:	e4 5b       	subi	r30, 0xB4	; 180
    136a:	fc 4f       	sbci	r31, 0xFC	; 252
    136c:	80 83       	st	Z, r24
    136e:	fe 01       	movw	r30, r28
    1370:	e3 5b       	subi	r30, 0xB3	; 179
    1372:	fc 4f       	sbci	r31, 0xFC	; 252
    1374:	80 83       	st	Z, r24
    1376:	fe 01       	movw	r30, r28
    1378:	e2 5b       	subi	r30, 0xB2	; 178
    137a:	fc 4f       	sbci	r31, 0xFC	; 252
    137c:	80 83       	st	Z, r24
    137e:	fe 01       	movw	r30, r28
    1380:	e1 5b       	subi	r30, 0xB1	; 177
    1382:	fc 4f       	sbci	r31, 0xFC	; 252
    1384:	80 83       	st	Z, r24
    1386:	fe 01       	movw	r30, r28
    1388:	e0 5b       	subi	r30, 0xB0	; 176
    138a:	fc 4f       	sbci	r31, 0xFC	; 252
    138c:	80 83       	st	Z, r24
    138e:	fe 01       	movw	r30, r28
    1390:	ef 5a       	subi	r30, 0xAF	; 175
    1392:	fc 4f       	sbci	r31, 0xFC	; 252
    1394:	80 83       	st	Z, r24
    1396:	fe 01       	movw	r30, r28
    1398:	ee 5a       	subi	r30, 0xAE	; 174
    139a:	fc 4f       	sbci	r31, 0xFC	; 252
    139c:	80 83       	st	Z, r24
    139e:	fe 01       	movw	r30, r28
    13a0:	ed 5a       	subi	r30, 0xAD	; 173
    13a2:	fc 4f       	sbci	r31, 0xFC	; 252
    13a4:	80 83       	st	Z, r24
    13a6:	fe 01       	movw	r30, r28
    13a8:	ec 5a       	subi	r30, 0xAC	; 172
    13aa:	fc 4f       	sbci	r31, 0xFC	; 252
    13ac:	80 83       	st	Z, r24
    13ae:	fe 01       	movw	r30, r28
    13b0:	eb 5a       	subi	r30, 0xAB	; 171
    13b2:	fc 4f       	sbci	r31, 0xFC	; 252
    13b4:	80 83       	st	Z, r24
    13b6:	fe 01       	movw	r30, r28
    13b8:	ea 5a       	subi	r30, 0xAA	; 170
    13ba:	fc 4f       	sbci	r31, 0xFC	; 252
    13bc:	80 83       	st	Z, r24
    13be:	fe 01       	movw	r30, r28
    13c0:	e9 5a       	subi	r30, 0xA9	; 169
    13c2:	fc 4f       	sbci	r31, 0xFC	; 252
    13c4:	80 83       	st	Z, r24
    13c6:	fe 01       	movw	r30, r28
    13c8:	e8 5a       	subi	r30, 0xA8	; 168
    13ca:	fc 4f       	sbci	r31, 0xFC	; 252
    13cc:	80 83       	st	Z, r24
    13ce:	fe 01       	movw	r30, r28
    13d0:	e7 5a       	subi	r30, 0xA7	; 167
    13d2:	fc 4f       	sbci	r31, 0xFC	; 252
    13d4:	80 83       	st	Z, r24
    13d6:	fe 01       	movw	r30, r28
    13d8:	e6 5a       	subi	r30, 0xA6	; 166
    13da:	fc 4f       	sbci	r31, 0xFC	; 252
    13dc:	80 83       	st	Z, r24
    13de:	fe 01       	movw	r30, r28
    13e0:	e4 5a       	subi	r30, 0xA4	; 164
    13e2:	fc 4f       	sbci	r31, 0xFC	; 252
    13e4:	80 83       	st	Z, r24
    13e6:	fe 01       	movw	r30, r28
    13e8:	e3 5a       	subi	r30, 0xA3	; 163
    13ea:	fc 4f       	sbci	r31, 0xFC	; 252
    13ec:	80 83       	st	Z, r24
    13ee:	fe 01       	movw	r30, r28
    13f0:	e2 5a       	subi	r30, 0xA2	; 162
    13f2:	fc 4f       	sbci	r31, 0xFC	; 252
    13f4:	80 83       	st	Z, r24
    13f6:	fe 01       	movw	r30, r28
    13f8:	e0 5a       	subi	r30, 0xA0	; 160
    13fa:	fc 4f       	sbci	r31, 0xFC	; 252
    13fc:	80 83       	st	Z, r24
    13fe:	fe 01       	movw	r30, r28
    1400:	ef 59       	subi	r30, 0x9F	; 159
    1402:	fc 4f       	sbci	r31, 0xFC	; 252
    1404:	80 83       	st	Z, r24
    1406:	fe 01       	movw	r30, r28
    1408:	ee 59       	subi	r30, 0x9E	; 158
    140a:	fc 4f       	sbci	r31, 0xFC	; 252
    140c:	80 83       	st	Z, r24
    140e:	fe 01       	movw	r30, r28
    1410:	ed 59       	subi	r30, 0x9D	; 157
    1412:	fc 4f       	sbci	r31, 0xFC	; 252
    1414:	80 83       	st	Z, r24
    1416:	fe 01       	movw	r30, r28
    1418:	ec 59       	subi	r30, 0x9C	; 156
    141a:	fc 4f       	sbci	r31, 0xFC	; 252
    141c:	80 83       	st	Z, r24
    141e:	fe 01       	movw	r30, r28
    1420:	eb 59       	subi	r30, 0x9B	; 155
    1422:	fc 4f       	sbci	r31, 0xFC	; 252
    1424:	80 83       	st	Z, r24
    1426:	fe 01       	movw	r30, r28
    1428:	ea 59       	subi	r30, 0x9A	; 154
    142a:	fc 4f       	sbci	r31, 0xFC	; 252
    142c:	80 83       	st	Z, r24
    142e:	fe 01       	movw	r30, r28
    1430:	e7 59       	subi	r30, 0x97	; 151
    1432:	fc 4f       	sbci	r31, 0xFC	; 252
    1434:	80 83       	st	Z, r24
    1436:	fe 01       	movw	r30, r28
    1438:	e6 59       	subi	r30, 0x96	; 150
    143a:	fc 4f       	sbci	r31, 0xFC	; 252
    143c:	80 83       	st	Z, r24
    143e:	fe 01       	movw	r30, r28
    1440:	e3 59       	subi	r30, 0x93	; 147
    1442:	fc 4f       	sbci	r31, 0xFC	; 252
    1444:	80 83       	st	Z, r24
    1446:	fe 01       	movw	r30, r28
    1448:	e1 59       	subi	r30, 0x91	; 145
    144a:	fc 4f       	sbci	r31, 0xFC	; 252
    144c:	80 83       	st	Z, r24
    144e:	fe 01       	movw	r30, r28
    1450:	ee 58       	subi	r30, 0x8E	; 142
    1452:	fc 4f       	sbci	r31, 0xFC	; 252
    1454:	80 83       	st	Z, r24
    1456:	fe 01       	movw	r30, r28
    1458:	ed 58       	subi	r30, 0x8D	; 141
    145a:	fc 4f       	sbci	r31, 0xFC	; 252
    145c:	80 83       	st	Z, r24
    145e:	fe 01       	movw	r30, r28
    1460:	ea 58       	subi	r30, 0x8A	; 138
    1462:	fc 4f       	sbci	r31, 0xFC	; 252
    1464:	80 83       	st	Z, r24
    1466:	fe 01       	movw	r30, r28
    1468:	e9 58       	subi	r30, 0x89	; 137
    146a:	fc 4f       	sbci	r31, 0xFC	; 252
    146c:	80 83       	st	Z, r24
    146e:	fe 01       	movw	r30, r28
    1470:	e8 58       	subi	r30, 0x88	; 136
    1472:	fc 4f       	sbci	r31, 0xFC	; 252
    1474:	80 83       	st	Z, r24
    1476:	fe 01       	movw	r30, r28
    1478:	e7 58       	subi	r30, 0x87	; 135
    147a:	fc 4f       	sbci	r31, 0xFC	; 252
    147c:	80 83       	st	Z, r24
    147e:	fe 01       	movw	r30, r28
    1480:	e6 58       	subi	r30, 0x86	; 134
    1482:	fc 4f       	sbci	r31, 0xFC	; 252
    1484:	80 83       	st	Z, r24
    1486:	fe 01       	movw	r30, r28
    1488:	e5 58       	subi	r30, 0x85	; 133
    148a:	fc 4f       	sbci	r31, 0xFC	; 252
    148c:	80 83       	st	Z, r24
    148e:	fe 01       	movw	r30, r28
    1490:	e4 58       	subi	r30, 0x84	; 132
    1492:	fc 4f       	sbci	r31, 0xFC	; 252
    1494:	80 83       	st	Z, r24
    1496:	fe 01       	movw	r30, r28
    1498:	e3 58       	subi	r30, 0x83	; 131
    149a:	fc 4f       	sbci	r31, 0xFC	; 252
    149c:	80 83       	st	Z, r24
    149e:	fe 01       	movw	r30, r28
    14a0:	e2 58       	subi	r30, 0x82	; 130
    14a2:	fc 4f       	sbci	r31, 0xFC	; 252
    14a4:	80 83       	st	Z, r24
    14a6:	fe 01       	movw	r30, r28
    14a8:	e1 58       	subi	r30, 0x81	; 129
    14aa:	fc 4f       	sbci	r31, 0xFC	; 252
    14ac:	80 83       	st	Z, r24
    14ae:	fe 01       	movw	r30, r28
    14b0:	e0 58       	subi	r30, 0x80	; 128
    14b2:	fc 4f       	sbci	r31, 0xFC	; 252
    14b4:	80 83       	st	Z, r24
    14b6:	fe 01       	movw	r30, r28
    14b8:	ef 57       	subi	r30, 0x7F	; 127
    14ba:	fc 4f       	sbci	r31, 0xFC	; 252
    14bc:	80 83       	st	Z, r24
    14be:	fe 01       	movw	r30, r28
    14c0:	ee 57       	subi	r30, 0x7E	; 126
    14c2:	fc 4f       	sbci	r31, 0xFC	; 252
    14c4:	80 83       	st	Z, r24
    14c6:	fe 01       	movw	r30, r28
    14c8:	ed 57       	subi	r30, 0x7D	; 125
    14ca:	fc 4f       	sbci	r31, 0xFC	; 252
    14cc:	80 83       	st	Z, r24
    14ce:	fe 01       	movw	r30, r28
    14d0:	ec 57       	subi	r30, 0x7C	; 124
    14d2:	fc 4f       	sbci	r31, 0xFC	; 252
    14d4:	80 83       	st	Z, r24
    14d6:	fe 01       	movw	r30, r28
    14d8:	eb 57       	subi	r30, 0x7B	; 123
    14da:	fc 4f       	sbci	r31, 0xFC	; 252
    14dc:	80 83       	st	Z, r24
    14de:	fe 01       	movw	r30, r28
    14e0:	e5 57       	subi	r30, 0x75	; 117
    14e2:	fc 4f       	sbci	r31, 0xFC	; 252
    14e4:	80 83       	st	Z, r24
    14e6:	fe 01       	movw	r30, r28
    14e8:	e4 57       	subi	r30, 0x74	; 116
    14ea:	fc 4f       	sbci	r31, 0xFC	; 252
    14ec:	80 83       	st	Z, r24
    14ee:	fe 01       	movw	r30, r28
    14f0:	e3 57       	subi	r30, 0x73	; 115
    14f2:	fc 4f       	sbci	r31, 0xFC	; 252
    14f4:	80 83       	st	Z, r24
    14f6:	fe 01       	movw	r30, r28
    14f8:	e2 57       	subi	r30, 0x72	; 114
    14fa:	fc 4f       	sbci	r31, 0xFC	; 252
    14fc:	80 83       	st	Z, r24
    14fe:	fe 01       	movw	r30, r28
    1500:	ed 56       	subi	r30, 0x6D	; 109
    1502:	fc 4f       	sbci	r31, 0xFC	; 252
    1504:	80 83       	st	Z, r24
    1506:	fe 01       	movw	r30, r28
    1508:	ec 56       	subi	r30, 0x6C	; 108
    150a:	fc 4f       	sbci	r31, 0xFC	; 252
    150c:	80 83       	st	Z, r24
    150e:	fe 01       	movw	r30, r28
    1510:	eb 56       	subi	r30, 0x6B	; 107
    1512:	fc 4f       	sbci	r31, 0xFC	; 252
    1514:	80 83       	st	Z, r24
    1516:	fe 01       	movw	r30, r28
    1518:	ea 56       	subi	r30, 0x6A	; 106
    151a:	fc 4f       	sbci	r31, 0xFC	; 252
    151c:	80 83       	st	Z, r24
    151e:	fe 01       	movw	r30, r28
    1520:	e9 56       	subi	r30, 0x69	; 105
    1522:	fc 4f       	sbci	r31, 0xFC	; 252
    1524:	80 83       	st	Z, r24
    1526:	fe 01       	movw	r30, r28
    1528:	e7 56       	subi	r30, 0x67	; 103
    152a:	fc 4f       	sbci	r31, 0xFC	; 252
    152c:	80 83       	st	Z, r24
    152e:	fe 01       	movw	r30, r28
    1530:	e6 56       	subi	r30, 0x66	; 102
    1532:	fc 4f       	sbci	r31, 0xFC	; 252
    1534:	80 83       	st	Z, r24
    1536:	fe 01       	movw	r30, r28
    1538:	e5 56       	subi	r30, 0x65	; 101
    153a:	fc 4f       	sbci	r31, 0xFC	; 252
    153c:	80 83       	st	Z, r24
    153e:	fe 01       	movw	r30, r28
    1540:	e4 56       	subi	r30, 0x64	; 100
    1542:	fc 4f       	sbci	r31, 0xFC	; 252
    1544:	80 83       	st	Z, r24
    1546:	fe 01       	movw	r30, r28
    1548:	e2 56       	subi	r30, 0x62	; 98
    154a:	fc 4f       	sbci	r31, 0xFC	; 252
    154c:	80 83       	st	Z, r24
    154e:	fe 01       	movw	r30, r28
    1550:	ee 55       	subi	r30, 0x5E	; 94
    1552:	fc 4f       	sbci	r31, 0xFC	; 252
    1554:	80 83       	st	Z, r24
    1556:	fe 01       	movw	r30, r28
    1558:	ed 55       	subi	r30, 0x5D	; 93
    155a:	fc 4f       	sbci	r31, 0xFC	; 252
    155c:	80 83       	st	Z, r24
    155e:	fe 01       	movw	r30, r28
    1560:	ec 55       	subi	r30, 0x5C	; 92
    1562:	fc 4f       	sbci	r31, 0xFC	; 252
    1564:	80 83       	st	Z, r24
    1566:	fe 01       	movw	r30, r28
    1568:	eb 55       	subi	r30, 0x5B	; 91
    156a:	fc 4f       	sbci	r31, 0xFC	; 252
    156c:	80 83       	st	Z, r24
    156e:	fe 01       	movw	r30, r28
    1570:	ea 55       	subi	r30, 0x5A	; 90
    1572:	fc 4f       	sbci	r31, 0xFC	; 252
    1574:	80 83       	st	Z, r24
    1576:	fe 01       	movw	r30, r28
    1578:	e9 55       	subi	r30, 0x59	; 89
    157a:	fc 4f       	sbci	r31, 0xFC	; 252
    157c:	80 83       	st	Z, r24
    157e:	fe 01       	movw	r30, r28
    1580:	e8 55       	subi	r30, 0x58	; 88
    1582:	fc 4f       	sbci	r31, 0xFC	; 252
    1584:	80 83       	st	Z, r24
    1586:	fe 01       	movw	r30, r28
    1588:	e7 55       	subi	r30, 0x57	; 87
    158a:	fc 4f       	sbci	r31, 0xFC	; 252
    158c:	80 83       	st	Z, r24
    158e:	fe 01       	movw	r30, r28
    1590:	e6 55       	subi	r30, 0x56	; 86
    1592:	fc 4f       	sbci	r31, 0xFC	; 252
    1594:	80 83       	st	Z, r24
    1596:	fe 01       	movw	r30, r28
    1598:	e5 55       	subi	r30, 0x55	; 85
    159a:	fc 4f       	sbci	r31, 0xFC	; 252
    159c:	80 83       	st	Z, r24
    159e:	fe 01       	movw	r30, r28
    15a0:	e4 55       	subi	r30, 0x54	; 84
    15a2:	fc 4f       	sbci	r31, 0xFC	; 252
    15a4:	80 83       	st	Z, r24
    15a6:	fe 01       	movw	r30, r28
    15a8:	e3 55       	subi	r30, 0x53	; 83
    15aa:	fc 4f       	sbci	r31, 0xFC	; 252
    15ac:	80 83       	st	Z, r24
    15ae:	fe 01       	movw	r30, r28
    15b0:	e2 55       	subi	r30, 0x52	; 82
    15b2:	fc 4f       	sbci	r31, 0xFC	; 252
    15b4:	80 83       	st	Z, r24
    15b6:	fe 01       	movw	r30, r28
    15b8:	e1 55       	subi	r30, 0x51	; 81
    15ba:	fc 4f       	sbci	r31, 0xFC	; 252
    15bc:	80 83       	st	Z, r24
    15be:	fe 01       	movw	r30, r28
    15c0:	e0 55       	subi	r30, 0x50	; 80
    15c2:	fc 4f       	sbci	r31, 0xFC	; 252
    15c4:	80 83       	st	Z, r24
    15c6:	fe 01       	movw	r30, r28
    15c8:	ef 54       	subi	r30, 0x4F	; 79
    15ca:	fc 4f       	sbci	r31, 0xFC	; 252
    15cc:	80 83       	st	Z, r24
    15ce:	fe 01       	movw	r30, r28
    15d0:	ed 54       	subi	r30, 0x4D	; 77
    15d2:	fc 4f       	sbci	r31, 0xFC	; 252
    15d4:	80 83       	st	Z, r24
    15d6:	fe 01       	movw	r30, r28
    15d8:	ec 54       	subi	r30, 0x4C	; 76
    15da:	fc 4f       	sbci	r31, 0xFC	; 252
    15dc:	80 83       	st	Z, r24
    15de:	fe 01       	movw	r30, r28
    15e0:	eb 54       	subi	r30, 0x4B	; 75
    15e2:	fc 4f       	sbci	r31, 0xFC	; 252
    15e4:	80 83       	st	Z, r24
    15e6:	fe 01       	movw	r30, r28
    15e8:	e8 54       	subi	r30, 0x48	; 72
    15ea:	fc 4f       	sbci	r31, 0xFC	; 252
    15ec:	80 83       	st	Z, r24
    15ee:	fe 01       	movw	r30, r28
    15f0:	e7 54       	subi	r30, 0x47	; 71
    15f2:	fc 4f       	sbci	r31, 0xFC	; 252
    15f4:	80 83       	st	Z, r24
    15f6:	fe 01       	movw	r30, r28
    15f8:	e5 54       	subi	r30, 0x45	; 69
    15fa:	fc 4f       	sbci	r31, 0xFC	; 252
    15fc:	80 83       	st	Z, r24
    15fe:	fe 01       	movw	r30, r28
    1600:	e2 54       	subi	r30, 0x42	; 66
    1602:	fc 4f       	sbci	r31, 0xFC	; 252
    1604:	80 83       	st	Z, r24
    1606:	fe 01       	movw	r30, r28
    1608:	e1 54       	subi	r30, 0x41	; 65
    160a:	fc 4f       	sbci	r31, 0xFC	; 252
    160c:	80 83       	st	Z, r24
    160e:	fe 01       	movw	r30, r28
    1610:	e0 54       	subi	r30, 0x40	; 64
    1612:	fc 4f       	sbci	r31, 0xFC	; 252
    1614:	80 83       	st	Z, r24
    1616:	fe 01       	movw	r30, r28
    1618:	ed 53       	subi	r30, 0x3D	; 61
    161a:	fc 4f       	sbci	r31, 0xFC	; 252
    161c:	80 83       	st	Z, r24
    161e:	fe 01       	movw	r30, r28
    1620:	ec 53       	subi	r30, 0x3C	; 60
    1622:	fc 4f       	sbci	r31, 0xFC	; 252
    1624:	80 83       	st	Z, r24
    1626:	fe 01       	movw	r30, r28
    1628:	eb 53       	subi	r30, 0x3B	; 59
    162a:	fc 4f       	sbci	r31, 0xFC	; 252
    162c:	80 83       	st	Z, r24
    162e:	fe 01       	movw	r30, r28
    1630:	e9 53       	subi	r30, 0x39	; 57
    1632:	fc 4f       	sbci	r31, 0xFC	; 252
    1634:	80 83       	st	Z, r24
    1636:	fe 01       	movw	r30, r28
    1638:	e8 53       	subi	r30, 0x38	; 56
    163a:	fc 4f       	sbci	r31, 0xFC	; 252
    163c:	80 83       	st	Z, r24
    163e:	fe 01       	movw	r30, r28
    1640:	e6 53       	subi	r30, 0x36	; 54
    1642:	fc 4f       	sbci	r31, 0xFC	; 252
    1644:	80 83       	st	Z, r24
    1646:	fe 01       	movw	r30, r28
    1648:	e4 53       	subi	r30, 0x34	; 52
    164a:	fc 4f       	sbci	r31, 0xFC	; 252
    164c:	80 83       	st	Z, r24
    164e:	fe 01       	movw	r30, r28
    1650:	e3 53       	subi	r30, 0x33	; 51
    1652:	fc 4f       	sbci	r31, 0xFC	; 252
    1654:	80 83       	st	Z, r24
    1656:	fe 01       	movw	r30, r28
    1658:	e2 53       	subi	r30, 0x32	; 50
    165a:	fc 4f       	sbci	r31, 0xFC	; 252
    165c:	80 83       	st	Z, r24
    165e:	fe 01       	movw	r30, r28
    1660:	e0 53       	subi	r30, 0x30	; 48
    1662:	fc 4f       	sbci	r31, 0xFC	; 252
    1664:	80 83       	st	Z, r24
    1666:	fe 01       	movw	r30, r28
    1668:	ef 52       	subi	r30, 0x2F	; 47
    166a:	fc 4f       	sbci	r31, 0xFC	; 252
    166c:	80 83       	st	Z, r24
    166e:	fe 01       	movw	r30, r28
    1670:	ee 52       	subi	r30, 0x2E	; 46
    1672:	fc 4f       	sbci	r31, 0xFC	; 252
    1674:	80 83       	st	Z, r24
    1676:	fe 01       	movw	r30, r28
    1678:	ed 52       	subi	r30, 0x2D	; 45
    167a:	fc 4f       	sbci	r31, 0xFC	; 252
    167c:	80 83       	st	Z, r24
    167e:	fe 01       	movw	r30, r28
    1680:	ec 52       	subi	r30, 0x2C	; 44
    1682:	fc 4f       	sbci	r31, 0xFC	; 252
    1684:	80 83       	st	Z, r24
    1686:	fe 01       	movw	r30, r28
    1688:	eb 52       	subi	r30, 0x2B	; 43
    168a:	fc 4f       	sbci	r31, 0xFC	; 252
    168c:	80 83       	st	Z, r24
    168e:	fe 01       	movw	r30, r28
    1690:	ea 52       	subi	r30, 0x2A	; 42
    1692:	fc 4f       	sbci	r31, 0xFC	; 252
    1694:	80 83       	st	Z, r24
    1696:	fe 01       	movw	r30, r28
    1698:	e9 52       	subi	r30, 0x29	; 41
    169a:	fc 4f       	sbci	r31, 0xFC	; 252
    169c:	80 83       	st	Z, r24
    169e:	fe 01       	movw	r30, r28
    16a0:	e8 52       	subi	r30, 0x28	; 40
    16a2:	fc 4f       	sbci	r31, 0xFC	; 252
    16a4:	80 83       	st	Z, r24
    16a6:	fe 01       	movw	r30, r28
    16a8:	e7 52       	subi	r30, 0x27	; 39
    16aa:	fc 4f       	sbci	r31, 0xFC	; 252
    16ac:	80 83       	st	Z, r24
    16ae:	fe 01       	movw	r30, r28
    16b0:	e6 52       	subi	r30, 0x26	; 38
    16b2:	fc 4f       	sbci	r31, 0xFC	; 252
    16b4:	80 83       	st	Z, r24
    16b6:	fe 01       	movw	r30, r28
    16b8:	e5 52       	subi	r30, 0x25	; 37
    16ba:	fc 4f       	sbci	r31, 0xFC	; 252
    16bc:	80 83       	st	Z, r24
    16be:	fe 01       	movw	r30, r28
    16c0:	e4 52       	subi	r30, 0x24	; 36
    16c2:	fc 4f       	sbci	r31, 0xFC	; 252
    16c4:	80 83       	st	Z, r24
    16c6:	fe 01       	movw	r30, r28
    16c8:	e3 52       	subi	r30, 0x23	; 35
    16ca:	fc 4f       	sbci	r31, 0xFC	; 252
    16cc:	80 83       	st	Z, r24
    16ce:	fe 01       	movw	r30, r28
    16d0:	e2 52       	subi	r30, 0x22	; 34
    16d2:	fc 4f       	sbci	r31, 0xFC	; 252
    16d4:	80 83       	st	Z, r24
    16d6:	fe 01       	movw	r30, r28
    16d8:	e1 52       	subi	r30, 0x21	; 33
    16da:	fc 4f       	sbci	r31, 0xFC	; 252
    16dc:	80 83       	st	Z, r24
    16de:	fe 01       	movw	r30, r28
    16e0:	ed 51       	subi	r30, 0x1D	; 29
    16e2:	fc 4f       	sbci	r31, 0xFC	; 252
    16e4:	80 83       	st	Z, r24
    16e6:	fe 01       	movw	r30, r28
    16e8:	eb 51       	subi	r30, 0x1B	; 27
    16ea:	fc 4f       	sbci	r31, 0xFC	; 252
    16ec:	80 83       	st	Z, r24
    16ee:	fe 01       	movw	r30, r28
    16f0:	ea 51       	subi	r30, 0x1A	; 26
    16f2:	fc 4f       	sbci	r31, 0xFC	; 252
    16f4:	80 83       	st	Z, r24
    16f6:	fe 01       	movw	r30, r28
    16f8:	e9 51       	subi	r30, 0x19	; 25
    16fa:	fc 4f       	sbci	r31, 0xFC	; 252
    16fc:	80 83       	st	Z, r24
    16fe:	fe 01       	movw	r30, r28
    1700:	e6 51       	subi	r30, 0x16	; 22
    1702:	fc 4f       	sbci	r31, 0xFC	; 252
    1704:	80 83       	st	Z, r24
    1706:	fe 01       	movw	r30, r28
    1708:	e5 51       	subi	r30, 0x15	; 21
    170a:	fc 4f       	sbci	r31, 0xFC	; 252
    170c:	80 83       	st	Z, r24
    170e:	fe 01       	movw	r30, r28
    1710:	e4 51       	subi	r30, 0x14	; 20
    1712:	fc 4f       	sbci	r31, 0xFC	; 252
    1714:	80 83       	st	Z, r24
    1716:	fe 01       	movw	r30, r28
    1718:	ec 50       	subi	r30, 0x0C	; 12
    171a:	fc 4f       	sbci	r31, 0xFC	; 252
    171c:	80 83       	st	Z, r24
    171e:	fe 01       	movw	r30, r28
    1720:	eb 50       	subi	r30, 0x0B	; 11
    1722:	fc 4f       	sbci	r31, 0xFC	; 252
    1724:	80 83       	st	Z, r24
    1726:	fe 01       	movw	r30, r28
    1728:	ea 50       	subi	r30, 0x0A	; 10
    172a:	fc 4f       	sbci	r31, 0xFC	; 252
    172c:	80 83       	st	Z, r24
    172e:	fe 01       	movw	r30, r28
    1730:	e7 50       	subi	r30, 0x07	; 7
    1732:	fc 4f       	sbci	r31, 0xFC	; 252
    1734:	80 83       	st	Z, r24
    1736:	fe 01       	movw	r30, r28
    1738:	e6 50       	subi	r30, 0x06	; 6
    173a:	fc 4f       	sbci	r31, 0xFC	; 252
    173c:	80 83       	st	Z, r24
    173e:	fe 01       	movw	r30, r28
    1740:	e5 50       	subi	r30, 0x05	; 5
    1742:	fc 4f       	sbci	r31, 0xFC	; 252
    1744:	80 83       	st	Z, r24
    1746:	fe 01       	movw	r30, r28
    1748:	e3 50       	subi	r30, 0x03	; 3
    174a:	fc 4f       	sbci	r31, 0xFC	; 252
    174c:	80 83       	st	Z, r24
    174e:	fe 01       	movw	r30, r28
    1750:	e2 50       	subi	r30, 0x02	; 2
    1752:	fc 4f       	sbci	r31, 0xFC	; 252
    1754:	80 83       	st	Z, r24
    1756:	fe 01       	movw	r30, r28
    1758:	e1 50       	subi	r30, 0x01	; 1
    175a:	fc 4f       	sbci	r31, 0xFC	; 252
    175c:	80 83       	st	Z, r24
    175e:	fe 01       	movw	r30, r28
    1760:	e0 50       	subi	r30, 0x00	; 0
    1762:	fc 4f       	sbci	r31, 0xFC	; 252
    1764:	80 83       	st	Z, r24
    1766:	fe 01       	movw	r30, r28
    1768:	ef 5f       	subi	r30, 0xFF	; 255
    176a:	fb 4f       	sbci	r31, 0xFB	; 251
    176c:	80 83       	st	Z, r24
    176e:	fe 01       	movw	r30, r28
    1770:	ee 5f       	subi	r30, 0xFE	; 254
    1772:	fb 4f       	sbci	r31, 0xFB	; 251
    1774:	80 83       	st	Z, r24
    1776:	fe 01       	movw	r30, r28
    1778:	ed 5f       	subi	r30, 0xFD	; 253
    177a:	fb 4f       	sbci	r31, 0xFB	; 251
    177c:	80 83       	st	Z, r24
    177e:	fe 01       	movw	r30, r28
    1780:	ec 5f       	subi	r30, 0xFC	; 252
    1782:	fb 4f       	sbci	r31, 0xFB	; 251
    1784:	80 83       	st	Z, r24
    1786:	fe 01       	movw	r30, r28
    1788:	eb 5f       	subi	r30, 0xFB	; 251
    178a:	fb 4f       	sbci	r31, 0xFB	; 251
    178c:	80 83       	st	Z, r24
    178e:	fe 01       	movw	r30, r28
    1790:	ea 5f       	subi	r30, 0xFA	; 250
    1792:	fb 4f       	sbci	r31, 0xFB	; 251
    1794:	80 83       	st	Z, r24
    1796:	fe 01       	movw	r30, r28
    1798:	e9 5f       	subi	r30, 0xF9	; 249
    179a:	fb 4f       	sbci	r31, 0xFB	; 251
    179c:	80 83       	st	Z, r24
    179e:	fe 01       	movw	r30, r28
    17a0:	e8 5f       	subi	r30, 0xF8	; 248
    17a2:	fb 4f       	sbci	r31, 0xFB	; 251
    17a4:	80 83       	st	Z, r24
    17a6:	fe 01       	movw	r30, r28
    17a8:	e7 5f       	subi	r30, 0xF7	; 247
    17aa:	fb 4f       	sbci	r31, 0xFB	; 251
    17ac:	80 83       	st	Z, r24
    17ae:	fe 01       	movw	r30, r28
    17b0:	e6 5f       	subi	r30, 0xF6	; 246
    17b2:	fb 4f       	sbci	r31, 0xFB	; 251
    17b4:	80 83       	st	Z, r24
    17b6:	fe 01       	movw	r30, r28
    17b8:	e5 5f       	subi	r30, 0xF5	; 245
    17ba:	fb 4f       	sbci	r31, 0xFB	; 251
    17bc:	80 83       	st	Z, r24
    17be:	fe 01       	movw	r30, r28
    17c0:	e4 5f       	subi	r30, 0xF4	; 244
    17c2:	fb 4f       	sbci	r31, 0xFB	; 251
    17c4:	80 83       	st	Z, r24
    17c6:	fe 01       	movw	r30, r28
    17c8:	e3 5f       	subi	r30, 0xF3	; 243
    17ca:	fb 4f       	sbci	r31, 0xFB	; 251
    17cc:	80 83       	st	Z, r24
    17ce:	fe 01       	movw	r30, r28
    17d0:	e2 5f       	subi	r30, 0xF2	; 242
    17d2:	fb 4f       	sbci	r31, 0xFB	; 251
    17d4:	80 83       	st	Z, r24
    17d6:	fe 01       	movw	r30, r28
    17d8:	e1 5f       	subi	r30, 0xF1	; 241
    17da:	fb 4f       	sbci	r31, 0xFB	; 251
    17dc:	80 83       	st	Z, r24
    17de:	fe 01       	movw	r30, r28
    17e0:	e0 5f       	subi	r30, 0xF0	; 240
    17e2:	fb 4f       	sbci	r31, 0xFB	; 251
    17e4:	80 83       	st	Z, r24
    17e6:	fe 01       	movw	r30, r28
    17e8:	ef 5e       	subi	r30, 0xEF	; 239
    17ea:	fb 4f       	sbci	r31, 0xFB	; 251
    17ec:	80 83       	st	Z, r24
    17ee:	fe 01       	movw	r30, r28
    17f0:	ee 5e       	subi	r30, 0xEE	; 238
    17f2:	fb 4f       	sbci	r31, 0xFB	; 251
    17f4:	80 83       	st	Z, r24
    17f6:	fe 01       	movw	r30, r28
    17f8:	ed 5e       	subi	r30, 0xED	; 237
    17fa:	fb 4f       	sbci	r31, 0xFB	; 251
    17fc:	80 83       	st	Z, r24
    17fe:	fe 01       	movw	r30, r28
    1800:	ec 5e       	subi	r30, 0xEC	; 236
    1802:	fb 4f       	sbci	r31, 0xFB	; 251
    1804:	80 83       	st	Z, r24
    1806:	fe 01       	movw	r30, r28
    1808:	eb 5e       	subi	r30, 0xEB	; 235
    180a:	fb 4f       	sbci	r31, 0xFB	; 251
    180c:	80 83       	st	Z, r24
    180e:	fe 01       	movw	r30, r28
    1810:	ea 5e       	subi	r30, 0xEA	; 234
    1812:	fb 4f       	sbci	r31, 0xFB	; 251
    1814:	80 83       	st	Z, r24
    1816:	fe 01       	movw	r30, r28
    1818:	e9 5e       	subi	r30, 0xE9	; 233
    181a:	fb 4f       	sbci	r31, 0xFB	; 251
    181c:	80 83       	st	Z, r24
    181e:	fe 01       	movw	r30, r28
    1820:	e8 5e       	subi	r30, 0xE8	; 232
    1822:	fb 4f       	sbci	r31, 0xFB	; 251
    1824:	80 83       	st	Z, r24
    1826:	fe 01       	movw	r30, r28
    1828:	e7 5e       	subi	r30, 0xE7	; 231
    182a:	fb 4f       	sbci	r31, 0xFB	; 251
    182c:	80 83       	st	Z, r24
    182e:	fe 01       	movw	r30, r28
    1830:	e6 5e       	subi	r30, 0xE6	; 230
    1832:	fb 4f       	sbci	r31, 0xFB	; 251
    1834:	80 83       	st	Z, r24
    1836:	fe 01       	movw	r30, r28
    1838:	e5 5e       	subi	r30, 0xE5	; 229
    183a:	fb 4f       	sbci	r31, 0xFB	; 251
    183c:	80 83       	st	Z, r24
    183e:	fe 01       	movw	r30, r28
    1840:	e4 5e       	subi	r30, 0xE4	; 228
    1842:	fb 4f       	sbci	r31, 0xFB	; 251
    1844:	80 83       	st	Z, r24
    1846:	fe 01       	movw	r30, r28
    1848:	e3 5e       	subi	r30, 0xE3	; 227
    184a:	fb 4f       	sbci	r31, 0xFB	; 251
    184c:	80 83       	st	Z, r24
    184e:	fe 01       	movw	r30, r28
    1850:	e2 5e       	subi	r30, 0xE2	; 226
    1852:	fb 4f       	sbci	r31, 0xFB	; 251
    1854:	80 83       	st	Z, r24
    1856:	fe 01       	movw	r30, r28
    1858:	e1 5e       	subi	r30, 0xE1	; 225
    185a:	fb 4f       	sbci	r31, 0xFB	; 251
    185c:	80 83       	st	Z, r24
    185e:	fe 01       	movw	r30, r28
    1860:	e0 5e       	subi	r30, 0xE0	; 224
    1862:	fb 4f       	sbci	r31, 0xFB	; 251
    1864:	80 83       	st	Z, r24
    1866:	fe 01       	movw	r30, r28
    1868:	ef 5d       	subi	r30, 0xDF	; 223
    186a:	fb 4f       	sbci	r31, 0xFB	; 251
    186c:	80 83       	st	Z, r24
    186e:	fe 01       	movw	r30, r28
    1870:	ee 5d       	subi	r30, 0xDE	; 222
    1872:	fb 4f       	sbci	r31, 0xFB	; 251
    1874:	80 83       	st	Z, r24
    1876:	fe 01       	movw	r30, r28
    1878:	ed 5d       	subi	r30, 0xDD	; 221
    187a:	fb 4f       	sbci	r31, 0xFB	; 251
    187c:	80 83       	st	Z, r24
    187e:	fe 01       	movw	r30, r28
    1880:	ec 5d       	subi	r30, 0xDC	; 220
    1882:	fb 4f       	sbci	r31, 0xFB	; 251
    1884:	80 83       	st	Z, r24
    1886:	fe 01       	movw	r30, r28
    1888:	eb 5d       	subi	r30, 0xDB	; 219
    188a:	fb 4f       	sbci	r31, 0xFB	; 251
    188c:	80 83       	st	Z, r24
    188e:	fe 01       	movw	r30, r28
    1890:	ea 5d       	subi	r30, 0xDA	; 218
    1892:	fb 4f       	sbci	r31, 0xFB	; 251
    1894:	80 83       	st	Z, r24
    1896:	fe 01       	movw	r30, r28
    1898:	e9 5d       	subi	r30, 0xD9	; 217
    189a:	fb 4f       	sbci	r31, 0xFB	; 251
    189c:	80 83       	st	Z, r24
    189e:	fe 01       	movw	r30, r28
    18a0:	e8 5d       	subi	r30, 0xD8	; 216
    18a2:	fb 4f       	sbci	r31, 0xFB	; 251
    18a4:	80 83       	st	Z, r24
    18a6:	fe 01       	movw	r30, r28
    18a8:	e7 5d       	subi	r30, 0xD7	; 215
    18aa:	fb 4f       	sbci	r31, 0xFB	; 251
    18ac:	80 83       	st	Z, r24
    18ae:	fe 01       	movw	r30, r28
    18b0:	e6 5d       	subi	r30, 0xD6	; 214
    18b2:	fb 4f       	sbci	r31, 0xFB	; 251
    18b4:	80 83       	st	Z, r24
    18b6:	fe 01       	movw	r30, r28
    18b8:	e5 5d       	subi	r30, 0xD5	; 213
    18ba:	fb 4f       	sbci	r31, 0xFB	; 251
    18bc:	80 83       	st	Z, r24
    18be:	fe 01       	movw	r30, r28
    18c0:	e4 5d       	subi	r30, 0xD4	; 212
    18c2:	fb 4f       	sbci	r31, 0xFB	; 251
    18c4:	80 83       	st	Z, r24
    18c6:	fe 01       	movw	r30, r28
    18c8:	e3 5d       	subi	r30, 0xD3	; 211
    18ca:	fb 4f       	sbci	r31, 0xFB	; 251
    18cc:	80 83       	st	Z, r24
    18ce:	fe 01       	movw	r30, r28
    18d0:	e2 5d       	subi	r30, 0xD2	; 210
    18d2:	fb 4f       	sbci	r31, 0xFB	; 251
    18d4:	80 83       	st	Z, r24
    18d6:	fe 01       	movw	r30, r28
    18d8:	e1 5d       	subi	r30, 0xD1	; 209
    18da:	fb 4f       	sbci	r31, 0xFB	; 251
    18dc:	80 83       	st	Z, r24
    18de:	fe 01       	movw	r30, r28
    18e0:	e0 5d       	subi	r30, 0xD0	; 208
    18e2:	fb 4f       	sbci	r31, 0xFB	; 251
    18e4:	80 83       	st	Z, r24
    18e6:	fe 01       	movw	r30, r28
    18e8:	ef 5c       	subi	r30, 0xCF	; 207
    18ea:	fb 4f       	sbci	r31, 0xFB	; 251
    18ec:	80 83       	st	Z, r24
    18ee:	fe 01       	movw	r30, r28
    18f0:	ee 5c       	subi	r30, 0xCE	; 206
    18f2:	fb 4f       	sbci	r31, 0xFB	; 251
    18f4:	80 83       	st	Z, r24
    18f6:	fe 01       	movw	r30, r28
    18f8:	ed 5c       	subi	r30, 0xCD	; 205
    18fa:	fb 4f       	sbci	r31, 0xFB	; 251
    18fc:	80 83       	st	Z, r24
    18fe:	fe 01       	movw	r30, r28
    1900:	ec 5c       	subi	r30, 0xCC	; 204
    1902:	fb 4f       	sbci	r31, 0xFB	; 251
    1904:	80 83       	st	Z, r24
    1906:	fe 01       	movw	r30, r28
    1908:	eb 5c       	subi	r30, 0xCB	; 203
    190a:	fb 4f       	sbci	r31, 0xFB	; 251
    190c:	80 83       	st	Z, r24
    190e:	fe 01       	movw	r30, r28
    1910:	ea 5c       	subi	r30, 0xCA	; 202
    1912:	fb 4f       	sbci	r31, 0xFB	; 251
    1914:	80 83       	st	Z, r24
    1916:	fe 01       	movw	r30, r28
    1918:	e9 5c       	subi	r30, 0xC9	; 201
    191a:	fb 4f       	sbci	r31, 0xFB	; 251
    191c:	80 83       	st	Z, r24
    191e:	fe 01       	movw	r30, r28
    1920:	e8 5c       	subi	r30, 0xC8	; 200
    1922:	fb 4f       	sbci	r31, 0xFB	; 251
    1924:	80 83       	st	Z, r24
    1926:	44 24       	eor	r4, r4
    1928:	55 24       	eor	r5, r5
    192a:	98 ec       	ldi	r25, 0xC8	; 200
    192c:	89 2e       	mov	r8, r25
    192e:	91 2c       	mov	r9, r1
    1930:	1e 01       	movw	r2, r28
    1932:	08 94       	sec
    1934:	21 1c       	adc	r2, r1
    1936:	31 1c       	adc	r3, r1
    1938:	81 e0       	ldi	r24, 0x01	; 1
    193a:	68 2e       	mov	r6, r24
    193c:	71 2c       	mov	r7, r1
    193e:	72 01       	movw	r14, r4
    1940:	00 e0       	ldi	r16, 0x00	; 0
    1942:	10 e0       	ldi	r17, 0x00	; 0
    1944:	c7 01       	movw	r24, r14
    1946:	62 e9       	ldi	r22, 0x92	; 146
    1948:	74 e0       	ldi	r23, 0x04	; 4
    194a:	0e 94 a8 13 	call	0x2750	; 0x2750 <__divmodhi4>
    194e:	f1 01       	movw	r30, r2
    1950:	e8 0f       	add	r30, r24
    1952:	f9 1f       	adc	r31, r25
    1954:	80 81       	ld	r24, Z
    1956:	88 23       	and	r24, r24
    1958:	59 f0       	breq	.+22     	; 0x1970 <__stack+0x1111>
    195a:	2b b3       	in	r18, 0x1b	; 27
    195c:	c3 01       	movw	r24, r6
    195e:	00 2e       	mov	r0, r16
    1960:	02 c0       	rjmp	.+4      	; 0x1966 <__stack+0x1107>
    1962:	88 0f       	add	r24, r24
    1964:	99 1f       	adc	r25, r25
    1966:	0a 94       	dec	r0
    1968:	e2 f7       	brpl	.-8      	; 0x1962 <__stack+0x1103>
    196a:	28 2b       	or	r18, r24
    196c:	2b bb       	out	0x1b, r18	; 27
    196e:	0b c0       	rjmp	.+22     	; 0x1986 <__stack+0x1127>
    1970:	2b b3       	in	r18, 0x1b	; 27
    1972:	c3 01       	movw	r24, r6
    1974:	00 2e       	mov	r0, r16
    1976:	02 c0       	rjmp	.+4      	; 0x197c <__stack+0x111d>
    1978:	88 0f       	add	r24, r24
    197a:	99 1f       	adc	r25, r25
    197c:	0a 94       	dec	r0
    197e:	e2 f7       	brpl	.-8      	; 0x1978 <__stack+0x1119>
    1980:	80 95       	com	r24
    1982:	82 23       	and	r24, r18
    1984:	8b bb       	out	0x1b, r24	; 27
    1986:	c7 01       	movw	r24, r14
    1988:	08 96       	adiw	r24, 0x08	; 8
    198a:	62 e9       	ldi	r22, 0x92	; 146
    198c:	74 e0       	ldi	r23, 0x04	; 4
    198e:	0e 94 a8 13 	call	0x2750	; 0x2750 <__divmodhi4>
    1992:	f1 01       	movw	r30, r2
    1994:	e8 0f       	add	r30, r24
    1996:	f9 1f       	adc	r31, r25
    1998:	80 81       	ld	r24, Z
    199a:	88 23       	and	r24, r24
    199c:	59 f0       	breq	.+22     	; 0x19b4 <__stack+0x1155>
    199e:	28 b3       	in	r18, 0x18	; 24
    19a0:	c3 01       	movw	r24, r6
    19a2:	00 2e       	mov	r0, r16
    19a4:	02 c0       	rjmp	.+4      	; 0x19aa <__stack+0x114b>
    19a6:	88 0f       	add	r24, r24
    19a8:	99 1f       	adc	r25, r25
    19aa:	0a 94       	dec	r0
    19ac:	e2 f7       	brpl	.-8      	; 0x19a6 <__stack+0x1147>
    19ae:	28 2b       	or	r18, r24
    19b0:	28 bb       	out	0x18, r18	; 24
    19b2:	0b c0       	rjmp	.+22     	; 0x19ca <__stack+0x116b>
    19b4:	28 b3       	in	r18, 0x18	; 24
    19b6:	c3 01       	movw	r24, r6
    19b8:	00 2e       	mov	r0, r16
    19ba:	02 c0       	rjmp	.+4      	; 0x19c0 <__stack+0x1161>
    19bc:	88 0f       	add	r24, r24
    19be:	99 1f       	adc	r25, r25
    19c0:	0a 94       	dec	r0
    19c2:	e2 f7       	brpl	.-8      	; 0x19bc <__stack+0x115d>
    19c4:	80 95       	com	r24
    19c6:	82 23       	and	r24, r18
    19c8:	88 bb       	out	0x18, r24	; 24
    19ca:	c7 01       	movw	r24, r14
    19cc:	40 96       	adiw	r24, 0x10	; 16
    19ce:	62 e9       	ldi	r22, 0x92	; 146
    19d0:	74 e0       	ldi	r23, 0x04	; 4
    19d2:	0e 94 a8 13 	call	0x2750	; 0x2750 <__divmodhi4>
    19d6:	f1 01       	movw	r30, r2
    19d8:	e8 0f       	add	r30, r24
    19da:	f9 1f       	adc	r31, r25
    19dc:	80 81       	ld	r24, Z
    19de:	88 23       	and	r24, r24
    19e0:	59 f0       	breq	.+22     	; 0x19f8 <__stack+0x1199>
    19e2:	25 b3       	in	r18, 0x15	; 21
    19e4:	c3 01       	movw	r24, r6
    19e6:	00 2e       	mov	r0, r16
    19e8:	02 c0       	rjmp	.+4      	; 0x19ee <__stack+0x118f>
    19ea:	88 0f       	add	r24, r24
    19ec:	99 1f       	adc	r25, r25
    19ee:	0a 94       	dec	r0
    19f0:	e2 f7       	brpl	.-8      	; 0x19ea <__stack+0x118b>
    19f2:	28 2b       	or	r18, r24
    19f4:	25 bb       	out	0x15, r18	; 21
    19f6:	0b c0       	rjmp	.+22     	; 0x1a0e <__stack+0x11af>
    19f8:	25 b3       	in	r18, 0x15	; 21
    19fa:	c3 01       	movw	r24, r6
    19fc:	00 2e       	mov	r0, r16
    19fe:	02 c0       	rjmp	.+4      	; 0x1a04 <__stack+0x11a5>
    1a00:	88 0f       	add	r24, r24
    1a02:	99 1f       	adc	r25, r25
    1a04:	0a 94       	dec	r0
    1a06:	e2 f7       	brpl	.-8      	; 0x1a00 <__stack+0x11a1>
    1a08:	80 95       	com	r24
    1a0a:	82 23       	and	r24, r18
    1a0c:	85 bb       	out	0x15, r24	; 21
    1a0e:	06 30       	cpi	r16, 0x06	; 6
    1a10:	11 05       	cpc	r17, r1
    1a12:	14 f5       	brge	.+68     	; 0x1a58 <__stack+0x11f9>
    1a14:	c7 01       	movw	r24, r14
    1a16:	48 96       	adiw	r24, 0x18	; 24
    1a18:	62 e9       	ldi	r22, 0x92	; 146
    1a1a:	74 e0       	ldi	r23, 0x04	; 4
    1a1c:	0e 94 a8 13 	call	0x2750	; 0x2750 <__divmodhi4>
    1a20:	f1 01       	movw	r30, r2
    1a22:	e8 0f       	add	r30, r24
    1a24:	f9 1f       	adc	r31, r25
    1a26:	80 81       	ld	r24, Z
    1a28:	88 23       	and	r24, r24
    1a2a:	59 f0       	breq	.+22     	; 0x1a42 <__stack+0x11e3>
    1a2c:	22 b3       	in	r18, 0x12	; 18
    1a2e:	c3 01       	movw	r24, r6
    1a30:	00 2e       	mov	r0, r16
    1a32:	02 c0       	rjmp	.+4      	; 0x1a38 <__stack+0x11d9>
    1a34:	88 0f       	add	r24, r24
    1a36:	99 1f       	adc	r25, r25
    1a38:	0a 94       	dec	r0
    1a3a:	e2 f7       	brpl	.-8      	; 0x1a34 <__stack+0x11d5>
    1a3c:	28 2b       	or	r18, r24
    1a3e:	22 bb       	out	0x12, r18	; 18
    1a40:	0b c0       	rjmp	.+22     	; 0x1a58 <__stack+0x11f9>
    1a42:	22 b3       	in	r18, 0x12	; 18
    1a44:	c3 01       	movw	r24, r6
    1a46:	00 2e       	mov	r0, r16
    1a48:	02 c0       	rjmp	.+4      	; 0x1a4e <__stack+0x11ef>
    1a4a:	88 0f       	add	r24, r24
    1a4c:	99 1f       	adc	r25, r25
    1a4e:	0a 94       	dec	r0
    1a50:	e2 f7       	brpl	.-8      	; 0x1a4a <__stack+0x11eb>
    1a52:	80 95       	com	r24
    1a54:	82 23       	and	r24, r18
    1a56:	82 bb       	out	0x12, r24	; 18
    1a58:	0f 5f       	subi	r16, 0xFF	; 255
    1a5a:	1f 4f       	sbci	r17, 0xFF	; 255
    1a5c:	08 94       	sec
    1a5e:	e1 1c       	adc	r14, r1
    1a60:	f1 1c       	adc	r15, r1
    1a62:	08 30       	cpi	r16, 0x08	; 8
    1a64:	11 05       	cpc	r17, r1
    1a66:	09 f0       	breq	.+2      	; 0x1a6a <__stack+0x120b>
    1a68:	6d cf       	rjmp	.-294    	; 0x1944 <__stack+0x10e5>
    1a6a:	c2 01       	movw	r24, r4
    1a6c:	05 96       	adiw	r24, 0x05	; 5
    1a6e:	62 e9       	ldi	r22, 0x92	; 146
    1a70:	74 e0       	ldi	r23, 0x04	; 4
    1a72:	0e 94 a8 13 	call	0x2750	; 0x2750 <__divmodhi4>
    1a76:	2c 01       	movw	r4, r24
    1a78:	80 e4       	ldi	r24, 0x40	; 64
    1a7a:	0e 94 41 00 	call	0x82	; 0x82 <klawisz_wcisniety>
    1a7e:	88 23       	and	r24, r24
    1a80:	49 f0       	breq	.+18     	; 0x1a94 <__stack+0x1235>
    1a82:	3c eb       	ldi	r19, 0xBC	; 188
    1a84:	83 16       	cp	r8, r19
    1a86:	32 e0       	ldi	r19, 0x02	; 2
    1a88:	93 06       	cpc	r9, r19
    1a8a:	24 f4       	brge	.+8      	; 0x1a94 <__stack+0x1235>
    1a8c:	84 e6       	ldi	r24, 0x64	; 100
    1a8e:	90 e0       	ldi	r25, 0x00	; 0
    1a90:	88 0e       	add	r8, r24
    1a92:	99 1e       	adc	r9, r25
    1a94:	80 e8       	ldi	r24, 0x80	; 128
    1a96:	0e 94 41 00 	call	0x82	; 0x82 <klawisz_wcisniety>
    1a9a:	88 23       	and	r24, r24
    1a9c:	39 f4       	brne	.+14     	; 0x1aac <__stack+0x124d>
    1a9e:	18 14       	cp	r1, r8
    1aa0:	19 04       	cpc	r1, r9
    1aa2:	24 f4       	brge	.+8      	; 0x1aac <__stack+0x124d>
    1aa4:	ac e9       	ldi	r26, 0x9C	; 156
    1aa6:	bf ef       	ldi	r27, 0xFF	; 255
    1aa8:	8a 0e       	add	r8, r26
    1aaa:	9b 1e       	adc	r9, r27
    1aac:	24 ef       	ldi	r18, 0xF4	; 244
    1aae:	31 e0       	ldi	r19, 0x01	; 1
    1ab0:	82 0e       	add	r8, r18
    1ab2:	93 1e       	adc	r9, r19
    1ab4:	b4 01       	movw	r22, r8
    1ab6:	88 27       	eor	r24, r24
    1ab8:	77 fd       	sbrc	r23, 7
    1aba:	80 95       	com	r24
    1abc:	98 2f       	mov	r25, r24
    1abe:	ac e0       	ldi	r26, 0x0C	; 12
    1ac0:	be ef       	ldi	r27, 0xFE	; 254
    1ac2:	8a 0e       	add	r8, r26
    1ac4:	9b 1e       	adc	r9, r27
    1ac6:	0e 94 01 11 	call	0x2202	; 0x2202 <__floatsisf>
    1aca:	5b 01       	movw	r10, r22
    1acc:	6c 01       	movw	r12, r24
    1ace:	20 e0       	ldi	r18, 0x00	; 0
    1ad0:	30 e0       	ldi	r19, 0x00	; 0
    1ad2:	4a e7       	ldi	r20, 0x7A	; 122
    1ad4:	53 e4       	ldi	r21, 0x43	; 67
    1ad6:	0e 94 77 0f 	call	0x1eee	; 0x1eee <__mulsf3>
    1ada:	7b 01       	movw	r14, r22
    1adc:	8c 01       	movw	r16, r24
    1ade:	20 e0       	ldi	r18, 0x00	; 0
    1ae0:	30 e0       	ldi	r19, 0x00	; 0
    1ae2:	40 e8       	ldi	r20, 0x80	; 128
    1ae4:	5f e3       	ldi	r21, 0x3F	; 63
    1ae6:	0e 94 d1 10 	call	0x21a2	; 0x21a2 <__ltsf2>
    1aea:	88 23       	and	r24, r24
    1aec:	1c f4       	brge	.+6      	; 0x1af4 <__stack+0x1295>
    1aee:	61 e0       	ldi	r22, 0x01	; 1
    1af0:	70 e0       	ldi	r23, 0x00	; 0
    1af2:	23 c0       	rjmp	.+70     	; 0x1b3a <__stack+0x12db>
    1af4:	c8 01       	movw	r24, r16
    1af6:	b7 01       	movw	r22, r14
    1af8:	20 e0       	ldi	r18, 0x00	; 0
    1afa:	3f ef       	ldi	r19, 0xFF	; 255
    1afc:	4f e7       	ldi	r20, 0x7F	; 127
    1afe:	57 e4       	ldi	r21, 0x47	; 71
    1b00:	0e 94 71 10 	call	0x20e2	; 0x20e2 <__gtsf2>
    1b04:	18 16       	cp	r1, r24
    1b06:	ac f4       	brge	.+42     	; 0x1b32 <__stack+0x12d3>
    1b08:	c6 01       	movw	r24, r12
    1b0a:	b5 01       	movw	r22, r10
    1b0c:	20 e0       	ldi	r18, 0x00	; 0
    1b0e:	30 e0       	ldi	r19, 0x00	; 0
    1b10:	40 e2       	ldi	r20, 0x20	; 32
    1b12:	51 e4       	ldi	r21, 0x41	; 65
    1b14:	0e 94 77 0f 	call	0x1eee	; 0x1eee <__mulsf3>
    1b18:	0e 94 a1 0d 	call	0x1b42	; 0x1b42 <__fixunssfsi>
    1b1c:	06 c0       	rjmp	.+12     	; 0x1b2a <__stack+0x12cb>
    1b1e:	89 e1       	ldi	r24, 0x19	; 25
    1b20:	90 e0       	ldi	r25, 0x00	; 0
    1b22:	01 97       	sbiw	r24, 0x01	; 1
    1b24:	f1 f7       	brne	.-4      	; 0x1b22 <__stack+0x12c3>
    1b26:	61 50       	subi	r22, 0x01	; 1
    1b28:	70 40       	sbci	r23, 0x00	; 0
    1b2a:	61 15       	cp	r22, r1
    1b2c:	71 05       	cpc	r23, r1
    1b2e:	b9 f7       	brne	.-18     	; 0x1b1e <__stack+0x12bf>
    1b30:	06 cf       	rjmp	.-500    	; 0x193e <__stack+0x10df>
    1b32:	c8 01       	movw	r24, r16
    1b34:	b7 01       	movw	r22, r14
    1b36:	0e 94 a1 0d 	call	0x1b42	; 0x1b42 <__fixunssfsi>
    1b3a:	cb 01       	movw	r24, r22
    1b3c:	01 97       	sbiw	r24, 0x01	; 1
    1b3e:	f1 f7       	brne	.-4      	; 0x1b3c <__stack+0x12dd>
    1b40:	fe ce       	rjmp	.-516    	; 0x193e <__stack+0x10df>

00001b42 <__fixunssfsi>:
    1b42:	ef 92       	push	r14
    1b44:	ff 92       	push	r15
    1b46:	0f 93       	push	r16
    1b48:	1f 93       	push	r17
    1b4a:	7b 01       	movw	r14, r22
    1b4c:	8c 01       	movw	r16, r24
    1b4e:	20 e0       	ldi	r18, 0x00	; 0
    1b50:	30 e0       	ldi	r19, 0x00	; 0
    1b52:	40 e0       	ldi	r20, 0x00	; 0
    1b54:	5f e4       	ldi	r21, 0x4F	; 79
    1b56:	0e 94 a1 10 	call	0x2142	; 0x2142 <__gesf2>
    1b5a:	88 23       	and	r24, r24
    1b5c:	8c f0       	brlt	.+34     	; 0x1b80 <__fixunssfsi+0x3e>
    1b5e:	c8 01       	movw	r24, r16
    1b60:	b7 01       	movw	r22, r14
    1b62:	20 e0       	ldi	r18, 0x00	; 0
    1b64:	30 e0       	ldi	r19, 0x00	; 0
    1b66:	40 e0       	ldi	r20, 0x00	; 0
    1b68:	5f e4       	ldi	r21, 0x4F	; 79
    1b6a:	0e 94 19 0f 	call	0x1e32	; 0x1e32 <__subsf3>
    1b6e:	0e 94 5f 11 	call	0x22be	; 0x22be <__fixsfsi>
    1b72:	9b 01       	movw	r18, r22
    1b74:	ac 01       	movw	r20, r24
    1b76:	20 50       	subi	r18, 0x00	; 0
    1b78:	30 40       	sbci	r19, 0x00	; 0
    1b7a:	40 40       	sbci	r20, 0x00	; 0
    1b7c:	50 48       	sbci	r21, 0x80	; 128
    1b7e:	06 c0       	rjmp	.+12     	; 0x1b8c <__fixunssfsi+0x4a>
    1b80:	c8 01       	movw	r24, r16
    1b82:	b7 01       	movw	r22, r14
    1b84:	0e 94 5f 11 	call	0x22be	; 0x22be <__fixsfsi>
    1b88:	9b 01       	movw	r18, r22
    1b8a:	ac 01       	movw	r20, r24
    1b8c:	b9 01       	movw	r22, r18
    1b8e:	ca 01       	movw	r24, r20
    1b90:	1f 91       	pop	r17
    1b92:	0f 91       	pop	r16
    1b94:	ff 90       	pop	r15
    1b96:	ef 90       	pop	r14
    1b98:	08 95       	ret

00001b9a <_fpadd_parts>:
    1b9a:	a0 e0       	ldi	r26, 0x00	; 0
    1b9c:	b0 e0       	ldi	r27, 0x00	; 0
    1b9e:	e3 ed       	ldi	r30, 0xD3	; 211
    1ba0:	fd e0       	ldi	r31, 0x0D	; 13
    1ba2:	0c 94 cf 13 	jmp	0x279e	; 0x279e <__prologue_saves__>
    1ba6:	dc 01       	movw	r26, r24
    1ba8:	2b 01       	movw	r4, r22
    1baa:	fa 01       	movw	r30, r20
    1bac:	9c 91       	ld	r25, X
    1bae:	92 30       	cpi	r25, 0x02	; 2
    1bb0:	08 f4       	brcc	.+2      	; 0x1bb4 <_fpadd_parts+0x1a>
    1bb2:	39 c1       	rjmp	.+626    	; 0x1e26 <_fpadd_parts+0x28c>
    1bb4:	eb 01       	movw	r28, r22
    1bb6:	88 81       	ld	r24, Y
    1bb8:	82 30       	cpi	r24, 0x02	; 2
    1bba:	08 f4       	brcc	.+2      	; 0x1bbe <_fpadd_parts+0x24>
    1bbc:	33 c1       	rjmp	.+614    	; 0x1e24 <_fpadd_parts+0x28a>
    1bbe:	94 30       	cpi	r25, 0x04	; 4
    1bc0:	69 f4       	brne	.+26     	; 0x1bdc <_fpadd_parts+0x42>
    1bc2:	84 30       	cpi	r24, 0x04	; 4
    1bc4:	09 f0       	breq	.+2      	; 0x1bc8 <_fpadd_parts+0x2e>
    1bc6:	2f c1       	rjmp	.+606    	; 0x1e26 <_fpadd_parts+0x28c>
    1bc8:	11 96       	adiw	r26, 0x01	; 1
    1bca:	9c 91       	ld	r25, X
    1bcc:	11 97       	sbiw	r26, 0x01	; 1
    1bce:	89 81       	ldd	r24, Y+1	; 0x01
    1bd0:	98 17       	cp	r25, r24
    1bd2:	09 f4       	brne	.+2      	; 0x1bd6 <_fpadd_parts+0x3c>
    1bd4:	28 c1       	rjmp	.+592    	; 0x1e26 <_fpadd_parts+0x28c>
    1bd6:	a0 e6       	ldi	r26, 0x60	; 96
    1bd8:	b0 e0       	ldi	r27, 0x00	; 0
    1bda:	25 c1       	rjmp	.+586    	; 0x1e26 <_fpadd_parts+0x28c>
    1bdc:	84 30       	cpi	r24, 0x04	; 4
    1bde:	09 f4       	brne	.+2      	; 0x1be2 <_fpadd_parts+0x48>
    1be0:	21 c1       	rjmp	.+578    	; 0x1e24 <_fpadd_parts+0x28a>
    1be2:	82 30       	cpi	r24, 0x02	; 2
    1be4:	a9 f4       	brne	.+42     	; 0x1c10 <_fpadd_parts+0x76>
    1be6:	92 30       	cpi	r25, 0x02	; 2
    1be8:	09 f0       	breq	.+2      	; 0x1bec <_fpadd_parts+0x52>
    1bea:	1d c1       	rjmp	.+570    	; 0x1e26 <_fpadd_parts+0x28c>
    1bec:	9a 01       	movw	r18, r20
    1bee:	ad 01       	movw	r20, r26
    1bf0:	88 e0       	ldi	r24, 0x08	; 8
    1bf2:	ea 01       	movw	r28, r20
    1bf4:	09 90       	ld	r0, Y+
    1bf6:	ae 01       	movw	r20, r28
    1bf8:	e9 01       	movw	r28, r18
    1bfa:	09 92       	st	Y+, r0
    1bfc:	9e 01       	movw	r18, r28
    1bfe:	81 50       	subi	r24, 0x01	; 1
    1c00:	c1 f7       	brne	.-16     	; 0x1bf2 <_fpadd_parts+0x58>
    1c02:	e2 01       	movw	r28, r4
    1c04:	89 81       	ldd	r24, Y+1	; 0x01
    1c06:	11 96       	adiw	r26, 0x01	; 1
    1c08:	9c 91       	ld	r25, X
    1c0a:	89 23       	and	r24, r25
    1c0c:	81 83       	std	Z+1, r24	; 0x01
    1c0e:	08 c1       	rjmp	.+528    	; 0x1e20 <_fpadd_parts+0x286>
    1c10:	92 30       	cpi	r25, 0x02	; 2
    1c12:	09 f4       	brne	.+2      	; 0x1c16 <_fpadd_parts+0x7c>
    1c14:	07 c1       	rjmp	.+526    	; 0x1e24 <_fpadd_parts+0x28a>
    1c16:	12 96       	adiw	r26, 0x02	; 2
    1c18:	2d 90       	ld	r2, X+
    1c1a:	3c 90       	ld	r3, X
    1c1c:	13 97       	sbiw	r26, 0x03	; 3
    1c1e:	eb 01       	movw	r28, r22
    1c20:	8a 81       	ldd	r24, Y+2	; 0x02
    1c22:	9b 81       	ldd	r25, Y+3	; 0x03
    1c24:	14 96       	adiw	r26, 0x04	; 4
    1c26:	ad 90       	ld	r10, X+
    1c28:	bd 90       	ld	r11, X+
    1c2a:	cd 90       	ld	r12, X+
    1c2c:	dc 90       	ld	r13, X
    1c2e:	17 97       	sbiw	r26, 0x07	; 7
    1c30:	ec 80       	ldd	r14, Y+4	; 0x04
    1c32:	fd 80       	ldd	r15, Y+5	; 0x05
    1c34:	0e 81       	ldd	r16, Y+6	; 0x06
    1c36:	1f 81       	ldd	r17, Y+7	; 0x07
    1c38:	91 01       	movw	r18, r2
    1c3a:	28 1b       	sub	r18, r24
    1c3c:	39 0b       	sbc	r19, r25
    1c3e:	b9 01       	movw	r22, r18
    1c40:	37 ff       	sbrs	r19, 7
    1c42:	04 c0       	rjmp	.+8      	; 0x1c4c <_fpadd_parts+0xb2>
    1c44:	66 27       	eor	r22, r22
    1c46:	77 27       	eor	r23, r23
    1c48:	62 1b       	sub	r22, r18
    1c4a:	73 0b       	sbc	r23, r19
    1c4c:	60 32       	cpi	r22, 0x20	; 32
    1c4e:	71 05       	cpc	r23, r1
    1c50:	0c f0       	brlt	.+2      	; 0x1c54 <_fpadd_parts+0xba>
    1c52:	61 c0       	rjmp	.+194    	; 0x1d16 <_fpadd_parts+0x17c>
    1c54:	12 16       	cp	r1, r18
    1c56:	13 06       	cpc	r1, r19
    1c58:	6c f5       	brge	.+90     	; 0x1cb4 <_fpadd_parts+0x11a>
    1c5a:	37 01       	movw	r6, r14
    1c5c:	48 01       	movw	r8, r16
    1c5e:	06 2e       	mov	r0, r22
    1c60:	04 c0       	rjmp	.+8      	; 0x1c6a <_fpadd_parts+0xd0>
    1c62:	96 94       	lsr	r9
    1c64:	87 94       	ror	r8
    1c66:	77 94       	ror	r7
    1c68:	67 94       	ror	r6
    1c6a:	0a 94       	dec	r0
    1c6c:	d2 f7       	brpl	.-12     	; 0x1c62 <_fpadd_parts+0xc8>
    1c6e:	21 e0       	ldi	r18, 0x01	; 1
    1c70:	30 e0       	ldi	r19, 0x00	; 0
    1c72:	40 e0       	ldi	r20, 0x00	; 0
    1c74:	50 e0       	ldi	r21, 0x00	; 0
    1c76:	04 c0       	rjmp	.+8      	; 0x1c80 <_fpadd_parts+0xe6>
    1c78:	22 0f       	add	r18, r18
    1c7a:	33 1f       	adc	r19, r19
    1c7c:	44 1f       	adc	r20, r20
    1c7e:	55 1f       	adc	r21, r21
    1c80:	6a 95       	dec	r22
    1c82:	d2 f7       	brpl	.-12     	; 0x1c78 <_fpadd_parts+0xde>
    1c84:	21 50       	subi	r18, 0x01	; 1
    1c86:	30 40       	sbci	r19, 0x00	; 0
    1c88:	40 40       	sbci	r20, 0x00	; 0
    1c8a:	50 40       	sbci	r21, 0x00	; 0
    1c8c:	2e 21       	and	r18, r14
    1c8e:	3f 21       	and	r19, r15
    1c90:	40 23       	and	r20, r16
    1c92:	51 23       	and	r21, r17
    1c94:	21 15       	cp	r18, r1
    1c96:	31 05       	cpc	r19, r1
    1c98:	41 05       	cpc	r20, r1
    1c9a:	51 05       	cpc	r21, r1
    1c9c:	21 f0       	breq	.+8      	; 0x1ca6 <_fpadd_parts+0x10c>
    1c9e:	21 e0       	ldi	r18, 0x01	; 1
    1ca0:	30 e0       	ldi	r19, 0x00	; 0
    1ca2:	40 e0       	ldi	r20, 0x00	; 0
    1ca4:	50 e0       	ldi	r21, 0x00	; 0
    1ca6:	79 01       	movw	r14, r18
    1ca8:	8a 01       	movw	r16, r20
    1caa:	e6 28       	or	r14, r6
    1cac:	f7 28       	or	r15, r7
    1cae:	08 29       	or	r16, r8
    1cb0:	19 29       	or	r17, r9
    1cb2:	3c c0       	rjmp	.+120    	; 0x1d2c <_fpadd_parts+0x192>
    1cb4:	23 2b       	or	r18, r19
    1cb6:	d1 f1       	breq	.+116    	; 0x1d2c <_fpadd_parts+0x192>
    1cb8:	26 0e       	add	r2, r22
    1cba:	37 1e       	adc	r3, r23
    1cbc:	35 01       	movw	r6, r10
    1cbe:	46 01       	movw	r8, r12
    1cc0:	06 2e       	mov	r0, r22
    1cc2:	04 c0       	rjmp	.+8      	; 0x1ccc <_fpadd_parts+0x132>
    1cc4:	96 94       	lsr	r9
    1cc6:	87 94       	ror	r8
    1cc8:	77 94       	ror	r7
    1cca:	67 94       	ror	r6
    1ccc:	0a 94       	dec	r0
    1cce:	d2 f7       	brpl	.-12     	; 0x1cc4 <_fpadd_parts+0x12a>
    1cd0:	21 e0       	ldi	r18, 0x01	; 1
    1cd2:	30 e0       	ldi	r19, 0x00	; 0
    1cd4:	40 e0       	ldi	r20, 0x00	; 0
    1cd6:	50 e0       	ldi	r21, 0x00	; 0
    1cd8:	04 c0       	rjmp	.+8      	; 0x1ce2 <_fpadd_parts+0x148>
    1cda:	22 0f       	add	r18, r18
    1cdc:	33 1f       	adc	r19, r19
    1cde:	44 1f       	adc	r20, r20
    1ce0:	55 1f       	adc	r21, r21
    1ce2:	6a 95       	dec	r22
    1ce4:	d2 f7       	brpl	.-12     	; 0x1cda <_fpadd_parts+0x140>
    1ce6:	21 50       	subi	r18, 0x01	; 1
    1ce8:	30 40       	sbci	r19, 0x00	; 0
    1cea:	40 40       	sbci	r20, 0x00	; 0
    1cec:	50 40       	sbci	r21, 0x00	; 0
    1cee:	2a 21       	and	r18, r10
    1cf0:	3b 21       	and	r19, r11
    1cf2:	4c 21       	and	r20, r12
    1cf4:	5d 21       	and	r21, r13
    1cf6:	21 15       	cp	r18, r1
    1cf8:	31 05       	cpc	r19, r1
    1cfa:	41 05       	cpc	r20, r1
    1cfc:	51 05       	cpc	r21, r1
    1cfe:	21 f0       	breq	.+8      	; 0x1d08 <_fpadd_parts+0x16e>
    1d00:	21 e0       	ldi	r18, 0x01	; 1
    1d02:	30 e0       	ldi	r19, 0x00	; 0
    1d04:	40 e0       	ldi	r20, 0x00	; 0
    1d06:	50 e0       	ldi	r21, 0x00	; 0
    1d08:	59 01       	movw	r10, r18
    1d0a:	6a 01       	movw	r12, r20
    1d0c:	a6 28       	or	r10, r6
    1d0e:	b7 28       	or	r11, r7
    1d10:	c8 28       	or	r12, r8
    1d12:	d9 28       	or	r13, r9
    1d14:	0b c0       	rjmp	.+22     	; 0x1d2c <_fpadd_parts+0x192>
    1d16:	82 15       	cp	r24, r2
    1d18:	93 05       	cpc	r25, r3
    1d1a:	2c f0       	brlt	.+10     	; 0x1d26 <_fpadd_parts+0x18c>
    1d1c:	1c 01       	movw	r2, r24
    1d1e:	aa 24       	eor	r10, r10
    1d20:	bb 24       	eor	r11, r11
    1d22:	65 01       	movw	r12, r10
    1d24:	03 c0       	rjmp	.+6      	; 0x1d2c <_fpadd_parts+0x192>
    1d26:	ee 24       	eor	r14, r14
    1d28:	ff 24       	eor	r15, r15
    1d2a:	87 01       	movw	r16, r14
    1d2c:	11 96       	adiw	r26, 0x01	; 1
    1d2e:	9c 91       	ld	r25, X
    1d30:	d2 01       	movw	r26, r4
    1d32:	11 96       	adiw	r26, 0x01	; 1
    1d34:	8c 91       	ld	r24, X
    1d36:	98 17       	cp	r25, r24
    1d38:	09 f4       	brne	.+2      	; 0x1d3c <_fpadd_parts+0x1a2>
    1d3a:	45 c0       	rjmp	.+138    	; 0x1dc6 <_fpadd_parts+0x22c>
    1d3c:	99 23       	and	r25, r25
    1d3e:	39 f0       	breq	.+14     	; 0x1d4e <_fpadd_parts+0x1b4>
    1d40:	a8 01       	movw	r20, r16
    1d42:	97 01       	movw	r18, r14
    1d44:	2a 19       	sub	r18, r10
    1d46:	3b 09       	sbc	r19, r11
    1d48:	4c 09       	sbc	r20, r12
    1d4a:	5d 09       	sbc	r21, r13
    1d4c:	06 c0       	rjmp	.+12     	; 0x1d5a <_fpadd_parts+0x1c0>
    1d4e:	a6 01       	movw	r20, r12
    1d50:	95 01       	movw	r18, r10
    1d52:	2e 19       	sub	r18, r14
    1d54:	3f 09       	sbc	r19, r15
    1d56:	40 0b       	sbc	r20, r16
    1d58:	51 0b       	sbc	r21, r17
    1d5a:	57 fd       	sbrc	r21, 7
    1d5c:	08 c0       	rjmp	.+16     	; 0x1d6e <_fpadd_parts+0x1d4>
    1d5e:	11 82       	std	Z+1, r1	; 0x01
    1d60:	33 82       	std	Z+3, r3	; 0x03
    1d62:	22 82       	std	Z+2, r2	; 0x02
    1d64:	24 83       	std	Z+4, r18	; 0x04
    1d66:	35 83       	std	Z+5, r19	; 0x05
    1d68:	46 83       	std	Z+6, r20	; 0x06
    1d6a:	57 83       	std	Z+7, r21	; 0x07
    1d6c:	1d c0       	rjmp	.+58     	; 0x1da8 <_fpadd_parts+0x20e>
    1d6e:	81 e0       	ldi	r24, 0x01	; 1
    1d70:	81 83       	std	Z+1, r24	; 0x01
    1d72:	33 82       	std	Z+3, r3	; 0x03
    1d74:	22 82       	std	Z+2, r2	; 0x02
    1d76:	88 27       	eor	r24, r24
    1d78:	99 27       	eor	r25, r25
    1d7a:	dc 01       	movw	r26, r24
    1d7c:	82 1b       	sub	r24, r18
    1d7e:	93 0b       	sbc	r25, r19
    1d80:	a4 0b       	sbc	r26, r20
    1d82:	b5 0b       	sbc	r27, r21
    1d84:	84 83       	std	Z+4, r24	; 0x04
    1d86:	95 83       	std	Z+5, r25	; 0x05
    1d88:	a6 83       	std	Z+6, r26	; 0x06
    1d8a:	b7 83       	std	Z+7, r27	; 0x07
    1d8c:	0d c0       	rjmp	.+26     	; 0x1da8 <_fpadd_parts+0x20e>
    1d8e:	22 0f       	add	r18, r18
    1d90:	33 1f       	adc	r19, r19
    1d92:	44 1f       	adc	r20, r20
    1d94:	55 1f       	adc	r21, r21
    1d96:	24 83       	std	Z+4, r18	; 0x04
    1d98:	35 83       	std	Z+5, r19	; 0x05
    1d9a:	46 83       	std	Z+6, r20	; 0x06
    1d9c:	57 83       	std	Z+7, r21	; 0x07
    1d9e:	82 81       	ldd	r24, Z+2	; 0x02
    1da0:	93 81       	ldd	r25, Z+3	; 0x03
    1da2:	01 97       	sbiw	r24, 0x01	; 1
    1da4:	93 83       	std	Z+3, r25	; 0x03
    1da6:	82 83       	std	Z+2, r24	; 0x02
    1da8:	24 81       	ldd	r18, Z+4	; 0x04
    1daa:	35 81       	ldd	r19, Z+5	; 0x05
    1dac:	46 81       	ldd	r20, Z+6	; 0x06
    1dae:	57 81       	ldd	r21, Z+7	; 0x07
    1db0:	da 01       	movw	r26, r20
    1db2:	c9 01       	movw	r24, r18
    1db4:	01 97       	sbiw	r24, 0x01	; 1
    1db6:	a1 09       	sbc	r26, r1
    1db8:	b1 09       	sbc	r27, r1
    1dba:	8f 5f       	subi	r24, 0xFF	; 255
    1dbc:	9f 4f       	sbci	r25, 0xFF	; 255
    1dbe:	af 4f       	sbci	r26, 0xFF	; 255
    1dc0:	bf 43       	sbci	r27, 0x3F	; 63
    1dc2:	28 f3       	brcs	.-54     	; 0x1d8e <_fpadd_parts+0x1f4>
    1dc4:	0b c0       	rjmp	.+22     	; 0x1ddc <_fpadd_parts+0x242>
    1dc6:	91 83       	std	Z+1, r25	; 0x01
    1dc8:	33 82       	std	Z+3, r3	; 0x03
    1dca:	22 82       	std	Z+2, r2	; 0x02
    1dcc:	ea 0c       	add	r14, r10
    1dce:	fb 1c       	adc	r15, r11
    1dd0:	0c 1d       	adc	r16, r12
    1dd2:	1d 1d       	adc	r17, r13
    1dd4:	e4 82       	std	Z+4, r14	; 0x04
    1dd6:	f5 82       	std	Z+5, r15	; 0x05
    1dd8:	06 83       	std	Z+6, r16	; 0x06
    1dda:	17 83       	std	Z+7, r17	; 0x07
    1ddc:	83 e0       	ldi	r24, 0x03	; 3
    1dde:	80 83       	st	Z, r24
    1de0:	24 81       	ldd	r18, Z+4	; 0x04
    1de2:	35 81       	ldd	r19, Z+5	; 0x05
    1de4:	46 81       	ldd	r20, Z+6	; 0x06
    1de6:	57 81       	ldd	r21, Z+7	; 0x07
    1de8:	57 ff       	sbrs	r21, 7
    1dea:	1a c0       	rjmp	.+52     	; 0x1e20 <_fpadd_parts+0x286>
    1dec:	c9 01       	movw	r24, r18
    1dee:	aa 27       	eor	r26, r26
    1df0:	97 fd       	sbrc	r25, 7
    1df2:	a0 95       	com	r26
    1df4:	ba 2f       	mov	r27, r26
    1df6:	81 70       	andi	r24, 0x01	; 1
    1df8:	90 70       	andi	r25, 0x00	; 0
    1dfa:	a0 70       	andi	r26, 0x00	; 0
    1dfc:	b0 70       	andi	r27, 0x00	; 0
    1dfe:	56 95       	lsr	r21
    1e00:	47 95       	ror	r20
    1e02:	37 95       	ror	r19
    1e04:	27 95       	ror	r18
    1e06:	82 2b       	or	r24, r18
    1e08:	93 2b       	or	r25, r19
    1e0a:	a4 2b       	or	r26, r20
    1e0c:	b5 2b       	or	r27, r21
    1e0e:	84 83       	std	Z+4, r24	; 0x04
    1e10:	95 83       	std	Z+5, r25	; 0x05
    1e12:	a6 83       	std	Z+6, r26	; 0x06
    1e14:	b7 83       	std	Z+7, r27	; 0x07
    1e16:	82 81       	ldd	r24, Z+2	; 0x02
    1e18:	93 81       	ldd	r25, Z+3	; 0x03
    1e1a:	01 96       	adiw	r24, 0x01	; 1
    1e1c:	93 83       	std	Z+3, r25	; 0x03
    1e1e:	82 83       	std	Z+2, r24	; 0x02
    1e20:	df 01       	movw	r26, r30
    1e22:	01 c0       	rjmp	.+2      	; 0x1e26 <_fpadd_parts+0x28c>
    1e24:	d2 01       	movw	r26, r4
    1e26:	cd 01       	movw	r24, r26
    1e28:	cd b7       	in	r28, 0x3d	; 61
    1e2a:	de b7       	in	r29, 0x3e	; 62
    1e2c:	e2 e1       	ldi	r30, 0x12	; 18
    1e2e:	0c 94 eb 13 	jmp	0x27d6	; 0x27d6 <__epilogue_restores__>

00001e32 <__subsf3>:
    1e32:	a0 e2       	ldi	r26, 0x20	; 32
    1e34:	b0 e0       	ldi	r27, 0x00	; 0
    1e36:	ef e1       	ldi	r30, 0x1F	; 31
    1e38:	ff e0       	ldi	r31, 0x0F	; 15
    1e3a:	0c 94 db 13 	jmp	0x27b6	; 0x27b6 <__prologue_saves__+0x18>
    1e3e:	69 83       	std	Y+1, r22	; 0x01
    1e40:	7a 83       	std	Y+2, r23	; 0x02
    1e42:	8b 83       	std	Y+3, r24	; 0x03
    1e44:	9c 83       	std	Y+4, r25	; 0x04
    1e46:	2d 83       	std	Y+5, r18	; 0x05
    1e48:	3e 83       	std	Y+6, r19	; 0x06
    1e4a:	4f 83       	std	Y+7, r20	; 0x07
    1e4c:	58 87       	std	Y+8, r21	; 0x08
    1e4e:	e9 e0       	ldi	r30, 0x09	; 9
    1e50:	ee 2e       	mov	r14, r30
    1e52:	f1 2c       	mov	r15, r1
    1e54:	ec 0e       	add	r14, r28
    1e56:	fd 1e       	adc	r15, r29
    1e58:	ce 01       	movw	r24, r28
    1e5a:	01 96       	adiw	r24, 0x01	; 1
    1e5c:	b7 01       	movw	r22, r14
    1e5e:	0e 94 d7 12 	call	0x25ae	; 0x25ae <__unpack_f>
    1e62:	8e 01       	movw	r16, r28
    1e64:	0f 5e       	subi	r16, 0xEF	; 239
    1e66:	1f 4f       	sbci	r17, 0xFF	; 255
    1e68:	ce 01       	movw	r24, r28
    1e6a:	05 96       	adiw	r24, 0x05	; 5
    1e6c:	b8 01       	movw	r22, r16
    1e6e:	0e 94 d7 12 	call	0x25ae	; 0x25ae <__unpack_f>
    1e72:	8a 89       	ldd	r24, Y+18	; 0x12
    1e74:	91 e0       	ldi	r25, 0x01	; 1
    1e76:	89 27       	eor	r24, r25
    1e78:	8a 8b       	std	Y+18, r24	; 0x12
    1e7a:	c7 01       	movw	r24, r14
    1e7c:	b8 01       	movw	r22, r16
    1e7e:	ae 01       	movw	r20, r28
    1e80:	47 5e       	subi	r20, 0xE7	; 231
    1e82:	5f 4f       	sbci	r21, 0xFF	; 255
    1e84:	0e 94 cd 0d 	call	0x1b9a	; 0x1b9a <_fpadd_parts>
    1e88:	0e 94 02 12 	call	0x2404	; 0x2404 <__pack_f>
    1e8c:	a0 96       	adiw	r28, 0x20	; 32
    1e8e:	e6 e0       	ldi	r30, 0x06	; 6
    1e90:	0c 94 f7 13 	jmp	0x27ee	; 0x27ee <__epilogue_restores__+0x18>

00001e94 <__addsf3>:
    1e94:	a0 e2       	ldi	r26, 0x20	; 32
    1e96:	b0 e0       	ldi	r27, 0x00	; 0
    1e98:	e0 e5       	ldi	r30, 0x50	; 80
    1e9a:	ff e0       	ldi	r31, 0x0F	; 15
    1e9c:	0c 94 db 13 	jmp	0x27b6	; 0x27b6 <__prologue_saves__+0x18>
    1ea0:	69 83       	std	Y+1, r22	; 0x01
    1ea2:	7a 83       	std	Y+2, r23	; 0x02
    1ea4:	8b 83       	std	Y+3, r24	; 0x03
    1ea6:	9c 83       	std	Y+4, r25	; 0x04
    1ea8:	2d 83       	std	Y+5, r18	; 0x05
    1eaa:	3e 83       	std	Y+6, r19	; 0x06
    1eac:	4f 83       	std	Y+7, r20	; 0x07
    1eae:	58 87       	std	Y+8, r21	; 0x08
    1eb0:	f9 e0       	ldi	r31, 0x09	; 9
    1eb2:	ef 2e       	mov	r14, r31
    1eb4:	f1 2c       	mov	r15, r1
    1eb6:	ec 0e       	add	r14, r28
    1eb8:	fd 1e       	adc	r15, r29
    1eba:	ce 01       	movw	r24, r28
    1ebc:	01 96       	adiw	r24, 0x01	; 1
    1ebe:	b7 01       	movw	r22, r14
    1ec0:	0e 94 d7 12 	call	0x25ae	; 0x25ae <__unpack_f>
    1ec4:	8e 01       	movw	r16, r28
    1ec6:	0f 5e       	subi	r16, 0xEF	; 239
    1ec8:	1f 4f       	sbci	r17, 0xFF	; 255
    1eca:	ce 01       	movw	r24, r28
    1ecc:	05 96       	adiw	r24, 0x05	; 5
    1ece:	b8 01       	movw	r22, r16
    1ed0:	0e 94 d7 12 	call	0x25ae	; 0x25ae <__unpack_f>
    1ed4:	c7 01       	movw	r24, r14
    1ed6:	b8 01       	movw	r22, r16
    1ed8:	ae 01       	movw	r20, r28
    1eda:	47 5e       	subi	r20, 0xE7	; 231
    1edc:	5f 4f       	sbci	r21, 0xFF	; 255
    1ede:	0e 94 cd 0d 	call	0x1b9a	; 0x1b9a <_fpadd_parts>
    1ee2:	0e 94 02 12 	call	0x2404	; 0x2404 <__pack_f>
    1ee6:	a0 96       	adiw	r28, 0x20	; 32
    1ee8:	e6 e0       	ldi	r30, 0x06	; 6
    1eea:	0c 94 f7 13 	jmp	0x27ee	; 0x27ee <__epilogue_restores__+0x18>

00001eee <__mulsf3>:
    1eee:	a0 e2       	ldi	r26, 0x20	; 32
    1ef0:	b0 e0       	ldi	r27, 0x00	; 0
    1ef2:	ed e7       	ldi	r30, 0x7D	; 125
    1ef4:	ff e0       	ldi	r31, 0x0F	; 15
    1ef6:	0c 94 cf 13 	jmp	0x279e	; 0x279e <__prologue_saves__>
    1efa:	69 83       	std	Y+1, r22	; 0x01
    1efc:	7a 83       	std	Y+2, r23	; 0x02
    1efe:	8b 83       	std	Y+3, r24	; 0x03
    1f00:	9c 83       	std	Y+4, r25	; 0x04
    1f02:	2d 83       	std	Y+5, r18	; 0x05
    1f04:	3e 83       	std	Y+6, r19	; 0x06
    1f06:	4f 83       	std	Y+7, r20	; 0x07
    1f08:	58 87       	std	Y+8, r21	; 0x08
    1f0a:	ce 01       	movw	r24, r28
    1f0c:	01 96       	adiw	r24, 0x01	; 1
    1f0e:	be 01       	movw	r22, r28
    1f10:	67 5f       	subi	r22, 0xF7	; 247
    1f12:	7f 4f       	sbci	r23, 0xFF	; 255
    1f14:	0e 94 d7 12 	call	0x25ae	; 0x25ae <__unpack_f>
    1f18:	ce 01       	movw	r24, r28
    1f1a:	05 96       	adiw	r24, 0x05	; 5
    1f1c:	be 01       	movw	r22, r28
    1f1e:	6f 5e       	subi	r22, 0xEF	; 239
    1f20:	7f 4f       	sbci	r23, 0xFF	; 255
    1f22:	0e 94 d7 12 	call	0x25ae	; 0x25ae <__unpack_f>
    1f26:	99 85       	ldd	r25, Y+9	; 0x09
    1f28:	92 30       	cpi	r25, 0x02	; 2
    1f2a:	88 f0       	brcs	.+34     	; 0x1f4e <__mulsf3+0x60>
    1f2c:	89 89       	ldd	r24, Y+17	; 0x11
    1f2e:	82 30       	cpi	r24, 0x02	; 2
    1f30:	c8 f0       	brcs	.+50     	; 0x1f64 <__mulsf3+0x76>
    1f32:	94 30       	cpi	r25, 0x04	; 4
    1f34:	19 f4       	brne	.+6      	; 0x1f3c <__mulsf3+0x4e>
    1f36:	82 30       	cpi	r24, 0x02	; 2
    1f38:	51 f4       	brne	.+20     	; 0x1f4e <__mulsf3+0x60>
    1f3a:	04 c0       	rjmp	.+8      	; 0x1f44 <__mulsf3+0x56>
    1f3c:	84 30       	cpi	r24, 0x04	; 4
    1f3e:	29 f4       	brne	.+10     	; 0x1f4a <__mulsf3+0x5c>
    1f40:	92 30       	cpi	r25, 0x02	; 2
    1f42:	81 f4       	brne	.+32     	; 0x1f64 <__mulsf3+0x76>
    1f44:	80 e6       	ldi	r24, 0x60	; 96
    1f46:	90 e0       	ldi	r25, 0x00	; 0
    1f48:	c6 c0       	rjmp	.+396    	; 0x20d6 <__mulsf3+0x1e8>
    1f4a:	92 30       	cpi	r25, 0x02	; 2
    1f4c:	49 f4       	brne	.+18     	; 0x1f60 <__mulsf3+0x72>
    1f4e:	20 e0       	ldi	r18, 0x00	; 0
    1f50:	9a 85       	ldd	r25, Y+10	; 0x0a
    1f52:	8a 89       	ldd	r24, Y+18	; 0x12
    1f54:	98 13       	cpse	r25, r24
    1f56:	21 e0       	ldi	r18, 0x01	; 1
    1f58:	2a 87       	std	Y+10, r18	; 0x0a
    1f5a:	ce 01       	movw	r24, r28
    1f5c:	09 96       	adiw	r24, 0x09	; 9
    1f5e:	bb c0       	rjmp	.+374    	; 0x20d6 <__mulsf3+0x1e8>
    1f60:	82 30       	cpi	r24, 0x02	; 2
    1f62:	49 f4       	brne	.+18     	; 0x1f76 <__mulsf3+0x88>
    1f64:	20 e0       	ldi	r18, 0x00	; 0
    1f66:	9a 85       	ldd	r25, Y+10	; 0x0a
    1f68:	8a 89       	ldd	r24, Y+18	; 0x12
    1f6a:	98 13       	cpse	r25, r24
    1f6c:	21 e0       	ldi	r18, 0x01	; 1
    1f6e:	2a 8b       	std	Y+18, r18	; 0x12
    1f70:	ce 01       	movw	r24, r28
    1f72:	41 96       	adiw	r24, 0x11	; 17
    1f74:	b0 c0       	rjmp	.+352    	; 0x20d6 <__mulsf3+0x1e8>
    1f76:	2d 84       	ldd	r2, Y+13	; 0x0d
    1f78:	3e 84       	ldd	r3, Y+14	; 0x0e
    1f7a:	4f 84       	ldd	r4, Y+15	; 0x0f
    1f7c:	58 88       	ldd	r5, Y+16	; 0x10
    1f7e:	6d 88       	ldd	r6, Y+21	; 0x15
    1f80:	7e 88       	ldd	r7, Y+22	; 0x16
    1f82:	8f 88       	ldd	r8, Y+23	; 0x17
    1f84:	98 8c       	ldd	r9, Y+24	; 0x18
    1f86:	ee 24       	eor	r14, r14
    1f88:	ff 24       	eor	r15, r15
    1f8a:	87 01       	movw	r16, r14
    1f8c:	aa 24       	eor	r10, r10
    1f8e:	bb 24       	eor	r11, r11
    1f90:	65 01       	movw	r12, r10
    1f92:	40 e0       	ldi	r20, 0x00	; 0
    1f94:	50 e0       	ldi	r21, 0x00	; 0
    1f96:	60 e0       	ldi	r22, 0x00	; 0
    1f98:	70 e0       	ldi	r23, 0x00	; 0
    1f9a:	e0 e0       	ldi	r30, 0x00	; 0
    1f9c:	f0 e0       	ldi	r31, 0x00	; 0
    1f9e:	c1 01       	movw	r24, r2
    1fa0:	81 70       	andi	r24, 0x01	; 1
    1fa2:	90 70       	andi	r25, 0x00	; 0
    1fa4:	89 2b       	or	r24, r25
    1fa6:	e9 f0       	breq	.+58     	; 0x1fe2 <__mulsf3+0xf4>
    1fa8:	e6 0c       	add	r14, r6
    1faa:	f7 1c       	adc	r15, r7
    1fac:	08 1d       	adc	r16, r8
    1fae:	19 1d       	adc	r17, r9
    1fb0:	9a 01       	movw	r18, r20
    1fb2:	ab 01       	movw	r20, r22
    1fb4:	2a 0d       	add	r18, r10
    1fb6:	3b 1d       	adc	r19, r11
    1fb8:	4c 1d       	adc	r20, r12
    1fba:	5d 1d       	adc	r21, r13
    1fbc:	80 e0       	ldi	r24, 0x00	; 0
    1fbe:	90 e0       	ldi	r25, 0x00	; 0
    1fc0:	a0 e0       	ldi	r26, 0x00	; 0
    1fc2:	b0 e0       	ldi	r27, 0x00	; 0
    1fc4:	e6 14       	cp	r14, r6
    1fc6:	f7 04       	cpc	r15, r7
    1fc8:	08 05       	cpc	r16, r8
    1fca:	19 05       	cpc	r17, r9
    1fcc:	20 f4       	brcc	.+8      	; 0x1fd6 <__mulsf3+0xe8>
    1fce:	81 e0       	ldi	r24, 0x01	; 1
    1fd0:	90 e0       	ldi	r25, 0x00	; 0
    1fd2:	a0 e0       	ldi	r26, 0x00	; 0
    1fd4:	b0 e0       	ldi	r27, 0x00	; 0
    1fd6:	ba 01       	movw	r22, r20
    1fd8:	a9 01       	movw	r20, r18
    1fda:	48 0f       	add	r20, r24
    1fdc:	59 1f       	adc	r21, r25
    1fde:	6a 1f       	adc	r22, r26
    1fe0:	7b 1f       	adc	r23, r27
    1fe2:	aa 0c       	add	r10, r10
    1fe4:	bb 1c       	adc	r11, r11
    1fe6:	cc 1c       	adc	r12, r12
    1fe8:	dd 1c       	adc	r13, r13
    1fea:	97 fe       	sbrs	r9, 7
    1fec:	08 c0       	rjmp	.+16     	; 0x1ffe <__mulsf3+0x110>
    1fee:	81 e0       	ldi	r24, 0x01	; 1
    1ff0:	90 e0       	ldi	r25, 0x00	; 0
    1ff2:	a0 e0       	ldi	r26, 0x00	; 0
    1ff4:	b0 e0       	ldi	r27, 0x00	; 0
    1ff6:	a8 2a       	or	r10, r24
    1ff8:	b9 2a       	or	r11, r25
    1ffa:	ca 2a       	or	r12, r26
    1ffc:	db 2a       	or	r13, r27
    1ffe:	31 96       	adiw	r30, 0x01	; 1
    2000:	e0 32       	cpi	r30, 0x20	; 32
    2002:	f1 05       	cpc	r31, r1
    2004:	49 f0       	breq	.+18     	; 0x2018 <__mulsf3+0x12a>
    2006:	66 0c       	add	r6, r6
    2008:	77 1c       	adc	r7, r7
    200a:	88 1c       	adc	r8, r8
    200c:	99 1c       	adc	r9, r9
    200e:	56 94       	lsr	r5
    2010:	47 94       	ror	r4
    2012:	37 94       	ror	r3
    2014:	27 94       	ror	r2
    2016:	c3 cf       	rjmp	.-122    	; 0x1f9e <__mulsf3+0xb0>
    2018:	fa 85       	ldd	r31, Y+10	; 0x0a
    201a:	ea 89       	ldd	r30, Y+18	; 0x12
    201c:	2b 89       	ldd	r18, Y+19	; 0x13
    201e:	3c 89       	ldd	r19, Y+20	; 0x14
    2020:	8b 85       	ldd	r24, Y+11	; 0x0b
    2022:	9c 85       	ldd	r25, Y+12	; 0x0c
    2024:	28 0f       	add	r18, r24
    2026:	39 1f       	adc	r19, r25
    2028:	2e 5f       	subi	r18, 0xFE	; 254
    202a:	3f 4f       	sbci	r19, 0xFF	; 255
    202c:	17 c0       	rjmp	.+46     	; 0x205c <__mulsf3+0x16e>
    202e:	ca 01       	movw	r24, r20
    2030:	81 70       	andi	r24, 0x01	; 1
    2032:	90 70       	andi	r25, 0x00	; 0
    2034:	89 2b       	or	r24, r25
    2036:	61 f0       	breq	.+24     	; 0x2050 <__mulsf3+0x162>
    2038:	16 95       	lsr	r17
    203a:	07 95       	ror	r16
    203c:	f7 94       	ror	r15
    203e:	e7 94       	ror	r14
    2040:	80 e0       	ldi	r24, 0x00	; 0
    2042:	90 e0       	ldi	r25, 0x00	; 0
    2044:	a0 e0       	ldi	r26, 0x00	; 0
    2046:	b0 e8       	ldi	r27, 0x80	; 128
    2048:	e8 2a       	or	r14, r24
    204a:	f9 2a       	or	r15, r25
    204c:	0a 2b       	or	r16, r26
    204e:	1b 2b       	or	r17, r27
    2050:	76 95       	lsr	r23
    2052:	67 95       	ror	r22
    2054:	57 95       	ror	r21
    2056:	47 95       	ror	r20
    2058:	2f 5f       	subi	r18, 0xFF	; 255
    205a:	3f 4f       	sbci	r19, 0xFF	; 255
    205c:	77 fd       	sbrc	r23, 7
    205e:	e7 cf       	rjmp	.-50     	; 0x202e <__mulsf3+0x140>
    2060:	0c c0       	rjmp	.+24     	; 0x207a <__mulsf3+0x18c>
    2062:	44 0f       	add	r20, r20
    2064:	55 1f       	adc	r21, r21
    2066:	66 1f       	adc	r22, r22
    2068:	77 1f       	adc	r23, r23
    206a:	17 fd       	sbrc	r17, 7
    206c:	41 60       	ori	r20, 0x01	; 1
    206e:	ee 0c       	add	r14, r14
    2070:	ff 1c       	adc	r15, r15
    2072:	00 1f       	adc	r16, r16
    2074:	11 1f       	adc	r17, r17
    2076:	21 50       	subi	r18, 0x01	; 1
    2078:	30 40       	sbci	r19, 0x00	; 0
    207a:	40 30       	cpi	r20, 0x00	; 0
    207c:	90 e0       	ldi	r25, 0x00	; 0
    207e:	59 07       	cpc	r21, r25
    2080:	90 e0       	ldi	r25, 0x00	; 0
    2082:	69 07       	cpc	r22, r25
    2084:	90 e4       	ldi	r25, 0x40	; 64
    2086:	79 07       	cpc	r23, r25
    2088:	60 f3       	brcs	.-40     	; 0x2062 <__mulsf3+0x174>
    208a:	2b 8f       	std	Y+27, r18	; 0x1b
    208c:	3c 8f       	std	Y+28, r19	; 0x1c
    208e:	db 01       	movw	r26, r22
    2090:	ca 01       	movw	r24, r20
    2092:	8f 77       	andi	r24, 0x7F	; 127
    2094:	90 70       	andi	r25, 0x00	; 0
    2096:	a0 70       	andi	r26, 0x00	; 0
    2098:	b0 70       	andi	r27, 0x00	; 0
    209a:	80 34       	cpi	r24, 0x40	; 64
    209c:	91 05       	cpc	r25, r1
    209e:	a1 05       	cpc	r26, r1
    20a0:	b1 05       	cpc	r27, r1
    20a2:	61 f4       	brne	.+24     	; 0x20bc <__mulsf3+0x1ce>
    20a4:	47 fd       	sbrc	r20, 7
    20a6:	0a c0       	rjmp	.+20     	; 0x20bc <__mulsf3+0x1ce>
    20a8:	e1 14       	cp	r14, r1
    20aa:	f1 04       	cpc	r15, r1
    20ac:	01 05       	cpc	r16, r1
    20ae:	11 05       	cpc	r17, r1
    20b0:	29 f0       	breq	.+10     	; 0x20bc <__mulsf3+0x1ce>
    20b2:	40 5c       	subi	r20, 0xC0	; 192
    20b4:	5f 4f       	sbci	r21, 0xFF	; 255
    20b6:	6f 4f       	sbci	r22, 0xFF	; 255
    20b8:	7f 4f       	sbci	r23, 0xFF	; 255
    20ba:	40 78       	andi	r20, 0x80	; 128
    20bc:	1a 8e       	std	Y+26, r1	; 0x1a
    20be:	fe 17       	cp	r31, r30
    20c0:	11 f0       	breq	.+4      	; 0x20c6 <__mulsf3+0x1d8>
    20c2:	81 e0       	ldi	r24, 0x01	; 1
    20c4:	8a 8f       	std	Y+26, r24	; 0x1a
    20c6:	4d 8f       	std	Y+29, r20	; 0x1d
    20c8:	5e 8f       	std	Y+30, r21	; 0x1e
    20ca:	6f 8f       	std	Y+31, r22	; 0x1f
    20cc:	78 a3       	std	Y+32, r23	; 0x20
    20ce:	83 e0       	ldi	r24, 0x03	; 3
    20d0:	89 8f       	std	Y+25, r24	; 0x19
    20d2:	ce 01       	movw	r24, r28
    20d4:	49 96       	adiw	r24, 0x19	; 25
    20d6:	0e 94 02 12 	call	0x2404	; 0x2404 <__pack_f>
    20da:	a0 96       	adiw	r28, 0x20	; 32
    20dc:	e2 e1       	ldi	r30, 0x12	; 18
    20de:	0c 94 eb 13 	jmp	0x27d6	; 0x27d6 <__epilogue_restores__>

000020e2 <__gtsf2>:
    20e2:	a8 e1       	ldi	r26, 0x18	; 24
    20e4:	b0 e0       	ldi	r27, 0x00	; 0
    20e6:	e7 e7       	ldi	r30, 0x77	; 119
    20e8:	f0 e1       	ldi	r31, 0x10	; 16
    20ea:	0c 94 db 13 	jmp	0x27b6	; 0x27b6 <__prologue_saves__+0x18>
    20ee:	69 83       	std	Y+1, r22	; 0x01
    20f0:	7a 83       	std	Y+2, r23	; 0x02
    20f2:	8b 83       	std	Y+3, r24	; 0x03
    20f4:	9c 83       	std	Y+4, r25	; 0x04
    20f6:	2d 83       	std	Y+5, r18	; 0x05
    20f8:	3e 83       	std	Y+6, r19	; 0x06
    20fa:	4f 83       	std	Y+7, r20	; 0x07
    20fc:	58 87       	std	Y+8, r21	; 0x08
    20fe:	89 e0       	ldi	r24, 0x09	; 9
    2100:	e8 2e       	mov	r14, r24
    2102:	f1 2c       	mov	r15, r1
    2104:	ec 0e       	add	r14, r28
    2106:	fd 1e       	adc	r15, r29
    2108:	ce 01       	movw	r24, r28
    210a:	01 96       	adiw	r24, 0x01	; 1
    210c:	b7 01       	movw	r22, r14
    210e:	0e 94 d7 12 	call	0x25ae	; 0x25ae <__unpack_f>
    2112:	8e 01       	movw	r16, r28
    2114:	0f 5e       	subi	r16, 0xEF	; 239
    2116:	1f 4f       	sbci	r17, 0xFF	; 255
    2118:	ce 01       	movw	r24, r28
    211a:	05 96       	adiw	r24, 0x05	; 5
    211c:	b8 01       	movw	r22, r16
    211e:	0e 94 d7 12 	call	0x25ae	; 0x25ae <__unpack_f>
    2122:	89 85       	ldd	r24, Y+9	; 0x09
    2124:	82 30       	cpi	r24, 0x02	; 2
    2126:	40 f0       	brcs	.+16     	; 0x2138 <__gtsf2+0x56>
    2128:	89 89       	ldd	r24, Y+17	; 0x11
    212a:	82 30       	cpi	r24, 0x02	; 2
    212c:	28 f0       	brcs	.+10     	; 0x2138 <__gtsf2+0x56>
    212e:	c7 01       	movw	r24, r14
    2130:	b8 01       	movw	r22, r16
    2132:	0e 94 4f 13 	call	0x269e	; 0x269e <__fpcmp_parts_f>
    2136:	01 c0       	rjmp	.+2      	; 0x213a <__gtsf2+0x58>
    2138:	8f ef       	ldi	r24, 0xFF	; 255
    213a:	68 96       	adiw	r28, 0x18	; 24
    213c:	e6 e0       	ldi	r30, 0x06	; 6
    213e:	0c 94 f7 13 	jmp	0x27ee	; 0x27ee <__epilogue_restores__+0x18>

00002142 <__gesf2>:
    2142:	a8 e1       	ldi	r26, 0x18	; 24
    2144:	b0 e0       	ldi	r27, 0x00	; 0
    2146:	e7 ea       	ldi	r30, 0xA7	; 167
    2148:	f0 e1       	ldi	r31, 0x10	; 16
    214a:	0c 94 db 13 	jmp	0x27b6	; 0x27b6 <__prologue_saves__+0x18>
    214e:	69 83       	std	Y+1, r22	; 0x01
    2150:	7a 83       	std	Y+2, r23	; 0x02
    2152:	8b 83       	std	Y+3, r24	; 0x03
    2154:	9c 83       	std	Y+4, r25	; 0x04
    2156:	2d 83       	std	Y+5, r18	; 0x05
    2158:	3e 83       	std	Y+6, r19	; 0x06
    215a:	4f 83       	std	Y+7, r20	; 0x07
    215c:	58 87       	std	Y+8, r21	; 0x08
    215e:	89 e0       	ldi	r24, 0x09	; 9
    2160:	e8 2e       	mov	r14, r24
    2162:	f1 2c       	mov	r15, r1
    2164:	ec 0e       	add	r14, r28
    2166:	fd 1e       	adc	r15, r29
    2168:	ce 01       	movw	r24, r28
    216a:	01 96       	adiw	r24, 0x01	; 1
    216c:	b7 01       	movw	r22, r14
    216e:	0e 94 d7 12 	call	0x25ae	; 0x25ae <__unpack_f>
    2172:	8e 01       	movw	r16, r28
    2174:	0f 5e       	subi	r16, 0xEF	; 239
    2176:	1f 4f       	sbci	r17, 0xFF	; 255
    2178:	ce 01       	movw	r24, r28
    217a:	05 96       	adiw	r24, 0x05	; 5
    217c:	b8 01       	movw	r22, r16
    217e:	0e 94 d7 12 	call	0x25ae	; 0x25ae <__unpack_f>
    2182:	89 85       	ldd	r24, Y+9	; 0x09
    2184:	82 30       	cpi	r24, 0x02	; 2
    2186:	40 f0       	brcs	.+16     	; 0x2198 <__gesf2+0x56>
    2188:	89 89       	ldd	r24, Y+17	; 0x11
    218a:	82 30       	cpi	r24, 0x02	; 2
    218c:	28 f0       	brcs	.+10     	; 0x2198 <__gesf2+0x56>
    218e:	c7 01       	movw	r24, r14
    2190:	b8 01       	movw	r22, r16
    2192:	0e 94 4f 13 	call	0x269e	; 0x269e <__fpcmp_parts_f>
    2196:	01 c0       	rjmp	.+2      	; 0x219a <__gesf2+0x58>
    2198:	8f ef       	ldi	r24, 0xFF	; 255
    219a:	68 96       	adiw	r28, 0x18	; 24
    219c:	e6 e0       	ldi	r30, 0x06	; 6
    219e:	0c 94 f7 13 	jmp	0x27ee	; 0x27ee <__epilogue_restores__+0x18>

000021a2 <__ltsf2>:
    21a2:	a8 e1       	ldi	r26, 0x18	; 24
    21a4:	b0 e0       	ldi	r27, 0x00	; 0
    21a6:	e7 ed       	ldi	r30, 0xD7	; 215
    21a8:	f0 e1       	ldi	r31, 0x10	; 16
    21aa:	0c 94 db 13 	jmp	0x27b6	; 0x27b6 <__prologue_saves__+0x18>
    21ae:	69 83       	std	Y+1, r22	; 0x01
    21b0:	7a 83       	std	Y+2, r23	; 0x02
    21b2:	8b 83       	std	Y+3, r24	; 0x03
    21b4:	9c 83       	std	Y+4, r25	; 0x04
    21b6:	2d 83       	std	Y+5, r18	; 0x05
    21b8:	3e 83       	std	Y+6, r19	; 0x06
    21ba:	4f 83       	std	Y+7, r20	; 0x07
    21bc:	58 87       	std	Y+8, r21	; 0x08
    21be:	89 e0       	ldi	r24, 0x09	; 9
    21c0:	e8 2e       	mov	r14, r24
    21c2:	f1 2c       	mov	r15, r1
    21c4:	ec 0e       	add	r14, r28
    21c6:	fd 1e       	adc	r15, r29
    21c8:	ce 01       	movw	r24, r28
    21ca:	01 96       	adiw	r24, 0x01	; 1
    21cc:	b7 01       	movw	r22, r14
    21ce:	0e 94 d7 12 	call	0x25ae	; 0x25ae <__unpack_f>
    21d2:	8e 01       	movw	r16, r28
    21d4:	0f 5e       	subi	r16, 0xEF	; 239
    21d6:	1f 4f       	sbci	r17, 0xFF	; 255
    21d8:	ce 01       	movw	r24, r28
    21da:	05 96       	adiw	r24, 0x05	; 5
    21dc:	b8 01       	movw	r22, r16
    21de:	0e 94 d7 12 	call	0x25ae	; 0x25ae <__unpack_f>
    21e2:	89 85       	ldd	r24, Y+9	; 0x09
    21e4:	82 30       	cpi	r24, 0x02	; 2
    21e6:	40 f0       	brcs	.+16     	; 0x21f8 <__ltsf2+0x56>
    21e8:	89 89       	ldd	r24, Y+17	; 0x11
    21ea:	82 30       	cpi	r24, 0x02	; 2
    21ec:	28 f0       	brcs	.+10     	; 0x21f8 <__ltsf2+0x56>
    21ee:	c7 01       	movw	r24, r14
    21f0:	b8 01       	movw	r22, r16
    21f2:	0e 94 4f 13 	call	0x269e	; 0x269e <__fpcmp_parts_f>
    21f6:	01 c0       	rjmp	.+2      	; 0x21fa <__ltsf2+0x58>
    21f8:	81 e0       	ldi	r24, 0x01	; 1
    21fa:	68 96       	adiw	r28, 0x18	; 24
    21fc:	e6 e0       	ldi	r30, 0x06	; 6
    21fe:	0c 94 f7 13 	jmp	0x27ee	; 0x27ee <__epilogue_restores__+0x18>

00002202 <__floatsisf>:
    2202:	a8 e0       	ldi	r26, 0x08	; 8
    2204:	b0 e0       	ldi	r27, 0x00	; 0
    2206:	e7 e0       	ldi	r30, 0x07	; 7
    2208:	f1 e1       	ldi	r31, 0x11	; 17
    220a:	0c 94 d8 13 	jmp	0x27b0	; 0x27b0 <__prologue_saves__+0x12>
    220e:	9b 01       	movw	r18, r22
    2210:	ac 01       	movw	r20, r24
    2212:	83 e0       	ldi	r24, 0x03	; 3
    2214:	89 83       	std	Y+1, r24	; 0x01
    2216:	da 01       	movw	r26, r20
    2218:	c9 01       	movw	r24, r18
    221a:	88 27       	eor	r24, r24
    221c:	b7 fd       	sbrc	r27, 7
    221e:	83 95       	inc	r24
    2220:	99 27       	eor	r25, r25
    2222:	aa 27       	eor	r26, r26
    2224:	bb 27       	eor	r27, r27
    2226:	b8 2e       	mov	r11, r24
    2228:	21 15       	cp	r18, r1
    222a:	31 05       	cpc	r19, r1
    222c:	41 05       	cpc	r20, r1
    222e:	51 05       	cpc	r21, r1
    2230:	19 f4       	brne	.+6      	; 0x2238 <__floatsisf+0x36>
    2232:	82 e0       	ldi	r24, 0x02	; 2
    2234:	89 83       	std	Y+1, r24	; 0x01
    2236:	3a c0       	rjmp	.+116    	; 0x22ac <__floatsisf+0xaa>
    2238:	88 23       	and	r24, r24
    223a:	a9 f0       	breq	.+42     	; 0x2266 <__floatsisf+0x64>
    223c:	20 30       	cpi	r18, 0x00	; 0
    223e:	80 e0       	ldi	r24, 0x00	; 0
    2240:	38 07       	cpc	r19, r24
    2242:	80 e0       	ldi	r24, 0x00	; 0
    2244:	48 07       	cpc	r20, r24
    2246:	80 e8       	ldi	r24, 0x80	; 128
    2248:	58 07       	cpc	r21, r24
    224a:	29 f4       	brne	.+10     	; 0x2256 <__floatsisf+0x54>
    224c:	60 e0       	ldi	r22, 0x00	; 0
    224e:	70 e0       	ldi	r23, 0x00	; 0
    2250:	80 e0       	ldi	r24, 0x00	; 0
    2252:	9f ec       	ldi	r25, 0xCF	; 207
    2254:	30 c0       	rjmp	.+96     	; 0x22b6 <__floatsisf+0xb4>
    2256:	ee 24       	eor	r14, r14
    2258:	ff 24       	eor	r15, r15
    225a:	87 01       	movw	r16, r14
    225c:	e2 1a       	sub	r14, r18
    225e:	f3 0a       	sbc	r15, r19
    2260:	04 0b       	sbc	r16, r20
    2262:	15 0b       	sbc	r17, r21
    2264:	02 c0       	rjmp	.+4      	; 0x226a <__floatsisf+0x68>
    2266:	79 01       	movw	r14, r18
    2268:	8a 01       	movw	r16, r20
    226a:	8e e1       	ldi	r24, 0x1E	; 30
    226c:	c8 2e       	mov	r12, r24
    226e:	d1 2c       	mov	r13, r1
    2270:	dc 82       	std	Y+4, r13	; 0x04
    2272:	cb 82       	std	Y+3, r12	; 0x03
    2274:	ed 82       	std	Y+5, r14	; 0x05
    2276:	fe 82       	std	Y+6, r15	; 0x06
    2278:	0f 83       	std	Y+7, r16	; 0x07
    227a:	18 87       	std	Y+8, r17	; 0x08
    227c:	c8 01       	movw	r24, r16
    227e:	b7 01       	movw	r22, r14
    2280:	0e 94 b3 11 	call	0x2366	; 0x2366 <__clzsi2>
    2284:	01 97       	sbiw	r24, 0x01	; 1
    2286:	18 16       	cp	r1, r24
    2288:	19 06       	cpc	r1, r25
    228a:	84 f4       	brge	.+32     	; 0x22ac <__floatsisf+0xaa>
    228c:	08 2e       	mov	r0, r24
    228e:	04 c0       	rjmp	.+8      	; 0x2298 <__floatsisf+0x96>
    2290:	ee 0c       	add	r14, r14
    2292:	ff 1c       	adc	r15, r15
    2294:	00 1f       	adc	r16, r16
    2296:	11 1f       	adc	r17, r17
    2298:	0a 94       	dec	r0
    229a:	d2 f7       	brpl	.-12     	; 0x2290 <__floatsisf+0x8e>
    229c:	ed 82       	std	Y+5, r14	; 0x05
    229e:	fe 82       	std	Y+6, r15	; 0x06
    22a0:	0f 83       	std	Y+7, r16	; 0x07
    22a2:	18 87       	std	Y+8, r17	; 0x08
    22a4:	c8 1a       	sub	r12, r24
    22a6:	d9 0a       	sbc	r13, r25
    22a8:	dc 82       	std	Y+4, r13	; 0x04
    22aa:	cb 82       	std	Y+3, r12	; 0x03
    22ac:	ba 82       	std	Y+2, r11	; 0x02
    22ae:	ce 01       	movw	r24, r28
    22b0:	01 96       	adiw	r24, 0x01	; 1
    22b2:	0e 94 02 12 	call	0x2404	; 0x2404 <__pack_f>
    22b6:	28 96       	adiw	r28, 0x08	; 8
    22b8:	e9 e0       	ldi	r30, 0x09	; 9
    22ba:	0c 94 f4 13 	jmp	0x27e8	; 0x27e8 <__epilogue_restores__+0x12>

000022be <__fixsfsi>:
    22be:	ac e0       	ldi	r26, 0x0C	; 12
    22c0:	b0 e0       	ldi	r27, 0x00	; 0
    22c2:	e5 e6       	ldi	r30, 0x65	; 101
    22c4:	f1 e1       	ldi	r31, 0x11	; 17
    22c6:	0c 94 df 13 	jmp	0x27be	; 0x27be <__prologue_saves__+0x20>
    22ca:	69 83       	std	Y+1, r22	; 0x01
    22cc:	7a 83       	std	Y+2, r23	; 0x02
    22ce:	8b 83       	std	Y+3, r24	; 0x03
    22d0:	9c 83       	std	Y+4, r25	; 0x04
    22d2:	ce 01       	movw	r24, r28
    22d4:	01 96       	adiw	r24, 0x01	; 1
    22d6:	be 01       	movw	r22, r28
    22d8:	6b 5f       	subi	r22, 0xFB	; 251
    22da:	7f 4f       	sbci	r23, 0xFF	; 255
    22dc:	0e 94 d7 12 	call	0x25ae	; 0x25ae <__unpack_f>
    22e0:	8d 81       	ldd	r24, Y+5	; 0x05
    22e2:	82 30       	cpi	r24, 0x02	; 2
    22e4:	61 f1       	breq	.+88     	; 0x233e <__fixsfsi+0x80>
    22e6:	82 30       	cpi	r24, 0x02	; 2
    22e8:	50 f1       	brcs	.+84     	; 0x233e <__fixsfsi+0x80>
    22ea:	84 30       	cpi	r24, 0x04	; 4
    22ec:	21 f4       	brne	.+8      	; 0x22f6 <__fixsfsi+0x38>
    22ee:	8e 81       	ldd	r24, Y+6	; 0x06
    22f0:	88 23       	and	r24, r24
    22f2:	51 f1       	breq	.+84     	; 0x2348 <__fixsfsi+0x8a>
    22f4:	2e c0       	rjmp	.+92     	; 0x2352 <__fixsfsi+0x94>
    22f6:	2f 81       	ldd	r18, Y+7	; 0x07
    22f8:	38 85       	ldd	r19, Y+8	; 0x08
    22fa:	37 fd       	sbrc	r19, 7
    22fc:	20 c0       	rjmp	.+64     	; 0x233e <__fixsfsi+0x80>
    22fe:	6e 81       	ldd	r22, Y+6	; 0x06
    2300:	2f 31       	cpi	r18, 0x1F	; 31
    2302:	31 05       	cpc	r19, r1
    2304:	1c f0       	brlt	.+6      	; 0x230c <__fixsfsi+0x4e>
    2306:	66 23       	and	r22, r22
    2308:	f9 f0       	breq	.+62     	; 0x2348 <__fixsfsi+0x8a>
    230a:	23 c0       	rjmp	.+70     	; 0x2352 <__fixsfsi+0x94>
    230c:	8e e1       	ldi	r24, 0x1E	; 30
    230e:	90 e0       	ldi	r25, 0x00	; 0
    2310:	82 1b       	sub	r24, r18
    2312:	93 0b       	sbc	r25, r19
    2314:	29 85       	ldd	r18, Y+9	; 0x09
    2316:	3a 85       	ldd	r19, Y+10	; 0x0a
    2318:	4b 85       	ldd	r20, Y+11	; 0x0b
    231a:	5c 85       	ldd	r21, Y+12	; 0x0c
    231c:	04 c0       	rjmp	.+8      	; 0x2326 <__fixsfsi+0x68>
    231e:	56 95       	lsr	r21
    2320:	47 95       	ror	r20
    2322:	37 95       	ror	r19
    2324:	27 95       	ror	r18
    2326:	8a 95       	dec	r24
    2328:	d2 f7       	brpl	.-12     	; 0x231e <__fixsfsi+0x60>
    232a:	66 23       	and	r22, r22
    232c:	b1 f0       	breq	.+44     	; 0x235a <__fixsfsi+0x9c>
    232e:	50 95       	com	r21
    2330:	40 95       	com	r20
    2332:	30 95       	com	r19
    2334:	21 95       	neg	r18
    2336:	3f 4f       	sbci	r19, 0xFF	; 255
    2338:	4f 4f       	sbci	r20, 0xFF	; 255
    233a:	5f 4f       	sbci	r21, 0xFF	; 255
    233c:	0e c0       	rjmp	.+28     	; 0x235a <__fixsfsi+0x9c>
    233e:	20 e0       	ldi	r18, 0x00	; 0
    2340:	30 e0       	ldi	r19, 0x00	; 0
    2342:	40 e0       	ldi	r20, 0x00	; 0
    2344:	50 e0       	ldi	r21, 0x00	; 0
    2346:	09 c0       	rjmp	.+18     	; 0x235a <__fixsfsi+0x9c>
    2348:	2f ef       	ldi	r18, 0xFF	; 255
    234a:	3f ef       	ldi	r19, 0xFF	; 255
    234c:	4f ef       	ldi	r20, 0xFF	; 255
    234e:	5f e7       	ldi	r21, 0x7F	; 127
    2350:	04 c0       	rjmp	.+8      	; 0x235a <__fixsfsi+0x9c>
    2352:	20 e0       	ldi	r18, 0x00	; 0
    2354:	30 e0       	ldi	r19, 0x00	; 0
    2356:	40 e0       	ldi	r20, 0x00	; 0
    2358:	50 e8       	ldi	r21, 0x80	; 128
    235a:	b9 01       	movw	r22, r18
    235c:	ca 01       	movw	r24, r20
    235e:	2c 96       	adiw	r28, 0x0c	; 12
    2360:	e2 e0       	ldi	r30, 0x02	; 2
    2362:	0c 94 fb 13 	jmp	0x27f6	; 0x27f6 <__epilogue_restores__+0x20>

00002366 <__clzsi2>:
    2366:	ef 92       	push	r14
    2368:	ff 92       	push	r15
    236a:	0f 93       	push	r16
    236c:	1f 93       	push	r17
    236e:	7b 01       	movw	r14, r22
    2370:	8c 01       	movw	r16, r24
    2372:	80 e0       	ldi	r24, 0x00	; 0
    2374:	e8 16       	cp	r14, r24
    2376:	80 e0       	ldi	r24, 0x00	; 0
    2378:	f8 06       	cpc	r15, r24
    237a:	81 e0       	ldi	r24, 0x01	; 1
    237c:	08 07       	cpc	r16, r24
    237e:	80 e0       	ldi	r24, 0x00	; 0
    2380:	18 07       	cpc	r17, r24
    2382:	88 f4       	brcc	.+34     	; 0x23a6 <__clzsi2+0x40>
    2384:	8f ef       	ldi	r24, 0xFF	; 255
    2386:	e8 16       	cp	r14, r24
    2388:	f1 04       	cpc	r15, r1
    238a:	01 05       	cpc	r16, r1
    238c:	11 05       	cpc	r17, r1
    238e:	31 f0       	breq	.+12     	; 0x239c <__clzsi2+0x36>
    2390:	28 f0       	brcs	.+10     	; 0x239c <__clzsi2+0x36>
    2392:	88 e0       	ldi	r24, 0x08	; 8
    2394:	90 e0       	ldi	r25, 0x00	; 0
    2396:	a0 e0       	ldi	r26, 0x00	; 0
    2398:	b0 e0       	ldi	r27, 0x00	; 0
    239a:	17 c0       	rjmp	.+46     	; 0x23ca <__clzsi2+0x64>
    239c:	80 e0       	ldi	r24, 0x00	; 0
    239e:	90 e0       	ldi	r25, 0x00	; 0
    23a0:	a0 e0       	ldi	r26, 0x00	; 0
    23a2:	b0 e0       	ldi	r27, 0x00	; 0
    23a4:	12 c0       	rjmp	.+36     	; 0x23ca <__clzsi2+0x64>
    23a6:	80 e0       	ldi	r24, 0x00	; 0
    23a8:	e8 16       	cp	r14, r24
    23aa:	80 e0       	ldi	r24, 0x00	; 0
    23ac:	f8 06       	cpc	r15, r24
    23ae:	80 e0       	ldi	r24, 0x00	; 0
    23b0:	08 07       	cpc	r16, r24
    23b2:	81 e0       	ldi	r24, 0x01	; 1
    23b4:	18 07       	cpc	r17, r24
    23b6:	28 f0       	brcs	.+10     	; 0x23c2 <__clzsi2+0x5c>
    23b8:	88 e1       	ldi	r24, 0x18	; 24
    23ba:	90 e0       	ldi	r25, 0x00	; 0
    23bc:	a0 e0       	ldi	r26, 0x00	; 0
    23be:	b0 e0       	ldi	r27, 0x00	; 0
    23c0:	04 c0       	rjmp	.+8      	; 0x23ca <__clzsi2+0x64>
    23c2:	80 e1       	ldi	r24, 0x10	; 16
    23c4:	90 e0       	ldi	r25, 0x00	; 0
    23c6:	a0 e0       	ldi	r26, 0x00	; 0
    23c8:	b0 e0       	ldi	r27, 0x00	; 0
    23ca:	20 e2       	ldi	r18, 0x20	; 32
    23cc:	30 e0       	ldi	r19, 0x00	; 0
    23ce:	40 e0       	ldi	r20, 0x00	; 0
    23d0:	50 e0       	ldi	r21, 0x00	; 0
    23d2:	28 1b       	sub	r18, r24
    23d4:	39 0b       	sbc	r19, r25
    23d6:	4a 0b       	sbc	r20, r26
    23d8:	5b 0b       	sbc	r21, r27
    23da:	04 c0       	rjmp	.+8      	; 0x23e4 <__clzsi2+0x7e>
    23dc:	16 95       	lsr	r17
    23de:	07 95       	ror	r16
    23e0:	f7 94       	ror	r15
    23e2:	e7 94       	ror	r14
    23e4:	8a 95       	dec	r24
    23e6:	d2 f7       	brpl	.-12     	; 0x23dc <__clzsi2+0x76>
    23e8:	f7 01       	movw	r30, r14
    23ea:	e8 59       	subi	r30, 0x98	; 152
    23ec:	ff 4f       	sbci	r31, 0xFF	; 255
    23ee:	80 81       	ld	r24, Z
    23f0:	28 1b       	sub	r18, r24
    23f2:	31 09       	sbc	r19, r1
    23f4:	41 09       	sbc	r20, r1
    23f6:	51 09       	sbc	r21, r1
    23f8:	c9 01       	movw	r24, r18
    23fa:	1f 91       	pop	r17
    23fc:	0f 91       	pop	r16
    23fe:	ff 90       	pop	r15
    2400:	ef 90       	pop	r14
    2402:	08 95       	ret

00002404 <__pack_f>:
    2404:	df 92       	push	r13
    2406:	ef 92       	push	r14
    2408:	ff 92       	push	r15
    240a:	0f 93       	push	r16
    240c:	1f 93       	push	r17
    240e:	fc 01       	movw	r30, r24
    2410:	e4 80       	ldd	r14, Z+4	; 0x04
    2412:	f5 80       	ldd	r15, Z+5	; 0x05
    2414:	06 81       	ldd	r16, Z+6	; 0x06
    2416:	17 81       	ldd	r17, Z+7	; 0x07
    2418:	d1 80       	ldd	r13, Z+1	; 0x01
    241a:	80 81       	ld	r24, Z
    241c:	82 30       	cpi	r24, 0x02	; 2
    241e:	48 f4       	brcc	.+18     	; 0x2432 <__pack_f+0x2e>
    2420:	80 e0       	ldi	r24, 0x00	; 0
    2422:	90 e0       	ldi	r25, 0x00	; 0
    2424:	a0 e1       	ldi	r26, 0x10	; 16
    2426:	b0 e0       	ldi	r27, 0x00	; 0
    2428:	e8 2a       	or	r14, r24
    242a:	f9 2a       	or	r15, r25
    242c:	0a 2b       	or	r16, r26
    242e:	1b 2b       	or	r17, r27
    2430:	a5 c0       	rjmp	.+330    	; 0x257c <__pack_f+0x178>
    2432:	84 30       	cpi	r24, 0x04	; 4
    2434:	09 f4       	brne	.+2      	; 0x2438 <__pack_f+0x34>
    2436:	9f c0       	rjmp	.+318    	; 0x2576 <__pack_f+0x172>
    2438:	82 30       	cpi	r24, 0x02	; 2
    243a:	21 f4       	brne	.+8      	; 0x2444 <__pack_f+0x40>
    243c:	ee 24       	eor	r14, r14
    243e:	ff 24       	eor	r15, r15
    2440:	87 01       	movw	r16, r14
    2442:	05 c0       	rjmp	.+10     	; 0x244e <__pack_f+0x4a>
    2444:	e1 14       	cp	r14, r1
    2446:	f1 04       	cpc	r15, r1
    2448:	01 05       	cpc	r16, r1
    244a:	11 05       	cpc	r17, r1
    244c:	19 f4       	brne	.+6      	; 0x2454 <__pack_f+0x50>
    244e:	e0 e0       	ldi	r30, 0x00	; 0
    2450:	f0 e0       	ldi	r31, 0x00	; 0
    2452:	96 c0       	rjmp	.+300    	; 0x2580 <__pack_f+0x17c>
    2454:	62 81       	ldd	r22, Z+2	; 0x02
    2456:	73 81       	ldd	r23, Z+3	; 0x03
    2458:	9f ef       	ldi	r25, 0xFF	; 255
    245a:	62 38       	cpi	r22, 0x82	; 130
    245c:	79 07       	cpc	r23, r25
    245e:	0c f0       	brlt	.+2      	; 0x2462 <__pack_f+0x5e>
    2460:	5b c0       	rjmp	.+182    	; 0x2518 <__pack_f+0x114>
    2462:	22 e8       	ldi	r18, 0x82	; 130
    2464:	3f ef       	ldi	r19, 0xFF	; 255
    2466:	26 1b       	sub	r18, r22
    2468:	37 0b       	sbc	r19, r23
    246a:	2a 31       	cpi	r18, 0x1A	; 26
    246c:	31 05       	cpc	r19, r1
    246e:	2c f0       	brlt	.+10     	; 0x247a <__pack_f+0x76>
    2470:	20 e0       	ldi	r18, 0x00	; 0
    2472:	30 e0       	ldi	r19, 0x00	; 0
    2474:	40 e0       	ldi	r20, 0x00	; 0
    2476:	50 e0       	ldi	r21, 0x00	; 0
    2478:	2a c0       	rjmp	.+84     	; 0x24ce <__pack_f+0xca>
    247a:	b8 01       	movw	r22, r16
    247c:	a7 01       	movw	r20, r14
    247e:	02 2e       	mov	r0, r18
    2480:	04 c0       	rjmp	.+8      	; 0x248a <__pack_f+0x86>
    2482:	76 95       	lsr	r23
    2484:	67 95       	ror	r22
    2486:	57 95       	ror	r21
    2488:	47 95       	ror	r20
    248a:	0a 94       	dec	r0
    248c:	d2 f7       	brpl	.-12     	; 0x2482 <__pack_f+0x7e>
    248e:	81 e0       	ldi	r24, 0x01	; 1
    2490:	90 e0       	ldi	r25, 0x00	; 0
    2492:	a0 e0       	ldi	r26, 0x00	; 0
    2494:	b0 e0       	ldi	r27, 0x00	; 0
    2496:	04 c0       	rjmp	.+8      	; 0x24a0 <__pack_f+0x9c>
    2498:	88 0f       	add	r24, r24
    249a:	99 1f       	adc	r25, r25
    249c:	aa 1f       	adc	r26, r26
    249e:	bb 1f       	adc	r27, r27
    24a0:	2a 95       	dec	r18
    24a2:	d2 f7       	brpl	.-12     	; 0x2498 <__pack_f+0x94>
    24a4:	01 97       	sbiw	r24, 0x01	; 1
    24a6:	a1 09       	sbc	r26, r1
    24a8:	b1 09       	sbc	r27, r1
    24aa:	8e 21       	and	r24, r14
    24ac:	9f 21       	and	r25, r15
    24ae:	a0 23       	and	r26, r16
    24b0:	b1 23       	and	r27, r17
    24b2:	00 97       	sbiw	r24, 0x00	; 0
    24b4:	a1 05       	cpc	r26, r1
    24b6:	b1 05       	cpc	r27, r1
    24b8:	21 f0       	breq	.+8      	; 0x24c2 <__pack_f+0xbe>
    24ba:	81 e0       	ldi	r24, 0x01	; 1
    24bc:	90 e0       	ldi	r25, 0x00	; 0
    24be:	a0 e0       	ldi	r26, 0x00	; 0
    24c0:	b0 e0       	ldi	r27, 0x00	; 0
    24c2:	9a 01       	movw	r18, r20
    24c4:	ab 01       	movw	r20, r22
    24c6:	28 2b       	or	r18, r24
    24c8:	39 2b       	or	r19, r25
    24ca:	4a 2b       	or	r20, r26
    24cc:	5b 2b       	or	r21, r27
    24ce:	da 01       	movw	r26, r20
    24d0:	c9 01       	movw	r24, r18
    24d2:	8f 77       	andi	r24, 0x7F	; 127
    24d4:	90 70       	andi	r25, 0x00	; 0
    24d6:	a0 70       	andi	r26, 0x00	; 0
    24d8:	b0 70       	andi	r27, 0x00	; 0
    24da:	80 34       	cpi	r24, 0x40	; 64
    24dc:	91 05       	cpc	r25, r1
    24de:	a1 05       	cpc	r26, r1
    24e0:	b1 05       	cpc	r27, r1
    24e2:	39 f4       	brne	.+14     	; 0x24f2 <__pack_f+0xee>
    24e4:	27 ff       	sbrs	r18, 7
    24e6:	09 c0       	rjmp	.+18     	; 0x24fa <__pack_f+0xf6>
    24e8:	20 5c       	subi	r18, 0xC0	; 192
    24ea:	3f 4f       	sbci	r19, 0xFF	; 255
    24ec:	4f 4f       	sbci	r20, 0xFF	; 255
    24ee:	5f 4f       	sbci	r21, 0xFF	; 255
    24f0:	04 c0       	rjmp	.+8      	; 0x24fa <__pack_f+0xf6>
    24f2:	21 5c       	subi	r18, 0xC1	; 193
    24f4:	3f 4f       	sbci	r19, 0xFF	; 255
    24f6:	4f 4f       	sbci	r20, 0xFF	; 255
    24f8:	5f 4f       	sbci	r21, 0xFF	; 255
    24fa:	e0 e0       	ldi	r30, 0x00	; 0
    24fc:	f0 e0       	ldi	r31, 0x00	; 0
    24fe:	20 30       	cpi	r18, 0x00	; 0
    2500:	a0 e0       	ldi	r26, 0x00	; 0
    2502:	3a 07       	cpc	r19, r26
    2504:	a0 e0       	ldi	r26, 0x00	; 0
    2506:	4a 07       	cpc	r20, r26
    2508:	a0 e4       	ldi	r26, 0x40	; 64
    250a:	5a 07       	cpc	r21, r26
    250c:	10 f0       	brcs	.+4      	; 0x2512 <__pack_f+0x10e>
    250e:	e1 e0       	ldi	r30, 0x01	; 1
    2510:	f0 e0       	ldi	r31, 0x00	; 0
    2512:	79 01       	movw	r14, r18
    2514:	8a 01       	movw	r16, r20
    2516:	27 c0       	rjmp	.+78     	; 0x2566 <__pack_f+0x162>
    2518:	60 38       	cpi	r22, 0x80	; 128
    251a:	71 05       	cpc	r23, r1
    251c:	64 f5       	brge	.+88     	; 0x2576 <__pack_f+0x172>
    251e:	fb 01       	movw	r30, r22
    2520:	e1 58       	subi	r30, 0x81	; 129
    2522:	ff 4f       	sbci	r31, 0xFF	; 255
    2524:	d8 01       	movw	r26, r16
    2526:	c7 01       	movw	r24, r14
    2528:	8f 77       	andi	r24, 0x7F	; 127
    252a:	90 70       	andi	r25, 0x00	; 0
    252c:	a0 70       	andi	r26, 0x00	; 0
    252e:	b0 70       	andi	r27, 0x00	; 0
    2530:	80 34       	cpi	r24, 0x40	; 64
    2532:	91 05       	cpc	r25, r1
    2534:	a1 05       	cpc	r26, r1
    2536:	b1 05       	cpc	r27, r1
    2538:	39 f4       	brne	.+14     	; 0x2548 <__pack_f+0x144>
    253a:	e7 fe       	sbrs	r14, 7
    253c:	0d c0       	rjmp	.+26     	; 0x2558 <__pack_f+0x154>
    253e:	80 e4       	ldi	r24, 0x40	; 64
    2540:	90 e0       	ldi	r25, 0x00	; 0
    2542:	a0 e0       	ldi	r26, 0x00	; 0
    2544:	b0 e0       	ldi	r27, 0x00	; 0
    2546:	04 c0       	rjmp	.+8      	; 0x2550 <__pack_f+0x14c>
    2548:	8f e3       	ldi	r24, 0x3F	; 63
    254a:	90 e0       	ldi	r25, 0x00	; 0
    254c:	a0 e0       	ldi	r26, 0x00	; 0
    254e:	b0 e0       	ldi	r27, 0x00	; 0
    2550:	e8 0e       	add	r14, r24
    2552:	f9 1e       	adc	r15, r25
    2554:	0a 1f       	adc	r16, r26
    2556:	1b 1f       	adc	r17, r27
    2558:	17 ff       	sbrs	r17, 7
    255a:	05 c0       	rjmp	.+10     	; 0x2566 <__pack_f+0x162>
    255c:	16 95       	lsr	r17
    255e:	07 95       	ror	r16
    2560:	f7 94       	ror	r15
    2562:	e7 94       	ror	r14
    2564:	31 96       	adiw	r30, 0x01	; 1
    2566:	87 e0       	ldi	r24, 0x07	; 7
    2568:	16 95       	lsr	r17
    256a:	07 95       	ror	r16
    256c:	f7 94       	ror	r15
    256e:	e7 94       	ror	r14
    2570:	8a 95       	dec	r24
    2572:	d1 f7       	brne	.-12     	; 0x2568 <__pack_f+0x164>
    2574:	05 c0       	rjmp	.+10     	; 0x2580 <__pack_f+0x17c>
    2576:	ee 24       	eor	r14, r14
    2578:	ff 24       	eor	r15, r15
    257a:	87 01       	movw	r16, r14
    257c:	ef ef       	ldi	r30, 0xFF	; 255
    257e:	f0 e0       	ldi	r31, 0x00	; 0
    2580:	6e 2f       	mov	r22, r30
    2582:	67 95       	ror	r22
    2584:	66 27       	eor	r22, r22
    2586:	67 95       	ror	r22
    2588:	90 2f       	mov	r25, r16
    258a:	9f 77       	andi	r25, 0x7F	; 127
    258c:	d7 94       	ror	r13
    258e:	dd 24       	eor	r13, r13
    2590:	d7 94       	ror	r13
    2592:	8e 2f       	mov	r24, r30
    2594:	86 95       	lsr	r24
    2596:	49 2f       	mov	r20, r25
    2598:	46 2b       	or	r20, r22
    259a:	58 2f       	mov	r21, r24
    259c:	5d 29       	or	r21, r13
    259e:	b7 01       	movw	r22, r14
    25a0:	ca 01       	movw	r24, r20
    25a2:	1f 91       	pop	r17
    25a4:	0f 91       	pop	r16
    25a6:	ff 90       	pop	r15
    25a8:	ef 90       	pop	r14
    25aa:	df 90       	pop	r13
    25ac:	08 95       	ret

000025ae <__unpack_f>:
    25ae:	fc 01       	movw	r30, r24
    25b0:	db 01       	movw	r26, r22
    25b2:	40 81       	ld	r20, Z
    25b4:	51 81       	ldd	r21, Z+1	; 0x01
    25b6:	22 81       	ldd	r18, Z+2	; 0x02
    25b8:	62 2f       	mov	r22, r18
    25ba:	6f 77       	andi	r22, 0x7F	; 127
    25bc:	70 e0       	ldi	r23, 0x00	; 0
    25be:	22 1f       	adc	r18, r18
    25c0:	22 27       	eor	r18, r18
    25c2:	22 1f       	adc	r18, r18
    25c4:	93 81       	ldd	r25, Z+3	; 0x03
    25c6:	89 2f       	mov	r24, r25
    25c8:	88 0f       	add	r24, r24
    25ca:	82 2b       	or	r24, r18
    25cc:	28 2f       	mov	r18, r24
    25ce:	30 e0       	ldi	r19, 0x00	; 0
    25d0:	99 1f       	adc	r25, r25
    25d2:	99 27       	eor	r25, r25
    25d4:	99 1f       	adc	r25, r25
    25d6:	11 96       	adiw	r26, 0x01	; 1
    25d8:	9c 93       	st	X, r25
    25da:	11 97       	sbiw	r26, 0x01	; 1
    25dc:	21 15       	cp	r18, r1
    25de:	31 05       	cpc	r19, r1
    25e0:	a9 f5       	brne	.+106    	; 0x264c <__unpack_f+0x9e>
    25e2:	41 15       	cp	r20, r1
    25e4:	51 05       	cpc	r21, r1
    25e6:	61 05       	cpc	r22, r1
    25e8:	71 05       	cpc	r23, r1
    25ea:	11 f4       	brne	.+4      	; 0x25f0 <__unpack_f+0x42>
    25ec:	82 e0       	ldi	r24, 0x02	; 2
    25ee:	37 c0       	rjmp	.+110    	; 0x265e <__unpack_f+0xb0>
    25f0:	82 e8       	ldi	r24, 0x82	; 130
    25f2:	9f ef       	ldi	r25, 0xFF	; 255
    25f4:	13 96       	adiw	r26, 0x03	; 3
    25f6:	9c 93       	st	X, r25
    25f8:	8e 93       	st	-X, r24
    25fa:	12 97       	sbiw	r26, 0x02	; 2
    25fc:	9a 01       	movw	r18, r20
    25fe:	ab 01       	movw	r20, r22
    2600:	67 e0       	ldi	r22, 0x07	; 7
    2602:	22 0f       	add	r18, r18
    2604:	33 1f       	adc	r19, r19
    2606:	44 1f       	adc	r20, r20
    2608:	55 1f       	adc	r21, r21
    260a:	6a 95       	dec	r22
    260c:	d1 f7       	brne	.-12     	; 0x2602 <__unpack_f+0x54>
    260e:	83 e0       	ldi	r24, 0x03	; 3
    2610:	8c 93       	st	X, r24
    2612:	0d c0       	rjmp	.+26     	; 0x262e <__unpack_f+0x80>
    2614:	22 0f       	add	r18, r18
    2616:	33 1f       	adc	r19, r19
    2618:	44 1f       	adc	r20, r20
    261a:	55 1f       	adc	r21, r21
    261c:	12 96       	adiw	r26, 0x02	; 2
    261e:	8d 91       	ld	r24, X+
    2620:	9c 91       	ld	r25, X
    2622:	13 97       	sbiw	r26, 0x03	; 3
    2624:	01 97       	sbiw	r24, 0x01	; 1
    2626:	13 96       	adiw	r26, 0x03	; 3
    2628:	9c 93       	st	X, r25
    262a:	8e 93       	st	-X, r24
    262c:	12 97       	sbiw	r26, 0x02	; 2
    262e:	20 30       	cpi	r18, 0x00	; 0
    2630:	80 e0       	ldi	r24, 0x00	; 0
    2632:	38 07       	cpc	r19, r24
    2634:	80 e0       	ldi	r24, 0x00	; 0
    2636:	48 07       	cpc	r20, r24
    2638:	80 e4       	ldi	r24, 0x40	; 64
    263a:	58 07       	cpc	r21, r24
    263c:	58 f3       	brcs	.-42     	; 0x2614 <__unpack_f+0x66>
    263e:	14 96       	adiw	r26, 0x04	; 4
    2640:	2d 93       	st	X+, r18
    2642:	3d 93       	st	X+, r19
    2644:	4d 93       	st	X+, r20
    2646:	5c 93       	st	X, r21
    2648:	17 97       	sbiw	r26, 0x07	; 7
    264a:	08 95       	ret
    264c:	2f 3f       	cpi	r18, 0xFF	; 255
    264e:	31 05       	cpc	r19, r1
    2650:	79 f4       	brne	.+30     	; 0x2670 <__unpack_f+0xc2>
    2652:	41 15       	cp	r20, r1
    2654:	51 05       	cpc	r21, r1
    2656:	61 05       	cpc	r22, r1
    2658:	71 05       	cpc	r23, r1
    265a:	19 f4       	brne	.+6      	; 0x2662 <__unpack_f+0xb4>
    265c:	84 e0       	ldi	r24, 0x04	; 4
    265e:	8c 93       	st	X, r24
    2660:	08 95       	ret
    2662:	64 ff       	sbrs	r22, 4
    2664:	03 c0       	rjmp	.+6      	; 0x266c <__unpack_f+0xbe>
    2666:	81 e0       	ldi	r24, 0x01	; 1
    2668:	8c 93       	st	X, r24
    266a:	12 c0       	rjmp	.+36     	; 0x2690 <__unpack_f+0xe2>
    266c:	1c 92       	st	X, r1
    266e:	10 c0       	rjmp	.+32     	; 0x2690 <__unpack_f+0xe2>
    2670:	2f 57       	subi	r18, 0x7F	; 127
    2672:	30 40       	sbci	r19, 0x00	; 0
    2674:	13 96       	adiw	r26, 0x03	; 3
    2676:	3c 93       	st	X, r19
    2678:	2e 93       	st	-X, r18
    267a:	12 97       	sbiw	r26, 0x02	; 2
    267c:	83 e0       	ldi	r24, 0x03	; 3
    267e:	8c 93       	st	X, r24
    2680:	87 e0       	ldi	r24, 0x07	; 7
    2682:	44 0f       	add	r20, r20
    2684:	55 1f       	adc	r21, r21
    2686:	66 1f       	adc	r22, r22
    2688:	77 1f       	adc	r23, r23
    268a:	8a 95       	dec	r24
    268c:	d1 f7       	brne	.-12     	; 0x2682 <__unpack_f+0xd4>
    268e:	70 64       	ori	r23, 0x40	; 64
    2690:	14 96       	adiw	r26, 0x04	; 4
    2692:	4d 93       	st	X+, r20
    2694:	5d 93       	st	X+, r21
    2696:	6d 93       	st	X+, r22
    2698:	7c 93       	st	X, r23
    269a:	17 97       	sbiw	r26, 0x07	; 7
    269c:	08 95       	ret

0000269e <__fpcmp_parts_f>:
    269e:	1f 93       	push	r17
    26a0:	dc 01       	movw	r26, r24
    26a2:	fb 01       	movw	r30, r22
    26a4:	9c 91       	ld	r25, X
    26a6:	92 30       	cpi	r25, 0x02	; 2
    26a8:	08 f4       	brcc	.+2      	; 0x26ac <__fpcmp_parts_f+0xe>
    26aa:	47 c0       	rjmp	.+142    	; 0x273a <__fpcmp_parts_f+0x9c>
    26ac:	80 81       	ld	r24, Z
    26ae:	82 30       	cpi	r24, 0x02	; 2
    26b0:	08 f4       	brcc	.+2      	; 0x26b4 <__fpcmp_parts_f+0x16>
    26b2:	43 c0       	rjmp	.+134    	; 0x273a <__fpcmp_parts_f+0x9c>
    26b4:	94 30       	cpi	r25, 0x04	; 4
    26b6:	51 f4       	brne	.+20     	; 0x26cc <__fpcmp_parts_f+0x2e>
    26b8:	11 96       	adiw	r26, 0x01	; 1
    26ba:	1c 91       	ld	r17, X
    26bc:	84 30       	cpi	r24, 0x04	; 4
    26be:	99 f5       	brne	.+102    	; 0x2726 <__fpcmp_parts_f+0x88>
    26c0:	81 81       	ldd	r24, Z+1	; 0x01
    26c2:	68 2f       	mov	r22, r24
    26c4:	70 e0       	ldi	r23, 0x00	; 0
    26c6:	61 1b       	sub	r22, r17
    26c8:	71 09       	sbc	r23, r1
